S01900006C65645374726970436F6E74726F6C6C65722E73313970
S3150800000000200020452C0008952C00083D05000816
S3150800001000000000000000000000000000000000D2
S31508000020000000000000000000000000952C0008F9
S315080000300000000000000000952C000811050008CB
S31508000040952C0008952C0008952C0008952C00087E
S31508000050952C0008952C0008952C0008952C00086E
S31508000060952C0008952C0008952C0008952C00085E
S31508000070952C0008952C000800000000952C000817
S3150800008000000000952C0008000000000000000099
S31508000090952C000800000000952C0008952C0008F7
S315080000A0952C0008952C0008952C0008952C00081E
S315080000B0952C0008952C000800000000952C0008D7
S315080000C010B5064C2378002B07D1054B002B02D020
S315080000D0044800E000BF0123237010BD3804002047
S315080000E0000000009C2C000808B5084B002B03D024
S315080000F00748084900E000BF07480368002B00D1FD
S3150800010008BD064B002BFBD09847F9E70000000016
S315080001109C2C00083C040020340400200000000049
S31508000120164B002B00D1144B9D46402292029A1A78
S31508000130924600218B460F461348144A121A02F0BB
S31508000140C9FB0F4B002B00D098470E4B002B00D055
S3150800015098470020002104000D000D48002802D011
S315080001600C4802F08DFC02F091FB2000290002F0F9
S3150800017013FD02F07BFBC0460000080000000000EB
S315080001800000000000000000380400204807002096
S31508000190812A0008912A000830B502240B4B87B043
S315080001A0DA6A0B4D2243DA62DB6A281C2340009385
S315080001B0009B01230293002301A90194039304934E
S315080001C000F0E2FFAC6107B030BDC0460010024047
S315080001D000040050FF22144B10B55A60FF22120289
S315080001E09A60FF22002002241204DA600F4A18607F
S315080001F0D16A86B02143D162D36A01A9234000930C
S31508000200009B80230A4C01937F3B029303900233A1
S31508000210201C049300F0B8FF201C8021002201F066
S3150800022045F906B010BDC046200700200010024060
S3150800023000040050054A1378642B05D0591CD318BE
S3150800024018710120117070470020FCE75404002043
S3150800025095221C48920070B5031C81180EE01A6896
S31508000260002A0ED05A7852085A709A7852089A700C
S315080002701A7852081A7004338B4206D05A68002A34
S31508000280EDD01A6004338B42F8D10F4D2A78002A34
S3150800029013D0541EA1B22B1D01312E7959185A7844
S315080002A01A7001338B42FAD12C70032E06D9074BEC
S315080002B01A6895239B00C25070BD0026034BB600F2
S315080002C0F258F6E7C804002054040020200700204E
S315080002D08022104B9A61C046C046C046C046C046FA
S315080002E0C046C046C046C046C046C046C046C046D0
S315080002F0C046C046C046C046C046C046C046C046C0
S315080003009A62002805D0C046C046C046C046C046C8
S31508000310C0467047000400508022124B9A61C046BE
S31508000320C046C046C046C046C046C046C046C0468F
S31508000330C0469A62C046C046C046C046C046C04689
S31508000340C046C046C046C046C046C046C046C0466F
S31508000350002805D0C046C046C046C046C046C0466E
S315080003607047C04600040050F8B5052246464F4679
S31508000370184BC0B41A60184BE1268024994601230D
S3150800038036012404002598460AE0FFF7A1FF002F4E
S3150800039012D080240135013EADB22404002E11D0BE
S315080003A04A464746AB00D3582740381C2342ECD16F
S315080003B0FFF7B2FF002FECD16408C046C046013EE5
S315080003C0002EEDD10722034B1A600CBC90469946C5
S315080003D0F8BDC04610E000E0C804002070B5061C51
S315080003E01825012405E0013DFFF772FF6400002D82
S315080003F008D001202642F6D1013DFFF78DFF6400A3
S31508000400002DF6D170BDC0462022064B9A62C04622
S31508000410C046C046C046C046C046C046C046C0469E
S31508000420C04670470004005030B5094C20780028B3
S315080004300CD0013881B2231D0131257959185A7813
S315080004401A7001338B42FAD12070281C30BDC04681
S3150800045054040020032802D9034B18687047024B3E
S315080004608000C058FAE7C046200700204023244AE7
S3150800047000B5116895B00B4380211360214A4905E0
S31508000480936B06A80B4393631F4A204B11680B40D6
S31508000490802109010B4313600222069210928022E2
S315080004A0D202129280220123D203099313920F33A8
S315080004B00F220A93002301920C3A07930D930B938C
S315080004C008930C931193029203930493059301F0F6
S315080004D075F9012101A801F021FC01F069FDFA2155
S315080004E0890002F031F900F0E1F9042000F03EFA43
S315080004F0012001214042002200F080F915B000BD1C
S31508000500002002400010024000700040FFE7FFFF95
S31508000510024A1368013313607047C046BC040020C2
S31508000520054982B00B68C01801900A68019B9A4277
S31508000530FBD302B07047C046BC040020FEE7C046A5
S315080005408021104B49001A680A431A60D9680E4A76
S315080005500A40DA6019680D4A0A4001211A609A6849
S315080005608A439A6019680A4A0A401A60D968094A89
S315080005700A40DA6000221A618022074B12059A6047
S315080005807047C046001002400C40FF88F6FFF6FE92
S31508000590FFFFFBFFFFFF02FF00ED00E00C211F4AF3
S315080005A010B5D3680B40042B30D020D9082B12D0B5
S315080005B00C2B28D1D3681A4CD1689B021B0FE05C20
S315080005C00902D368890F0131DB0322D4154B58433E
S315080005D002F0BAF801E01448114C104BDB681B0610
S315080005E01B0FE3181B7BD840104B186010BD002B5F
S315080005F009D1506880230004400F01301B02834054
S31508000600074C181CE9E7054B5868F3E70548044CFE
S31508000610E3E7054B584302F097F8DEE7001002407F
S31508000620502E00080024F40000127A00040000206E
S315080006307047C0467047C0460121002208B5074BDF
S31508000640494299629A6259625A6219621A62D96172
S31508000650DA61FFF7EFFF002008BDC0460010024030
S3150800066010B5041C01F0A4FCFA21890002F06CF80C
S3150800067000F01CF90120211C4042002200F0BEF8BF
S31508000680002010BD08B50020FFF7EAFFFFF7D0FFEE
S31508000690002008BD024A1368013313607047C0463C
S315080006A0C4040020014B18687047C046C4040020E3
S315080006B010B582B00190FFF7F5FF041CFFF7F2FFB3
S315080006C0019B001B9842F9D302B010BD0221024AD1
S315080006D013688B431360704710E000E00223024A58
S315080006E011680B431360704710E000E0004870473C
S315080006F000000501014B1868000C704700580140BE
S31508000700024B18680005000D7047C04600580140A6
S315080007100123024A51680B43536070470058014051
S315080007200121024A53688B435360704700580140C1
S315080007300223024A51680B43536070470058014030
S315080007400221024A53688B435360704700580140A0
S315080007500423024A51680B4353607047005801400E
S315080007600421024A53688B4353607047005801407E
S31508000770024A5368184350607047C0460058014003
S31508000780024A5368834353607047C0460058014085
S31508000790024B1868C0239B001840704700000140B0
S315080007A00123024A116A0B43136270470000014095
S315080007B00121024A136A8B43136270470000014005
S315080007C03021044B1A6A8A431A621A6A104318625D
S315080007D07047C046000001408021034A0906136A93
S315080007E00B4313627047C04600000140024A136A71
S315080007F05B005B08136270470000014070B5002873
S3150800080015DB0324830889012040FC34C000261C1C
S3150800081021408140114AC02594468640081C9B0009
S315080008206344AD005A59B2431043585170BD03246E
S315080008300F23C0B203402040FC34251C084AC000E0
S3150800084094468901854021408140083B9B089B00CE
S315080008506344DA69AA430A43DA61E7E700E100E09C
S3150800086000ED00E01F2318401E3B8340181C014B77
S315080008701860704700E100E01F2318401E3B8340C4
S31508000880181C8023014AD0507047C04600E100E09A
S31508000890BFF34F8F034A044BDA60BFF34F8FC0464E
S315080008A0FDE7C0460400FA0500ED00E00A4A431ECB
S315080008B0012093420ED8C020084A094953600B6AA2
S315080008C000061B021B0A03430B62002300209360E9
S315080008D0073313607047C046FFFFFF0010E000E0D3
S315080008E000ED00E000280BDB8308C0330A4A9B00B2
S315080008F09B5803221040C000C3401806800F70475B
S315080009000F23064AC0B294460340083B9B089B0047
S3150800091063445B68EDE7C04600E100E018ED00E0DF
S315080009201F2318401E3B8340181C8023014A5B0086
S31508000930D050704700E100E08023054A5B00D35899
S315080009401F221040C340181C012318407047C04698
S3150800095000E100E01F2318401E3B8340181CC023FB
S31508000960014A5B00D050704700E100E0042805D03A
S315080009700421054A13688B4313607047024B1A68B3
S3150800098010431860F9E7C04610E000E07047C0461B
S3150800099008B5FFF7FBFF08BD4279124B9A6002794A
S315080009A0012A03D00022DA601A61704701680E3204
S315080009B09143D960827A1107427A12060A4301796D
S315080009C00A43C17A89040A43017B49040A43417BE5
S315080009D009040A43C17909020A43817949000A438D
S315080009E01A61E2E790ED00E0214B9B69DB0504D52F
S315080009F00823204A51690B4353611D4B9B699B058C
S31508000A0004D504231B4A51690B435361184B9B6950
S31508000A105B0504D50223174A51690B435361144BEE
S31508000A209B691B0504D51023124A51690B43536170
S31508000A300F4B9B699B0404D501230E4A51690B434E
S31508000A4053610B4B9B699B0304D52023094A5169C3
S31508000A500B435361064B9B69DB0304D54023054AC8
S31508000A6051690B435361044A014B9A617047C0466A
S31508000A700020024030070020002F03007047C046C0
S31508000A807047C04638B5354B354A9B69354C1340D7
S31508000A90934224D00223314DAA69134203D0AB6195
S31508000AA02378002B12D12378DBB2002B0DD12B4AE9
S31508000AB02D4950680140516050682C4901405160E9
S31508000AC050682B4901405160237438BD2378012BA7
S31508000AD011D02378022B38D000232370E3E723783C
S31508000AE0012B27D0E568FFF77FFF281CFFF7C8FF13
S31508000AF000232370CEE76368013B63606368002BBD
S31508000B001CD0A068FFF7BAFFA368A26880208032CD
S31508000B10A2606968174A80000A4000216A6061611C
S31508000B206A68803302436A600822686802436A601A
S31508000B301960B8E7023BA568A360D4E701204042E4
S31508000B40A0602370FFF79AFFADE708226B6893430E
S31508000B506B60E068FFF792FFBEE7C04600200240E0
S31508000B60002F030030070020F7FDFFFFFFFFFEFF01
S31508000B70FFFFFDFFFFFDFFFF094B01205A689207A3
S31508000B8008D55A68104206D10020054B054A1A6155
S31508000B90054A1A617047054ADA60054ADA60F3E7DA
S31508000BA000200240BFAE9D8C16151413EFCDAB89FD
S31508000BB0050403020223034A002051680B435360CD
S31508000BC07047C04600200240094B01205A68520768
S31508000BD008D55A68104206D10020054B054A5A61C5
S31508000BE0054A5A617047054ADA60054ADA60F3E74A
S31508000BF000200240C8D9EAFB27262524EFCDAB8979
S31508000C00050403020423034A002051680B4353607A
S31508000C107047C04600200240014B58697047C046DD
S31508000C2030070020F8B5041CFFF73CFD1A4E071CD8
S31508000C30012501E0631C12D1B369174A1D42F9D197
S31508000C40022391690B4213D1134B9A69D20502D438
S31508000C509A6992050ED5FFF7C7FE0120F8BD002C4C
S31508000C6004D0FFF71FFDC01B8442E5D20320F5E739
S31508000C709361E9E79A695205EDD49A691205EAD4AF
S31508000C809A699204E7D49A699203E4D49B6900208E
S31508000C90DB03E0D4E2E7C0460020024070B50C4C06
S31508000CA00220237C012B00D170BD01230948161CA4
S31508000CB00D1C2374FFF7B6FF002802D00023237407
S31508000CC0F2E760612E600348FFF7ACFFF6E7C0461F
S31508000CD03007002050C30000F8B5114C051C237CD2
S31508000CE00220012B00D1F8BD01230E48171C0E1C4B
S31508000CF02374FFF797FF0028F5D180210A4B490294
S31508000D005A680A4380215A605A6889020A435A6017
S31508000D1002232370E660022DE5D160613760E2E7C1
S31508000D203007002050C30000002002400022802126
S31508000D3008B5054BC9025A61044A054853680B436E
S31508000D405360FFF76FFF08BD300700200020024000
S31508000D5050C30000002110B58024064BA400596139
S31508000D60054B5A6822435A6008225C6822435A6037
S31508000D70016010BD300700200020024038B5041C71
S31508000D8010480D1CFFF74EFF00280DD10E4B586179
S31508000D90230409D0002D0BD10C498B68A3439BB2C1
S31508000DA0DA43120413438B600648FFF73BFF38BD4E
S31508000DB0064A93681C43A4B2E3431B041C4394608D
S31508000DC0F2E7C04650C30000300700200000F81FB5
S31508000DD070B50B4D061C0B486C68FFF723FF0028FF
S31508000DE00CD12404084B3602240C34435861E343DF
S31508000DF01B041C432C600348FFF714FF70BDC04654
S31508000E000000F81F50C3000030070020F0B5574611
S31508000E1045464E46E0B4224B022798461B7C012BDA
S31508000E2005D1381C1CBC90469946A246F0BD012344
S31508000E304246061C1B488A461374FFF7F3FE071E34
S31508000E402AD143465861012352465B421360B36870
S31508000E507468DB011B199C421ED20823124D994661
S31508000E6007E07268B3689446DB0180346344A342A2
S31508000E7012D9201CFFF76EFF0A48FFF7D3FE4A4631
S31508000E806B6893436B606A68084B13406B60002875
S31508000E90E7D05346071C1C60002342461374C0E77C
S31508000EA03007002050C3000000200240FFFDFFFF6E
S31508000EB0F8B5114D02242B7C012B01D1201CF8BD5D
S31508000EC00127061C0D482F74FFF7ACFE041EF5D14A
S31508000ED080210B4B49025A680A4380215A605A6896
S31508000EE089020A435A60B368686170682F706B603C
S31508000EF0A860FFF72FFFE1E73007002050C3000086
S31508000F0000200240F0B5474680B4464D041C2B7CB1
S31508000F100220012B0FD0012223682A7401381A42B5
S31508000F200CD19A0712D45A072BD41A075CD4DB06BD
S31508000F3045D400232B7404BC9046F0BDA0686168B4
S31508000F40FFF71CFF00285AD12368EAE7364E3748D0
S31508000F503368277B9846FFF765FE0028E9D1FF230B
S31508000F6042461B021A40131C3B43DA43120413433E
S31508000F70686133602D48FFF755FE0028D9D12368EC
S31508000F80D1E70023284EA77B6B61736827489846EC
S31508000F90FFF748FE0028CCD1702342461F40244B59
S31508000FA068611A40131C3B43DA4312041343736007
S31508000FB01E48FFF737FE0028BBD12368B5E71A4E4F
S31508000FC01A48E77B7468FFF72DFE0028B1D1640440
S31508000FD0FF03640C3C43E3431B041C4368617460D1
S31508000FE01248FFF71FFEA4E70F4E10487368677B89
S31508000FF09846FFF717FE002804D0236897E70022D3
S315080010002A7498E742460B4B68611A40131C3B4307
S31508001010DA431204134373600448FFF703FE236898
S3150800102085E7C046300700200000F81F50C30000BF
S315080010308FFF0000F0FF00000F230360094B1A6AB8
S315080010408260DA690273E022D969D2030A40120C77
S315080010508273DA691203120F4273DB69DB0FC373FB
S315080010607047C0460020024008B5031C1A680120D4
S31508001070D20703D598681979FFF780FE08BDC046E0
S315080010800123044A0360D369DB05DB0F0371136A86
S31508001090836070470020024008B50120FFF798FEDC
S315080010A008BDC04608B50020FFF792FE08BDC04639
S315080010B0054B01205A68D20704D50020034ADA6096
S315080010C0034ADA607047C04600200240EFCDAB897C
S315080010D0050403020123034A002051680B435360A9
S315080010E07047C0460020024010B5041C0548FFF7AB
S315080010F099FD002805D1044B586120600148FFF787
S3150800110091FD10BD50C3000030070020F8B5124C01
S31508001110051C237C0F1C161C0220012B00D1F8BDD0
S3150800112001230E482374FFF77DFD031E0BD163616F
S31508001130022D0BD0012D0BD0002D01D1F6B23E7039
S315080011400648FFF76FFD00232374E8E73E60F7E7DC
S31508001150B6B23E80F4E7C0463007002050C3000010
S315080011608021034A490053680B4353607047C046C1
S3150800117000200240024A034B51680B4053607047F7
S3150800118000200240FFFEFFFFF0B54D465F4656467B
S315080011904446F0B40B6883B089469C46002B00D1C0
S315080011A0B5E001239B46664B00270022002498469B
S315080011B0E24667E0013D012D00D884E00325BD40E5
S315080011C0ED4302682A40161C03220A40BA403243FD
S315080011D00260C26815404A469268BA4015438022A2
S315080011E05205C560114247D0564B03255A6B5B46DC
S315080011F01A43544B25405A63534BAD009C460F2364
S31508001200AB40A2089200624496689E43A023DB0581
S31508001210984200D182E04D4B984200D180E04C4B79
S31508001220984200D180E04B4B984200D180E04A4B6F
S31508001230984200D180E00623AB401D1C4346354347
S3150800124095601A68009BDD43CB035DD42A4043466C
S315080012501A605A688B0354D42A4043465A609A68DF
S31508001260CB024BD42A4043469A60DA688B0242D4B2
S31508001270131C2B404246D36053460134221C0237C6
S31508001280E34044D05B46514693400B400093F3D06D
S315080012904946496810260D1CB543022D8AD1E50832
S315080012A0AD00431901931B6A093E9C460F2326404D
S315080012B0B600B34065469D434B461B69B3401E1CAA
S315080012C0019B2E431E620325BD40ED4386684B46AF
S315080012D02E40B446DE686346BE401E435B469340D6
S315080012E0866046689E4310230B401B0993401A1CD0
S315080012F03243426065E7009B1343BBE7009B1A43F2
S31508001300B1E7009B1A43A8E7009B1A439FE703B07F
S315080013103CBC90469946A246AB46F0BD00258DE7F3
S315080013205B46AB401D1C89E70223AB401D1C85E7C5
S315080013300323AB401D1C81E70523AB401D1C7DE73D
S315080013400004014000100240000001400004005063
S3150800135000080050000C0050001C0050F0B5444630
S315080013605F4656464D46F0B4002383B00024002954
S3150800137070D001229446023290460C32914604E01F
S315080013800A1C01331C1CDA4064D062460E1CA240BB
S31508001390141C1640F4D047465A009740FA4305688D
S315080013A015400560DD08AD00471901973F6ABB4641
S315080013B007271F40BF00BA464F465546AF40BA46B4
S315080013C05F465546AF433D1C019F3D6285684F46C3
S315080013D0154085604568A5434560C4682240C260DB
S315080013E0294A9C08924642461A4092009740A40011
S315080013F05444A568BA463D40A027FF05B84230D0F8
S31508001400224FB8422FD0224FB84230D0214FB8428F
S3150800141031D0214FB84232D0062797403A1C954220
S31508001420AED15546F643A2680133AA43A2601B4AC9
S315080014301A4C126832402260626832406260A268C2
S315080014403240A260E26816400A1CE660DA401C1CBC
S31508001450002A9AD103B03CBC90469946A246AB46B0
S31508001460F0BD0022DBE7674697403A1CD7E702271C
S3150800147097403A1CD3E7474697403A1CCFE70527DB
S3150800148097403A1CCBE7C0460000014000040050D4
S3150800149000080050000C0050001C005000040140D9
S315080014A000690840411E8841C0B27047002A01D130
S315080014B0816270478161FCE7436959404161704721
S315080014C0802382B05B020193019B0B430193019B2E
S315080014D0C361C161019BC361C3690193C3690120EB
S315080014E01B0C984302B070477047C04608B5044BBA
S315080014F05A69024202D05861FFF7F6FF08BDC04696
S31508001500000401408021054B49059A6A0A439A62FC
S31508001510996A034A0A409A627047C0460010024018
S31508001520FFFFFFEF8021034A490013680B4313604E
S315080015307047C04600700040024A034B11680B40D2
S315080015401360704700700040FFFEFFFFE0211A4A53
S3150800155013688B4301680B431360184B184A596884
S3150800156011405960196811401960D9681140D9604D
S3150800157099680A4080219A60426849020A4202D064
S31508001580186801431960930305D580200B4940026A
S315080015904B6803434B60D30705D5802007494002B3
S315080015A08B6803438B60930705D58021034A49025C
S315080015B0D3680B43D36070470070004000040140B5
S315080015C0FFFFFEFF1023024A11680B4313607047A2
S315080015D0007000401021024A13688B43136070475D
S315080015E000700040024A5368184350607047C0466E
S315080015F000700040024A5368834353607047C046F0
S315080016000070004010B50324084A1368A343184322
S3150800161010600420064A136983431361012903D025
S3150800162040BF20BF20BF10BD30BFFCE700700040A0
S3150800163000ED00E010B503240B4A1368A3431843D2
S3150800164004231060094A106903431361012908D06D
S3150800165040BF20BF20BF0421044A13698B4313618E
S3150800166010BD30BFF7E7C0460070004000ED00E04F
S315080016700223054A11680B4313600423034A1169C0
S315080016800B43136130BF70470070004000ED00E067
S315080016900223024A11690B431361704700ED00E00B
S315080016A00221024A13698B431361704700ED00E07B
S315080016B01023024A11690B431361704700ED00E0DD
S315080016C01021024A13698B431361704700ED00E04D
S315080016D07047C04638B58025044C6D0263692B42B5
S315080016E002D0FFF7F5FF656138BDC046000401402A
S315080016F08021034AC90013680B4313607047C0462C
S3150800170000700040024A034B11680B401360704793
S3150800171000700040FFFBFFFF8021034A8900136821
S315080017200B4313607047C04600700040024A034BE3
S3150800173011680B401360704700700040FFFDFFFF03
S315080017400122054B19680A4380211A601A68C901E3
S315080017500A431A607047C0460070004010B5124C24
S31508001760124B2268124913400122236023689343CF
S315080017702360104B186800F0E7FF3223584300280F
S315080017800BD063689B0608D5221C202102E053680B
S31508001790194202D001380028F9D10320024B5B68B0
S315080017A09B06DB17184010BD00700040FFBFFFFF07
S315080017B040420F00040000207047C046F0B5574667
S315080017C04E464546E0B4036882B0041CDA0736D5AF
S315080017D00C20CA49CA680240082A00D15DE1CA68D5
S315080017E002400C2A00D154E1802361685B029942C9
S315080017F000D1ECE1A022D202914200D198E1BF4D7E
S31508001800BF4A286802402A602A6813400193019B50
S315080018102A68BC4B13402B60002900D095E1FEF7DF
S3150800182041FF8026071CB60205E0FEF73BFFC01BFA
S31508001830642800D99AE12B683342F6D123689A07BF
S315080018402CD50C20AD49CA680240042A00D193E180
S31508001850CA6802400C2A00D18AE1E368A74D002B2A
S3150800186000D138E109212A6804278A4313432B60EB
S31508001870FEF718FF061C05E0FEF714FF801B02287A
S3150800188000D973E12B689D4A1F42F5D02169536838
S3150800189008029D490B40034353602368DA062CD59A
S315080018A00C22964DEB681A4200D1D6E0E369002B6C
S315080018B000D191E180222B68520013432B60FEF77A
S315080018C0F1FE8026071CB60005E0FEF7EBFEC01BFE
S315080018D0022800D94AE12B68884A3342F5D0516874
S315080018E08A4B0B40616A0B4353605368216A1B029B
S315080018F009061B0A0B43536023681A0717D5636941
S315080019007E4D002B00D1D3E001232A6D0226134316
S315080019102B65FEF7C7FE071C05E0FEF7C3FEC01BD6
S31508001920022800D922E12B6D1E42F6D023689A06BA
S315080019301FD5A369714D002B00D130E10123AA6898
S3150800194073491A43AA606A6B02261343714A6B638A
S31508001950136A0B431362FEF7A5FE071C05E0FEF7A4
S31508001960A1FEC01B022800D900E1AB681E42F6D0D2
S3150800197023685B074AD580220020604B5205996B85
S315080019808146114204D1996B0A439A630123994609
S3150800199080260022604D76002B689246334200D19D
S315080019A048E18022A3685200934200D154E1002BFB
S315080019B000D125E1A021C9008B4200D18AE14F4B15
S315080019C0564A196D0A401A65196D554A0A401A652C
S315080019D0FEF768FE80258046484EAD00514F06E06A
S315080019E0FEF760FE4346C01AB84200D9BEE0336D22
S315080019F02B42F5D05346012B00D165E14B46012B0E
S31508001A0004D13E4A484B916B0B409363A36A002B63
S31508001A101CD00C21394DEA680A400C2A46D02A689F
S31508001A20022B00D11DE1414B2C1C13402B60FEF705
S31508001A3039FE8025061CAD0405E0FEF733FE801B43
S31508001A40022800D992E023682B42F6D1002002B082
S31508001A501CBC90469946A246F0BD2B689B0502D54C
S31508001A60E369002B22D0254A284B516800200B40F9
S31508001A70616A0B4353605368216A1B0209061B0AF5
S31508001A800B435360FEF7ECFD23681A0700D44EE7B4
S31508001A9035E7CA68D20300D4A6E6184A1268920344
S31508001AA000D4CCE66268002A00D0C8E60120CEE75A
S31508001AB001222B6D022693432B65FEF7F3FD071CC7
S31508001AC004E0FEF7EFFDC01B02284FD82B6D1E421F
S31508001AD0F7D123682BE709222B68042693432B604A
S31508001AE0FEF7E0FD071C04E0FEF7DCFDC01B02283C
S31508001AF03CD82B681E42F7D12368CFE60010024077
S31508001B00FFFFFEFFFFFFFBFFFFE0FFFFFF1FFFFFDB
S31508001B10012000000000014000700040FFFEFFFFAA
S31508001B20FFFBFFFF88130000FFFFFFEFFFFFFFFE2D
S31508001B306F4A704910680140802011601168C00220
S31508001B400143116011680B431360FEF7ABFD802556
S31508001B50071C674EAD0204E0FEF7A4FDC01B64280F
S31508001B6004D833682B42F7D0236868E603206EE76B
S31508001B70CA68D20300D570E65D4A1268520702D5D4
S31508001B80E268012A92D12169594D08026A685A49C0
S31508001B900A4002436A60DA0600D4AEE680E601220D
S31508001BA0AB6802269343554AAB60116A544B0B4007
S31508001BB01362FEF777FD071C04E0FEF773FDC01BF2
S31508001BC00228D3D8AB681E42F7D12368D1E6484A23
S31508001BD0136819431160B8E72A684A4B80261340F0
S31508001BE02B60FEF75FFDB600071C04E0FEF75AFD02
S31508001BF0C01B0228BAD82B683342F7D123687CE683
S31508001C003B4D404B2A6D802613402B652A6D3E4B73
S31508001C10B60013402B65FEF745FD3C4F804605E0B0
S31508001C20FEF740FD4346C01AB8429FD82B6D334293
S31508001C30F6D1DFE62B6833432B60FEF733FD071C2E
S31508001C4004E0FEF72FFDC01B64288FD82B683342AB
S31508001C50F7D001239A46A4E625490A6D13430B6576
S31508001C60B6E62B4B802713402B60FEF71BFDBF04FF
S31508001C70804606E0FEF716FD4346C01A022800D93C
S31508001C8074E72B681A4E3B42F4D1226B616BF368FA
S31508001C901143E26A802411431E4AA4041340802299
S31508001CA00B43F3603368520413433360FEF7FAFCC0
S31508001CB0051C05E0FEF7F6FC401B022800D955E78F
S31508001CC033682342F6D0C1E6134A0E4B11680B401F
S31508001CD0136093E6064B0B49186D01408020196581
S31508001CE0196DC00001431965196D0A431A656FE637
S31508001CF000100240FFFFFEFFFFE0FFFF000001406B
S31508001D00FEDFFFFFFFFEFFFFFFFBFFFF881300005C
S31508001D10FFFFFFFEFFFF02FF00700040F8B54F46C9
S31508001D2046460124554AC0B4136823408B420CD258
S31508001D301368A3430B43136013681C408C4204D0FA
S31508001D4001200CBC90469946F8BD03689A0706D54B
S31508001D50F0254B4CE268AA4385682A43E2600C1CCE
S31508001D60061CDB0728D5464A43681268022B4FD063
S31508001D70002B48D0032B7ED05207E1D50321404DD6
S31508001D80EA688A431343EB60FEF78CFC7368071C0A
S31508001D90022B40D0032B5ED0002B4CD10C33984637
S31508001DA0384B994604E0FEF77DFCC01B48452DD804
S31508001DB04246EB681A42F6D10121304A13680B40B5
S31508001DC09C4207D813688B43234313601368194052
S31508001DD0A142B5D133685A0706D529492A4AC8689F
S31508001DE00240F0680243CA601B0707D524483169D8
S31508001DF0C368264AC90013400B43C3600020FEF798
S31508001E002FFC00209DE79205B8D499E7032098E7B0
S31508001E109203B3D494E70A3398461A4B994604E0DA
S31508001E20FEF740FCC01B4845F0D84246EB68134015
S31508001E30082BF5D1C0E70C239846124B994604E0C7
S31508001E40FEF730FCC01B4845E0D84246EB68134015
S31508001E50042BF5D1B0E7093398460A4B994604E0B6
S31508001E60FEF720FCC01B4845D0D84246EB68134015
S31508001E700C2BF5D1A0E7920180D461E7002002403F
S31508001E800010024088130000FFF8FFFFFFC7FFFF9E
S31508001E90022370B588B004930133069300230C1C03
S31508001EA0151C059300280AD001281BD01649174B84
S31508001EB0CA681A402A432243CA6008B070BD012680
S31508001EC0114AD16A3143D162D36A079033400193EC
S31508001ED0019BA0208023C0055B0003A90393FFF79D
S31508001EE053F9E3E7084AD16A0143D162D26A03A9E2
S31508001EF010400290029AA0208022C0059200039208
S31508001F000793FFF741F9D1E700100240FFFFFF8072
S31508001F108021034A090313680B4313607047C046C0
S31508001F20001002400C211D4A08B55068D368000409
S31508001F30400F0B40042B20D019D9082B15D00C2B99
S31508001F4015D1D3681648D1689B021B0FC35C0902DA
S31508001F50D068890F0131C00316D41268D20618D585
S31508001F601048584300F0F0FB00E00F4808BD8023F6
S31508001F7001301B028340181CF8E71368DB0601D5FD
S31508001F800848F3E70948F1E70748584300F0DCFB3F
S31508001F90ECE70648584300F0D7FBE7E70010024095
S31508001FA0502E000800093D0000127A000024F400B3
S31508001FB008B5FFF7B7FF054B054ADB681B061B0F7D
S31508001FC0D35CD840034B186008BDC04600100240D9
S31508001FD06C2E00080400002008B5FFF7E9FF044B43
S31508001FE0044ADB685B055B0FD35CD84008BDC04676
S31508001FF0001002406C2E000808B5FFF7D9FF044B05
S31508002000044ADB689B045B0FD35CD84008BDC04616
S31508002010001002406C2E00083F230360364B1A68F6
S31508002020520343D5A023DB024360334B1A6880234F
S315080020305B00134046D00123C3612F4A13681B0E69
S31508002040036253681B045B0F4362936801221340C3
S315080020504BD082610122284B1B68134043D0C260D3
S31508002060254A5368DB04DB0E0361136D5B0533D524
S31508002070A023DB00836001221F4B1B6D134023D076
S315080020801D4B42611B68DB0123D401238362802335
S31508002090194A5B02D1680B40C362D3689B021B0FC7
S315080020A00363D3681B029B0F4363704780221B6838
S315080020B0520213401DD0104B42601A6880235B0001
S315080020C01340B8D1C361B8E743610B4B1B68DB010A
S315080020D0DBD502238362DAE7136D802252001340B0
S315080020E005D08260C7E7C360BAE78361B2E7836059
S315080020F0C1E7436099E7C046001002400F2310B5B8
S31508002100032403600C4BDA6822404260DA68ED3437
S3150800211022408260E022DC68D2002240C260DA688F
S31508002120E0239B0113400122DB080361034B1B6874
S3150800213013400B6010BDC04600100240002002404C
S315080021407047C04638B58025044C6D0063692B423C
S3150800215002D0FFF7F5FFA56138BDC0460010024062
S3150800216080210C4B49001A6882B00A431A60196824
S31508002170094A0A401A608022196852020A400192E6
S31508002180019A1968054A0A401A600022DA601A613B
S3150800219002B0704700100240F4FFF6FEFFFFFBFF97
S315080021A0F0B54746036880B4071C9A0650D54369BC
S315080021B0C020554980030A685A40024205D0C02209
S315080021C092021340934200D17EE0802180254E4A38
S315080021D04905936B4D4C0B43936323686D002B4362
S315080021E02360FEF75FFA061C04E0FEF75BFA801B25
S315080021F0642867D823682B42F7D0C021424C7A69F5
S31508002200236D890253400B4221D08025206D216D14
S315080022102D0329432165256D3D493E4B29408025DF
S315080022200340AD0021652365284253D1C023101C05
S315080022309B02184098425DD0334A374B11680B40D1
S3150800224013603149334A0B6D134003430B653B68F2
S31508002250DA0706D503202C49CA6C824378680243FC
S31508002260CA649A0706D50C202749CA6C8243B868FF
S315080022700243CA645A0706D52349284AC86C02404D
S31508002280F8680243CA641A0706D51F49244AC86C67
S31508002290024038690243CA645A0606D51A49214AD1
S315080022A0C86C0240B8690243CA6400201B0606D5FA
S315080022B015491D4BCA6C1340FA691343CB6404BC19
S315080022C09046F0BD0320FAE70B6801209B0300D473
S315080022D07BE7F4E7FEF7E6F9144B061C984604E09C
S315080022E0FEF7E0F9801B4045ECD8236D2B42F7D06A
S315080022F07A699BE7C021044C074B256889030A4085
S315080023002B401A4322609CE70010024000700040F0
S31508002310FFFFF7FFFFFFFCFFFFFFCFFFFFF3FFFF06
S31508002320FFCFFFFFFFFFFFFBFFFFF3FF8813000050
S31508002330EF2303210360114BDA6C0A404260DA6C22
S3150800234009310A408260C022D96C12010A40C26073
S31508002350C022D96C92010A400261C022D96C1203CC
S315080023600A40C261C022196D92020A404261DA6CC3
S315080023708023DB04134083617047C0460010024087
S3150800238010B5402813D8614B80001B589F46C023C0
S315080023905F4A9B01D16C0B4063D0802189018B4237
S315080023A000D190E080225201934200D191E00020B2
S315080023B010BD8021564AC904D36C0B4079D11368E5
S315080023C000209B01F4D5D3685248D1689B021B0FA5
S315080023D0C35C0902D068890F0131C00300D58AE0C1
S315080023E01268D20600D588E04B48584300F0ACF98D
S315080023F0DEE70321464AD36C0B4079D0022B62D024
S31508002400012B66D00020032BD2D1106D8005C00F9A
S31508002410C003CDE70C213E4AD36C0B4021D0082BD4
S3150800242051D0042B55D000200C2BC1D1EDE7C0228A
S3150800243037491201CB6C134013D080200001834228
S3150800244050D08020C000834243D000209342AFD1B1
S31508002450086D8005C00FC003AAE72D4B9B6B5B0276
S31508002460A5D5FFF7B9FDA3E7C0218020284A890230
S31508002470136D40020B408342C7D08024A402A342B6
S315080024802AD000208B4200D092E71368234200D15D
S315080024908EE71368C02280219203134089038B427A
S315080024A031D093422DD080225203934227D01B4825
S315080024B07EE700208B4200D07AE793689B0700D41A
S315080024C076E7174874E713685B0700D46FE7124886
S315080024D06EE7FFF727FD6BE7136D9B0700D466E7EA
S315080024E0104865E70B685B0700D460E70A485FE7B2
S315080024F0FFF782FD5CE70C4877E7084875E70B4865
S3150800250056E70B4854E70B4852E7C0467C2E0008AE
S3150800251000100240502E00080024F40000093D0077
S31508002520006CDC028890000000127A0080841E008D
S3150800253020A1070040420F008021034A8901136D3C
S315080025400B4313657047C04600100240044B054A0A
S31508002550196D0A4080211A651A698A431A617047FB
S3150800256000100240FFDFFFFF8021094B89011A6D29
S3150800257080200A431A658022196900030A431A61F2
S31508002580044B1968014319609A6802439A607047B8
S3150800259000100240000401407047C04638B5802547
S315080025A0034C63691D4202D0FFF7F6FFA56138BDEB
S315080025B00010024080211C4B09059A6A0A439A6258
S315080025C0996A1A4A0A409A62194B1A4A59680A407D
S315080025D05A605A6801680A435A605A6841680A4349
S315080025E05A605A6881680A435A605A68120E120677
S315080025F05A605A68C1680A435A6001695A680904E8
S315080026000A435A6019680C4A0A401A6042691968EE
S3150800261012020A431A60402219680A431A602022E5
S3150800262019680A431A60704700100240FFFFFFF757
S31508002630006C0040FFFFFF48FFC0FFFF8023024AEF
S3150800264011680B4313607047006C0040084A5368D2
S315080026501B041B0C036013689B049B0E4360936862
S315080026601B0C8360802392681B021340C36070476B
S31508002670006C0040F8B5051CFEF714F80126071C87
S31508002680214C6B1C37D00120002D36D1A3681E4281
S3150800269002D00223E66018430223A268134202D03E
S315080026A00422E3601043A3685B0505D52023E2688E
S315080026B018431C3B1343E360A368DB0505D50823D1
S315080026C0E2681843043B1343E360A3689B0509D5F6
S315080026D01023E26818430C3B1343E360A3681B0707
S315080026E003D4F8BDA3681B0701D50823E3600028B7
S315080026F0F7D16B1CC7D10020C8E7FDF7D3FFC01B75
S31508002700854280414042C1E7006C0040024A0349C5
S31508002710136A0B4313627047000001400120000052
S31508002720024A034B116A0B401362704700000140CE
S31508002730FEDFFFFF9C2F0008000000203404002065
S315080027403804002048070020002243088B4274D32F
S3150800275003098B425FD3030A8B4244D3030B8B4294
S3150800276028D3030C8B420DD3FF22090212BA030C9D
S315080027708B4202D31212090265D0030B8B4219D37E
S3150800278000E0090AC30B8B4201D3CB03C01A52419E
S31508002790830B8B4201D38B03C01A5241430B8B42E6
S315080027A001D34B03C01A5241030B8B4201D30B03CF
S315080027B0C01A5241C30A8B4201D3CB02C01A5241F6
S315080027C0830A8B4201D38B02C01A5241430A8B42B9
S315080027D001D34B02C01A5241030A8B4201D30B02A2
S315080027E0C01A5241CDD2C3098B4201D3CB01C01ABC
S315080027F0524183098B4201D38B01C01A52414309C6
S315080028008B4201D34B01C01A524103098B4201D3B3
S315080028100B01C01A5241C3088B4201D3CB00C01A20
S31508002820524183088B4201D38B00C01A5241430898
S315080028308B4201D34B00C01A5241411A00D20146BD
S31508002840524110467047FFE701B5002000F00CF82A
S3150800285002BDC0460029F7D003B5FFF775FF0EBCC9
S315080028604243891A1847C0467047C04610B500212A
S31508002870041C00F081F8044B1868C36B002B00D0C9
S315080028809847201C00F008FA842F000870B50D4EF2
S315080028900D4D0024AD1BAD1005D0A300F35801342F
S315080028A09847A542F9D100F0FBF9084E084D0024D7
S315080028B0AD1BAD1005D0A300F35801349847A542C7
S315080028C0F9D170BD902F0008902F0008902F0008AE
S315080028D0982F000870B583073FD0541E002A3BD0B6
S315080028E0CEB2031C032503E0621E002C34D0141C50
S315080028F001335A1E16702B42F6D1032C24D9FF2514
S315080029000D402A0215432A0415430F2C11D9261CFB
S31508002910103E3609013636011A1C9B19156055609A
S315080029209560D56010329342F8D10F221440032CDB
S315080029300AD9261FB6080136B6001A1C9B1920C2EA
S315080029409342FCD103221440002C05D0C9B21C19AD
S3150800295019700133A342FBD170BD141C031CCCE7CC
S3150800296008B5034B002B02D0024800F089F808BDD1
S3150800297000000000912A0008F0B556465F464D460D
S315080029804446F0B40E1C3C4B87B01B680190039379
S315080029904933FF330493A422039B52009F58002F08
S315080029A04CD0049B984600239B46C4235B009C4658
S315080029B0BC4463460293C6235B009A467C68BA44C5
S315080029C0A5007D19013C08D526E06B1DFF331B6861
S315080029D0B34204D0043D013C1ED3002EF5D17B68DA
S315080029E06A68013BA3423AD05B466B60002AF1D085
S315080029F07B68029999460123A34009680591194203
S31508002A0023D190477B684B45C5D143461B68BB42DB
S31508002A10C1D1043D013CE0D2184B002B0ED07B6897
S31508002A20002B23D13B68002B24D04246381C136068
S31508002A3000E000BF43461F68002FB6D107B03CBC74
S31508002A4090469946A246AB46F0BD514609681942DA
S31508002A5007D12B1C8433196801989047D2E77C600C
S31508002A60C4E72B1C843318689047CBE73B68B84605
S31508002A701F1CE1E70023FAE7842F00080000000086
S31508002A8008B5011C00220020002300F01BF808BD31
S31508002A9038B5094B094CE41AA41009D0084AA518F8
S31508002AA0AD00ED182B68013C9847043D002CF9D180
S31508002AB000F0FCF838BDC046982F00089C2F000887
S31508002AC0FFFFFF3FF8B544465F4656464D469B46D0
S31508002AD02F4BF0B41C68A4235B00051CE0580E1CA1
S31508002AE0904600284BD043681F2B0DDC5C1C002D3C
S31508002AF021D102339B0044601E5000203CBC904606
S31508002B009946A246AB46F8BD224B002B3CD0C820BE
S31508002B10400000E000BF002836D0A422002352005F
S31508002B20A15843600160A05040328350043283505C
S31508002B300124002DDDD09A00914681444246882121
S31508002B404F467A50C42252009046804442468739FE
S31508002B50994012688A460A4394464246614611607D
S31508002B60842249465F4652008F50022DC1D1021C6D
S31508002B7055468D32FF3211680D431560B9E7201CA2
S31508002B804D30FF30E050AEE701204042B6E7C04680
S31508002B90842F00080000000010B582B0FDF766FC1F
S31508002BA0FDF7FAFAFDF716FB0320FDF743FB0020B5
S31508002BB0FDF740FB0020FDF73DFB0020FDF73AFB43
S31508002BC00020FDF737FB0020FDF734FB0020FDF75A
S31508002BD031FB0020FDF72EFB0020FDF72BFB022022
S31508002BE0FDF728FB0020FDF725FB0020FDF722FB5B
S31508002BF00020FDF71FFB0020FDF71CFB0020FDF75A
S31508002C0019FB0020FDF716FB0020FDF713FB00203B
S31508002C10FDF710FB0020FDF70DFB0020FDF70AFB72
S31508002C200120FDF707FB064CFDF79EFBFDF710FBA1
S31508002C302368643301932268019B9A42FBD3F3E726
S31508002C40BC0400200D488546002103E00C4B5B5868
S31508002C50435004310B480C4B42189A42F6D30B4AA0
S31508002C6002E0002313600432094B9A42F9D3FDF7B8
S31508002C7067FCFFF70BFEFFF78FFFFEE7002000203B
S31508002C809C2F00080000002034040020380400208F
S31508002C9048070020FEE70000FEE7C04600000000E7
S31508002CA0F8B5C046F8BC08BC9E467047F8B5C0469D
S30D08002CB0F8BC08BC9E467047FB
S31508002CB836498B69DB070BD5354B012001E0002B1C
S31508002CC85CD08A69013B1042F9D10320002B54D005
S31508002CD82E4B9A69920412D49A69D2050FD49A6926
S31508002CE892050CD49A69120509D49A69520506D42C
S31508002CF89A69920303D49B690020DB033DD5234BCD
S31508002D089B69DB0504D50823224A51690B4353619D
S31508002D181E4B9B699B0504D504231E4A51690B4320
S31508002D2853611A4B9B695B0504D50223194A5169F5
S31508002D380B435361154B9B691B0504D51023154A8C
S31508002D4851690B435361114B9B699B0404D50123B5
S31508002D58104A51690B4353610C4B9B699B030FD46B
S31508002D680A4B9B69DB0304D540230A4A51690B437E
S31508002D7853610120084A054B9A6170470320FCE70E
S31508002D882023044A51690B435361E9E700200240AE
S31508002D9850C3000030070020002F0300054B064AE1
S31508002DA800209A60054A9A60102219680A431A6030
S31508002DB87047C0460020024037261504FDFCFBFA7A
S31508002DC81021054B054A00209A60054A9A601A6838
S31508002DD88A431A607047C046002002403726150401
S31508002DE8FDFCFBFA38B5051C0C1CFFF761FF00282B
S31508002DF81CD180210E4BC9005A680A435A6008221A
S31508002E0859680A435A6072B6221C403208CC2B60AD
S31508002E189442FBD162B6FFF74BFF0821044B5A6868
S31508002E288A435A605968034A0A405A6038BDC046F8
S31508002E3800200240FFFBFFFF024B5B69036000208E
S30D08002E487047C0463007002060
S31508002E50030406080C1018203000000000000000CB
S31508002E60000000000102030406070809000000002C
S31508002E70010203040102030406070809AE23000839
S31508002E80F223000814240008AE2300082E240008A4
S31508002E90AE230008AE230008AE2300088E230008E0
S31508002EA0AE230008AE230008AE230008AE230008B0
S31508002EB0AE230008AE230008AE2300085A240008F3
S31508002EC0AE230008AE230008AE230008AE23000890
S31508002ED0AE230008AE230008AE230008AE23000880
S31508002EE0AE230008AE230008AE230008AE23000870
S31508002EF0AE230008AE230008AE23000868240008A5
S31508002F00AE230008AE230008AE230008AE2300084F
S31508002F10AE230008AE230008AE230008AE2300083F
S31508002F20AE230008AE230008AE230008AE2300082F
S31508002F30AE230008AE230008AE230008AE2300081F
S31508002F40AE230008AE230008AE230008AE2300080F
S31508002F50AE230008AE230008AE230008AE230008FF
S31508002F60AE230008AE230008AE230008AE230008EF
S31508002F70AE230008AE230008AE230008B2230008DB
S30D08002F804300000008000020D0
S30D08002F8898D1FF7F010000004B
S30D08002F9061290008E9000008A8
S30908002F98C10000085E
S31508002F9C0000000080841E0000000000F4020020DF
S31508002FAC5C030020C40300200000000000000000A1
S31508002FBC00000000000000000000000000000000F7
S31508002FCC000000000000000000000000802F000830
S31508002FDC00000000000000000000000000000000D7
S31508002FEC00000000000000000000000000000000C7
S31508002FFC00000000000000000000000000000000B7
S3150800300C00000000000000000000000000000000A6
S3150800301C0000000000000000000000000000000096
S3150800302C0000000000000000000000000000000086
S3150800303C0000000000000000000000000000000076
S3150800304C01000000000000000E33CDAB34126DE613
S3150800305CECDE05000B00000000000000000000007C
S3150800306C0000000000000000000000000000000046
S3150800307C0000000000000000000000000000000036
S3150800308C0000000000000000000000000000000026
S3150800309C0000000000000000000000000000000016
S309080033CC08000020C7
S309080033D000000000EB
S70508002C4581
