S01900006C65645374726970436F6E74726F6C6C65722E73313970
S315080000000020002099430008E9430008F10500088C
S3150800001000000000000000000000000000000000D2
S31508000020000000000000000000000000E94300088E
S315080000300000000000000000E9430008C5050008AC
S31508000040E9430008E9430008E9430008E9430008D2
S31508000050E9430008E9430008E9430008E9430008C2
S31508000060E9430008E9430008E9430008E9430008B2
S31508000070E9430008E943000800000000E9430008D6
S3150800008000000000E943000800000000000000002E
S31508000090E943000800000000E9430008E9430008B6
S315080000A0E9430008E9430008E9430008E943000872
S315080000B0E9430008E943000800000000E943000896
S315080000C010B5064C2378002B07D1054B002B02D020
S315080000D0044800E000BF0123237010BD3804002047
S315080000E000000000F043000808B5084B002B03D0B9
S315080000F00748084900E000BF07480368002B00D1FD
S3150800010008BD064B002BFBD09847F9E70000000016
S31508000110F04300083C0400203404002000000000DE
S31508000120164B002B00D1144B9D46402292029A1A78
S31508000130924600218B460F461348144A121A03F0BA
S3150800014073FF0F4B002B00D098470E4B002B00D0A7
S3150800015098470020002104000D000D48002802D011
S315080001600C4804F037F803F03BFF2000290004F0A0
S31508000170BDF803F025FFC046000008000000000097
S31508000180000000000000000038040020D00800200D
S31508000190D5410008E5410008F0B54E4657464546A4
S315080001A0E0B40227304B86B0DA6A00243A43DA62B2
S315080001B0DB6A03253B400093009B01239846029384
S315080001C02A4B01A9181C039404949A46019501F038
S315080001D00DFDA020042301A9C005994601930495A5
S315080001E001F004FD80231B020193962320489B01FE
S315080001F043600C2343611F4B1F4D03604B466B60E6
S315080002007C332B6180235B012B622B1C1B4A046108
S3150800021004C31B4AC460914684608461C461046255
S315080002200294AC60EC606C61AC61EC61043252CB58
S3150800023052C252CB52C212CB12C24A46114B13605B
S3150800024002F0DEFF281C00F029FC484600F026FCD8
S31508000250534652469F614346936206B01CBC90467D
S315080002609946A246F0BDC046001002400004005060
S315080002700806002000440040CC0500204400024047
S315080002809005002058000240FF22144B10B55A6012
S31508000290FF2212029A60FF22002002241204DA606A
S315080002A00F4A1860D16A86B02143D162D36A01A980
S315080002B023400093009B80230A4C01937F3B0293C3
S315080002C003900233201C049301F090FC201C80212B
S315080002D0002201F01DFE06B010BDC046A808002089
S315080002E00010024000040050054A1378642B05D01C
S315080002F0591CD31818710120117070470020FCE7AB
S315080003001C05002095221C48920070B5031C811814
S315080003100EE01A68002A0ED05A7852085A709A784F
S3150800032052089A701A7852081A7004338B4206D00B
S315080003305A68002AEDD01A6004338B42F8D10F4D63
S315080003402A78002A13D0541EA1B22B1D01312E790A
S3150800035059185A781A7001338B42FAD12C70032E29
S3150800036006D9074B1A6895239B00C25070BD002614
S31508000370034BB600F258F6E7500600201C0500208D
S31508000380A80800208022104B9A61C046C046C04685
S31508000390C046C046C046C046C046C046C046C0461F
S315080003A0C046C046C046C046C046C046C046C0460F
S315080003B0C046C0469A62002805D0C046C046C04618
S315080003C0C046C046C0467047000400508022124B03
S315080003D09A61C046C046C046C046C046C046C046EA
S315080003E0C046C046C0469A62C046C046C046C046D9
S315080003F0C046C046C046C046C046C046C046C046BF
S31508000400C046C046002805D0C046C046C046C046BD
S31508000410C046C0467047C04600040050F8B50522DD
S3150800042046464F46184BC0B41A60184BE12680243E
S315080004309946012336012404002598460AE0FFF769
S31508000440A1FF002F12D080240135013EADB224044D
S31508000450002E11D04A464746AB00D3582740381CD1
S315080004602342ECD1FFF7B2FF002FECD16408C04657
S31508000470C046013E002EEDD10722034B1A600CBC84
S3150800048090469946F8BDC04610E000E050060020A8
S3150800049070B5061C1825012405E0013DFFF772FF1B
S315080004A06400002D08D001202642F6D1013DFFF751
S315080004B08DFF6400002DF6D170BDC0462022064B84
S315080004C09A62C046C046C046C046C046C046C046F8
S315080004D0C046C046C04670470004005030B5094CB7
S315080004E0207800280CD0013881B2231D01312579E6
S315080004F059185A781A7001338B42FAD12070281C81
S3150800050030BDC0461C050020032802D9034B1868D5
S315080005107047024B8000C058FAE7C046A80800207A
S315080005204023244A00B5116895B00B438021136017
S31508000530214A4905936B06A80B4393631F4A204B30
S3150800054011680B40802109010B43136002220692B1
S3150800055010928022D202129280220123D20309939A
S3150800056013920F330F220A93002301920C3A079332
S315080005700D930B9308930C93119302920393049390
S31508000580059301F04DFE012101A802F0F9F802F0E9
S3150800059041FAFA21890003F081FC00F0E1F9042010
S315080005A000F03EFA012001214042002200F080F9C5
S315080005B015B000BD00200240001002400070004047
S315080005C0FFE7FFFF024A1368013313607047C0460E
S315080005D084050020054982B00B68C01801900A6896
S315080005E0019B9A42FBD302B07047C046840500209F
S315080005F0FEE7C0468021104B49001A680A431A6074
S31508000600D9680E4A0A40DA6019680D4A0A4001217B
S315080006101A609A688A439A6019680A4A0A401A60F0
S31508000620D968094A0A40DA6000221A618022074B13
S3150800063012059A607047C046001002400C40FF88B9
S31508000640F6FFF6FEFFFFFBFFFFFF02FF00ED00E0EF
S315080006500C211F4A10B5D3680B40042B30D020D983
S31508000660082B12D00C2B28D1D3681A4CD1689B02C0
S315080006701B0FE05C0902D368890F0131DB0322D422
S31508000680154B584303F00AFC01E01448114C104B73
S31508000690DB681B061B0FE3181B7BD840104B186042
S315080006A010BD002B09D1506880230004400F01308B
S315080006B01B028340074C181CE9E7054B5868F3E70B
S315080006C00548044CE3E7054B584303F0E7FBDEE730
S315080006D000100240A44500080024F40000127A0025
S315080006E0040000207047C0467047C046012100221A
S315080006F008B5074B494299629A6259625A62196269
S315080007001A62D961DA61FFF7EFFF002008BDC0461B
S315080007100010024010B5041C02F07CF9FA21890089
S3150800072003F0BCFB00F01CF90120211C404200220A
S3150800073000F0BEF8002010BD08B50020FFF7EAFF5C
S31508000740FFF7D0FF002008BD024A13680133136083
S315080007507047C0468C050020014B18687047C04694
S315080007608C05002010B582B00190FFF7F5FF041C38
S31508000770FFF7F2FF019B001B9842F9D302B010BDA8
S315080007800221024A13688B431360704710E000E0A9
S315080007900223024A11680B431360704710E000E019
S315080007A00048704700000501014B1868000C7047A7
S315080007B000580140024B18680005000D7047C046F6
S315080007C0005801400123024A51680B4353607047A1
S315080007D0005801400121024A53688B435360704711
S315080007E0005801400223024A51680B435360704780
S315080007F0005801400221024A53688B4353607047F0
S31508000800005801400423024A51680B43536070475D
S31508000810005801400421024A53688B4353607047CD
S3150800082000580140024A5368184350607047C04652
S3150800083000580140024A5368834353607047C046D4
S3150800084000580140024B1868C0239B0018407047A7
S31508000850000001400123024A116A0B4313627047E4
S31508000860000001400121024A136A8B431362704754
S31508000870000001403021044B1A6A8A431A621A6A38
S31508000880104318627047C046000001408021034AA1
S315080008900906136A0B4313627047C04600000140FD
S315080008A0024A136A5B005B08136270470000014046
S315080008B070B5002815DB0324830889012040FC3421
S315080008C0C000261C21408140114AC0259446864016
S315080008D0081C9B006344AD005A59B2431043585153
S315080008E070BD03240F23C0B203402040FC34251CEE
S315080008F0084AC00094468901854021408140083B4A
S315080009009B089B006344DA69AA430A43DA61E7E76E
S3150800091000E100E000ED00E01F2318401E3B834085
S31508000920181C014B1860704700E100E01F231840AF
S315080009301E3B8340181C8023014AD0507047C0468E
S3150800094000E100E0BFF34F8F034A044BDA60BFF3C0
S315080009504F8FC046FDE7C0460400FA0500ED00E0EB
S315080009600A4A431E012093420ED8C020084A094964
S3150800097053600B6A00061B021B0A03430B62002323
S3150800098000209360073313607047C046FFFFFF00DF
S3150800099010E000E000ED00E000280BDB8308C03320
S315080009A00A4A9B009B5803221040C000C340180601
S315080009B0800F70470F23064AC0B294460340083B8F
S315080009C09B089B0063445B68EDE7C04600E100E0D6
S315080009D018ED00E01F2318401E3B8340181C802397
S315080009E0014A5B00D050704700E100E08023054AC9
S315080009F05B00D3581F221040C340181C012318401F
S31508000A007047C04600E100E01F2318401E3B8340A4
S31508000A10181CC023014A5B00D050704700E100E073
S31508000A20042805D00421054A13688B4313607047D0
S31508000A30024B1A6810431860F9E7C04610E000E058
S31508000A407047C04608B5FFF7FBFF08BD4279124B51
S31508000A509A600279012A03D00022DA601A61704787
S31508000A6001680E329143D960827A1107427A1206DA
S31508000A700A4301790A43C17A89040A43017B490476
S31508000A800A43417B09040A43C17909020A43817969
S31508000A9049000A431A61E2E790ED00E010B5002824
S31508000AA057D02523C35CDBB2002B2FD00222252387
S31508000AB0C25403683E4A196884681140C2682243D2
S31508000AC0046922434469224384692243C469224350
S31508000AD0046A22430A431A60364A934224D0364AA5
S31508000AE093422BD0354A934235D0354A934210D09B
S31508000AF0344A93423AD0344A934242D0334A9342D4
S31508000B004AD001222523C254002010BD2422835432
S31508000B10CCE72F4B2F4A19680A401A6041681A68B1
S31508000B2009030A431A60ECE70F21294B1A688A431E
S31508000B301A601A6841680A431A60E2E7F021244BF2
S31508000B401A688A431A6041681A6809010A431A60D2
S31508000B50D7E70120D9E71E4B1F4A19680A401A60D1
S31508000B6041681A6809020A431A60CAE7184B1B4A01
S31508000B7019680A401A6041681A6809040A431A6023
S31508000B80BFE7134B164A19680A401A6041681A6883
S31508000B9009050A431A60B4E70D4B124A19680A4058
S31508000BA01A6041681A6809060A431A60A9E7C04626
S31508000BB00FC0FFFF080002401C0002403000024040
S31508000BC044000240580002406C0002408000024087
S31508000BD0A8000240FF0FFFFFFFF0FFFFFFFFF0FF37
S31508000BE0FFFF0FFFFFFFFFF0002838D02523C35C67
S31508000BF0022B34D0012103681A688A431A6000223E
S31508000C001A605A609A60DA60594A934229D0594A5A
S31508000C1093424CD0584A93425FD0584A93424FD099
S31508000C20574A934200D17CE0564A934200D191E05C
S31508000C308021554A490451608021890451608021E8
S31508000C40090551608021504AC9045160484A9342B7
S31508000C5013D10F214D4A13688B4313601FE00120FF
S31508000C607047494A51600221516006315160043982
S31508000C70454A51603E4A9342EBD03E4A934238D0A9
S31508000C803D4A93423BD03D4A93423ED03C4A93422A
S31508000C9041D03C4A934251D03D4A934254D0002316
S31508000CA0252283638354013A83540020D8E7102110
S31508000CB0354A516010315160603151604039D7E78B
S31508000CC08021314A49015160802189015160802182
S31508000CD0090251608021C901CAE780212A4A4900D0
S31508000CE05160491851608021090151608021C9006D
S31508000CF0BEE7F021254A13688B431360CFE7234AE2
S31508000D00244B11680B401360C9E7204A224B11682F
S31508000D100B401360C3E71D4A204B11680B40136054
S31508000D20BDE78021184A4902516080218902516035
S31508000D308021090351608021C90299E7134A184B9B
S31508000D4011680B401360AAE7104A164B11680B404E
S31508000D501360A4E780210C4A490351608021890366
S31508000D6051608021090451608021C90380E7C0468B
S31508000D70080002401C0002403000024044000240C5
S31508000D80580002406C00024000000240A8000240E1
S31508000D9080000240FFF0FFFFFF0FFFFFFFFFF0FF9D
S31508000DA0FFFF0FFFFFFFFFF070B52425465D022405
S31508000DB0012E12D00126465501354455046825688A
S31508000DC0B543256063608368102B08D0A160E26094
S31508000DD001232268134323600024201C70BDA260EF
S31508000DE0E160F5E770B52425465D0224012E1ED084
S31508000DF0012646550135445504682568B5432560DE
S31508000E0063608368102B14D0A160E2600223226815
S31508000E1013432360042322681343236008232268AC
S31508000E201343236001232268134323600024201CF4
S31508000E3070BDA260E160E9E701210268F8B51368B0
S31508000E40041C8B431360FFF787FCFA26071C012551
S31508000E50B60004E0FFF780FCC01BB0420AD823683E
S31508000E601B682B40F6D124220020A3542533233AAD
S31508000E70E254F8BD2023A26B03201343A363002288
S31508000E802423E25403320133E254F2E7F8B5564616
S31508000E904D4644465F468046F0B48946161C0029EE
S31508000EA000D073E003689D4A934200D189E09C4ACA
S31508000EB0934200D1E4E09B4A934200D186E09A4AE5
S31508000EC0934200D1F7E0994A934200D109E1984A42
S31508000ED08025934200D116E1AD04FFF73DFC82461A
S31508000EE0944C8E4F43468F4A1B6893468E4A8C49CC
S31508000EF0944612E08B426CD05B456CD063456DD04E
S31508000F008A4883426DD08A4883426DD08020000586
S31508000F1002420BD1721C00D081E022682A4266D1B7
S31508000F202268BB42E6D108200242F3D07B4A9342AC
S31508000F3000D1A7E07A4A934200D19DE0794A9342CC
S31508000F4000D1A1E0784A934200D1ACE0774A9342B7
S31508000F5000D1C0E0764A934200D1CBE08022120548
S31508000F60744B41465A6043469A6B012313434246E3
S31508000F70936304222523CA5400220120013BCA5444
S31508000F803CBC90469946A246AB46F8BD0368634A00
S31508000F90934214D0624A934270D0624A934212D066
S31508000FA0614A934200D189E0604A934200D19BE0AE
S31508000FB05F4A8025934200D1A7E0ED048DE704251A
S31508000FC08BE7022589E78025ED0086E78025AD00B9
S31508000FD083E780209CE78020000199E780200002B3
S31508000FE096E78020000393E78020000490E74A46AE
S31508000FF0002A2CD1494A934265D0494A934255D092
S31508001000484A93426AD0484A934276D0474A93421E
S315080010107DD0474A93425BD08022920447E0002E57
S3150800102006D0FFF799FB5346C01A864200D359E704
S3150800103043469A6B20231343424641469363032251
S315080010402523CA540022013BCA54032098E7334A91
S3150800105093421CD0324A934233D0324A934246D006
S31508001060314A93424CD0314A93422ED0304A934269
S3150800107050D08022D2040BE0802271E740252CE76D
S3150800108020252AE708226BE78022120168E7042256
S31508001090284B5A60052225234146CA540022013BA3
S315080010A0CA5400206CE78022120259E72022214BFD
S315080010B05A600122EFE78025AD010EE78025ED0194
S315080010C00BE74022E4E70222F1E78022D202DFE7BB
S315080010D080229203EBE78022120341E780229200E6
S315080010E0E5E78025AD02F8E68025ED02F5E68022E3
S315080010F0D200CDE78022120432E780229201D6E799
S315080011008022D201C4E7AD03E7E6ED03E5E68022D7
S315080011109202CCE78022D203BAE7C0460800024012
S315080011201C000240300002404400024058000240C1
S315080011306C0002400000024070B5041CB94E2368DA
S31508001140B9481A1C0568191EB14236D0B74EB342C3
S3150800115000D181E0B64EB34200D1B7E0B54EB342F6
S3150800116000D1FDE0B44EB34200D1B7E0B34EB3426E
S3150800117000D122E180263605354200D0B3E0056865
S315080011808020C004284224D1A74B1868A74B9A424E
S3150800119000D1D0E0A64B9A4200D1D6E0A54B9A42A0
S315080011A000D1DAE0A44B9A4200D1E8E0A34B9A4278
S315080011B000D10AE180239B0418E008262E4203D0BA
S315080011C01D682E4200D008E10068410700D409E1F5
S315080011D0944904221868024200D08CE0191C1A1C93
S315080011E0914B904D18680223AA42CFD1034232D0C0
S315080011F00223106803422ED01068800602D41068B5
S3150800120098431060874B994200D1B1E0874B9942C9
S3150800121000D1B7E0864B994200D1D9E0854B994277
S3150800122000D1EEE0844B994200D1F0E0834B802256
S31508001230994200D1F1E092047B4B5A60A36B0122DC
S31508001240A3632523E2540022013BE254E36A002B00
S3150800125001D0201C984770BD2D0600D4C7E0082091
S315080012601D68284269D080261D6885431D606E4822
S3150800127046600120A56B2843A06304252520255434
S31508001280002501382554656B002D04D0201CA8477D
S3150800129023681A1C191C6448624D0068AB4200D1C9
S315080012A093E7624DAB4241D0614DAB4248D0614DA8
S315080012B0AB424DD0604DAB425CD0604DAB4274D072
S315080012C0400100D585E7584B186873E78026360134
S315080012D0354208D105688020C00053E780263603CA
S315080012E0354200D186E008201D68284225D01D68B1
S315080012F085431D60BBE71868800602D418689043CA
S315080013001860484A91423FD0484A914263D0484AB9
S31508001310914279D0474A91427CD0474A91426DD052
S31508001320464A91427BD08021C9042EE0400600D56A
S315080013304FE73D4B1868202358E73B480068B0E75D
S31508001340400500D545E7384B186880239B004DE7D4
S31508001350400400D53DE7344B186880239B0145E7D8
S31508001360802636023542BED105688020C00109E7CD
S31508001370022261E7400300D52BE72B4B1868802330
S315080013809B0233E7202257E70421274A516025228A
S315080013900521A154226B002A04D0201C90472268FC
S315080013A0111C1DE71A1C191C1AE7400200D510E784
S315080013B01D4B186880239B0318E7802636043542A0
S315080013C091D105688020C003DCE680239B030DE7E6
S315080013D08022920030E74021D7E71868B0431860AA
S315080013E0082644E7104B0F4918680223FEE60568ED
S315080013F04020C7E605688020C002C3E68021C902EE
S31508001400C3E78022920117E78021C900BDE7802241
S31508001410920211E78021C901B7E792030CE7802100
S31508001420C903B2E708000240000002401C0002405F
S315080014303000024044000240580002406C0002405E
S315080014402523C05CC0B27047806B7047214B9B69EF
S31508001450DB0504D50823204A51690B4353611D4B0C
S315080014609B699B0504D504231B4A51690B435361A9
S31508001470184B9B695B0504D50223174A51690B4330
S315080014805361144B9B691B0504D51023124A5169F5
S315080014900B4353610F4B9B699B0404D501230E4AEA
S315080014A051690B4353610B4B9B699B0304D520235E
S315080014B0094A51690B435361064B9B69DB0304D503
S315080014C04023054A51690B435361044A014B9A610B
S315080014D07047C04600200240B8080020002F0300CD
S315080014E07047C0467047C04638B5354B354A9B6984
S315080014F0354C1340934224D00223314DAA69134236
S3150800150003D0AB612378002B12D12378DBB2002BF2
S315080015100DD12B4A2D4950680140516050682C491D
S315080015200140516050682B4901405160237438BD11
S315080015302378012B11D02378022B38D0002323706F
S31508001540E3E72378012B27D0E568FFF77FFF281C00
S31508001550FFF7C8FF00232370CEE76368013B63608B
S315080015606368002B1CD0A068FFF7BAFFA368A268BF
S3150800157080208032A2606968174A80000A400021EC
S315080015806A6061616A68803302436A600822686833
S3150800159002436A601960B8E7023BA568A360D4E70E
S315080015A001204042A0602370FFF79AFFADE70822AA
S315080015B06B6893436B60E068FFF792FFBEE7C0462F
S315080015C000200240002F0300B8080020F7FDFFFFA7
S315080015D0FFFFFEFFFFFFFDFFFFFDFFFF094B012099
S315080015E05A68920708D55A68104206D10020054B5A
S315080015F0054A1A61054A1A617047054ADA60054ABA
S31508001600DA60F3E700200240BFAE9D8C161514136E
S31508001610EFCDAB89050403020223034A0020516873
S315080016200B4353607047C04600200240094B012017
S315080016305A68520708D55A68104206D10020054B49
S31508001640054A5A61054A5A617047054ADA60054AE9
S31508001650DA60F3E700200240C8D9EAFB27262524EA
S31508001660EFCDAB89050403020423034A0020516821
S315080016700B4353607047C04600200240014B58692F
S315080016807047C046B8080020F8B5041CFFF764F890
S315080016901A4E071C012501E0631C12D1B369174ACB
S315080016A01D42F9D1022391690B4213D1134B9A6952
S315080016B0D20502D49A6992050ED5FFF7C7FE012016
S315080016C0F8BD002C04D0FFF747F8C01B8442E5D2CA
S315080016D00320F5E79361E9E79A695205EDD49A691B
S315080016E01205EAD49A699204E7D49A699203E4D473
S315080016F09B690020DB03E0D4E2E7C04600200240F5
S3150800170070B50C4C0220237C012B00D170BD01233F
S315080017100948161C0D1C2374FFF7B6FF002802D0D3
S3150800172000232374F2E760612E600348FFF7ACFFDD
S31508001730F6E7C046B808002050C30000F8B5114CBB
S31508001740051C237C0220012B00D1F8BD01230E487D
S31508001750171C0E1C2374FFF797FF0028F5D180216C
S315080017600A4B49025A680A4380215A605A68890214
S315080017700A435A6002232370E660022DE5D16061B0
S315080017803760E2E7B808002050C300000020024096
S315080017900022802108B5054BC9025A61044A05484A
S315080017A053680B435360FFF76FFF08BDB808002066
S315080017B00020024050C30000002110B58024064BCB
S315080017C0A4005961054B5A6822435A6008225C688E
S315080017D022435A60016010BDB8080020002002406C
S315080017E038B5041C10480D1CFFF74EFF00280DD114
S315080017F00E4B5861230409D0002D0BD10C498B6878
S31508001800A3439BB2DA43120413438B600648FFF7DF
S315080018103BFF38BD064A93681C43A4B2E3431B0446
S315080018201C439460F2E7C04650C30000B808002085
S315080018300000F81F70B50B4D061C0B486C68FFF7C7
S3150800184023FF00280CD12404084B3602240C344309
S315080018505861E3431B041C432C600348FFF714FF3D
S3150800186070BDC0460000F81F50C30000B80800202D
S31508001870F0B5574645464E46E0B4224B02279846F1
S315080018801B7C012B05D1381C1CBC90469946A246E8
S31508001890F0BD01234246061C1B488A461374FFF70F
S315080018A0F3FE071E2AD143465861012352465B427E
S315080018B01360B3687468DB011B199C421ED20823A7
S315080018C0124D994607E07268B3689446DB01803486
S315080018D06344A34212D9201CFFF76EFF0A48FFF79C
S315080018E0D3FE4A466B6893436B606A68084B13409D
S315080018F06B600028E7D05346071C1C60002342464D
S315080019001374C0E7B808002050C300000020024046
S31508001910FFFDFFFFF8B5114D02242B7C012B01D1E9
S31508001920201CF8BD0127061C0D482F74FFF7ACFED6
S31508001930041EF5D180210B4B49025A680A438021BF
S315080019405A605A6889020A435A60B36868617068BF
S315080019502F706B60A860FFF72FFFE1E7B80800203B
S3150800196050C3000000200240F0B5474680B4464DFB
S31508001970041C2B7C0220012B0FD0012223682A7419
S3150800198001381A420CD19A0712D45A072BD41A07CF
S315080019905CD4DB0645D400232B7404BC9046F0BD0A
S315080019A0A0686168FFF71CFF00285AD12368EAE798
S315080019B0364E37483368277B9846FFF765FE00287A
S315080019C0E9D1FF2342461B021A40131C3B43DA4364
S315080019D012041343686133602D48FFF755FE00284B
S315080019E0D9D12368D1E70023284EA77B6B6173689A
S315080019F027489846FFF748FE0028CCD17023424670
S31508001A001F40244B68611A40131C3B43DA431204F7
S31508001A10134373601E48FFF737FE0028BBD12368BF
S31508001A20B5E71A4E1A48E77B7468FFF72DFE0028BB
S31508001A30B1D16404FF03640C3C43E3431B041C4319
S31508001A40686174601248FFF71FFEA4E70F4E10483E
S31508001A507368677B9846FFF717FE002804D023684B
S31508001A6097E700222A7498E742460B4B68611A40AA
S31508001A70131C3B43DA431204134373600448FFF70D
S31508001A8003FE236885E7C046B80800200000F81F53
S31508001A9050C300008FFF0000F0FF00000F23036013
S31508001AA0094B1A6A8260DA690273E022D969D2039D
S31508001AB00A40120C8273DA691203120F4273DB6949
S31508001AC0DB0FC3737047C0460020024008B5031CED
S31508001AD01A680120D20703D598681979FFF780FE9E
S31508001AE008BDC0460123044A0360D369DB05DB0F42
S31508001AF00371136A836070470020024008B501200D
S31508001B00FFF798FE08BDC04608B50020FFF792FE0D
S31508001B1008BDC046054B01205A68D20704D50020E7
S31508001B20034ADA60034ADA607047C046002002407A
S31508001B30EFCDAB89050403020123034A002051684F
S31508001B400B4353607047C0460020024010B5041C82
S31508001B500548FFF799FD002805D1044B5861206018
S31508001B600148FFF791FD10BD50C30000B8080020DA
S31508001B70F8B5124C051C237C0F1C161C0220012BE1
S31508001B8000D1F8BD01230E482374FFF77DFD031E1F
S31508001B900BD16361022D0BD0012D0BD0002D01D185
S31508001BA0F6B23E700648FFF76FFD00232374E8E798
S31508001BB03E60F7E7B6B23E80F4E7C046B8080020B4
S31508001BC050C300008021034A490053680B43536001
S31508001BD07047C04600200240024A034B51680B403A
S31508001BE05360704700200240FFFEFFFFF0B54D46E8
S31508001BF05F4656464446F0B40B6883B089469C4611
S31508001C00002B00D1B5E001239B46664B0027002236
S31508001C1000249846E24667E0013D012D00D884E09D
S31508001C200325BD40ED4302682A40161C03220A40DC
S31508001C30BA4032430260C26815404A469268BA40C2
S31508001C40154380225205C560114247D0564B0325DD
S31508001C505A6B5B461A43544B25405A63534BAD00A7
S31508001C609C460F23AB40A2089200624496689E43A6
S31508001C70A023DB05984200D182E04D4B984200D163
S31508001C8080E04C4B984200D180E04B4B984200D103
S31508001C9080E04A4B984200D180E00623AB401D1CE9
S31508001CA04346354395601A68009BDD43CB035DD4F4
S31508001CB02A4043461A605A688B0354D42A4043463E
S31508001CC05A609A68CB024BD42A4043469A60DA682F
S31508001CD08B0242D4131C2B404246D3605346013430
S31508001CE0221C0237E34044D05B46514693400B40E2
S31508001CF00093F3D04946496810260D1CB543022DBA
S31508001D008AD1E508AD00431901931B6A093E9C4632
S31508001D100F232640B600B34065469D434B461B69D4
S31508001D20B3401E1C019B2E431E620325BD40ED4396
S31508001D3086684B462E40B446DE686346BE401E4360
S31508001D405B469340866046689E4310230B401B09FA
S31508001D5093401A1C3243426065E7009B1343BBE776
S31508001D60009B1A43B1E7009B1A43A8E7009B1A4356
S31508001D709FE703B03CBC90469946A246AB46F0BDE9
S31508001D8000258DE75B46AB401D1C89E70223AB4067
S31508001D901D1C85E70323AB401D1C81E70523AB40CB
S31508001DA01D1C7DE7000401400010024000000140B0
S31508001DB00004005000080050000C0050001C0050A1
S31508001DC0F0B544465F4656464D46F0B4002383B008
S31508001DD00024002970D001229446023290460C3223
S31508001DE0914604E00A1C01331C1CDA4064D06246A2
S31508001DF00E1CA240141C1640F4D047465A009740C1
S31508001E00FA43056815400560DD08AD0047190197D6
S31508001E103F6ABB4607271F40BF00BA464F4655468E
S31508001E20AF40BA465F465546AF433D1C019F3D62EB
S31508001E3085684F46154085604568A5434560C46872
S31508001E402240C260294A9C08924642461A4092009D
S31508001E509740A4005444A568BA463D40A027FF050C
S31508001E60B84230D0224FB8422FD0224FB84230D095
S31508001E70214FB84231D0214FB84232D00627974079
S31508001E803A1C9542AED15546F643A2680133AA4399
S31508001E90A2601B4A1A4C12683240226062683240BD
S31508001EA06260A2683240A260E26816400A1CE660D8
S31508001EB0DA401C1C002A9AD103B03CBC90469946CD
S31508001EC0A246AB46F0BD0022DBE7674697403A1CC0
S31508001ED0D7E7022797403A1CD3E7474697403A1C6C
S31508001EE0CFE7052797403A1CCBE7C04600000140DC
S31508001EF00004005000080050000C0050001C005060
S31508001F000004014000690840411E8841C0B270477C
S31508001F10002A01D1816270478161FCE74369594013
S31508001F2041617047802382B05B020193019B0B439A
S31508001F300193019BC361C161019BC361C36901939D
S31508001F40C36901201B0C984302B070477047C0460E
S31508001F5008B5044B5A69024202D05861FFF7F6FFEA
S31508001F6008BDC046000401408021054B49059A6A10
S31508001F700A439A62996A034A0A409A627047C046B7
S31508001F8000100240FFFFFFEF8021034A4900136853
S31508001F900B4313607047C04600700040024A034B6B
S31508001FA011680B401360704700700040FFFEFFFF8A
S31508001FB0E0211A4A13688B4301680B431360184BD8
S31508001FC0184A596811405960196811401960D9684A
S31508001FD01140D96099680A4080219A60426849028E
S31508001FE00A4202D0186801431960930305D5802078
S31508001FF00B4940024B6803434B60D30705D5802045
S31508002000074940028B6803438B60930705D58021F7
S31508002010034A4902D3680B43D360704700700040F7
S3150800202000040140FFFFFEFF1023024A11680B431C
S3150800203013607047007000401021024A13688B43F2
S315080020401360704700700040024A53681843506096
S315080020507047C04600700040024A53688343536085
S315080020607047C0460070004010B50324084A13683C
S31508002070A343184310600420064A13698343136177
S31508002080012903D040BF20BF20BF10BD30BFFCE7E9
S315080020900070004000ED00E010B503240B4A1368F9
S315080020A0A343184304231060094A106903431361C4
S315080020B0012908D040BF20BF20BF0421044A136964
S315080020C08B43136110BD30BFF7E7C0460070004070
S315080020D000ED00E00223054A11680B431360042350
S315080020E0034A11690B43136130BF70470070004003
S315080020F000ED00E00223024A11690B4313617047A1
S3150800210000ED00E00221024A13698B431361704710
S3150800211000ED00E01023024A11690B431361704772
S3150800212000ED00E01021024A13698B4313617047E2
S3150800213000ED00E07047C04638B58025044C6D02B6
S3150800214063692B4202D0FFF7F5FF656138BDC046CB
S31508002150000401408021034AC90013680B43136039
S315080021607047C04600700040024A034B11680B4096
S315080021701360704700700040FFFBFFFF8021034A91
S31508002180890013680B4313607047C046007000400F
S31508002190024A034B11680B401360704700700040F9
S315080021A0FFFDFFFF0122054B19680A4380211A60CB
S315080021B01A68C9010A431A607047C0460070004091
S315080021C010B5124C124B22681249134001222360A3
S315080021D0236893432360104B186801F05FFE32238F
S315080021E0584300280BD063689B0608D5221C20217B
S315080021F002E05368194202D001380028F9D10320B9
S31508002200024B5B689B06DB17184010BD0070004048
S31508002210FFBFFFFF40420F00040000207047C04682
S31508002220F0B557464E464546E0B4036882B0041CEE
S31508002230DA0736D50C20CA49CA680240082A00D1EE
S315080022405DE1CA6802400C2A00D154E18023616826
S315080022505B02994200D1ECE1A022D202914200D160
S3150800226098E1BF4DBF4A286802402A602A68134091
S315080022700193019B2A68BC4B13402B60002900D0B0
S3150800228095E1FEF769FA8026071CB60205E0FEF717
S3150800229063FAC01B642800D99AE12B683342F6D149
S315080022A023689A072CD50C20AD49CA680240042A2F
S315080022B000D193E1CA6802400C2A00D18AE1E3689A
S315080022C0A74D002B00D138E109212A6804278A4343
S315080022D013432B60FEF740FA061C05E0FEF73CFAAE
S315080022E0801B022800D973E12B689D4A1F42F5D04E
S315080022F02169536808029D490B40034353602368CC
S31508002300DA062CD50C22964DEB681A4200D1D6E097
S31508002310E369002B00D191E180222B685200134318
S315080023202B60FEF719FA8026071CB60005E0FEF7B3
S3150800233013FAC01B022800D94AE12B68884A33429F
S31508002340F5D051688A4B0B40616A0B43536053685A
S31508002350216A1B0209061B0A0B43536023681A07E6
S3150800236017D563697E4D002B00D1D3E001232A6D72
S31508002370022613432B65FEF7EFF9071C05E0FEF767
S31508002380EBF9C01B022800D922E12B6D1E42F6D0BC
S3150800239023689A061FD5A369714D002B00D130E139
S315080023A00123AA6873491A43AA606A6B0226134373
S315080023B0714A6B63136A0B431362FEF7CDF9071C68
S315080023C005E0FEF7C9F9C01B022800D900E1AB6891
S315080023D01E42F6D023685B074AD580220020604B50
S315080023E05205996B8146114204D1996B0A439A6347
S315080023F00123994680260022604D76002B68924676
S31508002400334200D148E18022A3685200934200D1AA
S3150800241054E1002B00D125E1A021C9008B4200D14F
S315080024208AE14F4B564A196D0A401A65196D554A85
S315080024300A401A65FEF790F980258046484EAD0099
S31508002440514F06E0FEF788F94346C01AB84200D94C
S31508002450BEE0336D2B42F5D05346012B00D165E122
S315080024604B46012B04D13E4A484B916B0B40936374
S31508002470A36A002B1CD00C21394DEA680A400C2AA5
S3150800248046D02A68022B00D11DE1414B2C1C134073
S315080024902B60FEF761F98025061CAD0405E0FEF702
S315080024A05BF9801B022800D992E023682B42F6D1FB
S315080024B0002002B01CBC90469946A246F0BD2B6887
S315080024C09B0502D5E369002B22D0254A284B516883
S315080024D000200B40616A0B4353605368216A1B0254
S315080024E009061B0A0B435360FEF714F923681A07FB
S315080024F000D44EE735E7CA68D20300D4A6E6184AE0
S315080025001268920300D4CCE66268002A00D0C8E6B6
S315080025100120CEE701222B6D022693432B65FEF799
S315080025201BF9071C04E0FEF717F9C01B02284FD851
S315080025302B6D1E42F7D123682BE709222B68042648
S3150800254093432B60FEF708F9071C04E0FEF704F92D
S31508002550C01B02283CD82B681E42F7D12368CFE659
S3150800256000100240FFFFFEFFFFFFFBFFFFE0FFFF3B
S31508002570FF1FFFFF0120000000000140007000401F
S31508002580FFFEFFFFFFFBFFFF88130000FFFFFFEFC3
S31508002590FFFFFFFE6F4A70491068014080201160F6
S315080025A01168C0020143116011680B431360FEF7FE
S315080025B0D3F88025071C674EAD0204E0FEF7CCF879
S315080025C0C01B642804D833682B42F7D0236868E612
S315080025D003206EE7CA68D20300D570E65D4A126822
S315080025E0520702D5E268012A92D12169594D08029B
S315080025F06A685A490A4002436A60DA0600D4AEE6B7
S3150800260080E60122AB6802269343554AAB60116AFD
S31508002610544B0B401362FEF79FF8071C04E0FEF7C5
S315080026209BF8C01B0228D3D8AB681E42F7D1236893
S31508002630D1E6484A136819431160B8E72A684A4B35
S31508002640802613402B60FEF787F8B600071C04E0C7
S31508002650FEF782F8C01B0228BAD82B683342F7D196
S3150800266023687CE63B4D404B2A6D802613402B653C
S315080026702A6D3E4BB60013402B65FEF76DF83C4FAE
S31508002680804605E0FEF768F84346C01AB8429FD868
S315080026902B6D3342F6D1DFE62B6833432B60FEF70A
S315080026A05BF8071C04E0FEF757F8C01B64288FD8B0
S315080026B02B683342F7D001239A46A4E625490A6DCA
S315080026C013430B65B6E62B4B802713402B60FEF7AA
S315080026D043F8BF04804606E0FEF73EF84346C01AB4
S315080026E0022800D974E72B681A4E3B42F4D1226BB4
S315080026F0616BF3681143E26A802411431E4AA404FD
S31508002700134080220B43F36033685204134333604B
S31508002710FEF722F8051C05E0FEF71EF8401B022806
S3150800272000D955E733682342F6D0C1E6134A0E4B63
S3150800273011680B40136093E6064B0B49186D014070
S3150800274080201965196DC00001431965196D0A4382
S315080027501A656FE600100240FFFFFEFFFFE0FFFF6D
S3150800276000000140FEDFFFFFFFFEFFFFFFFBFFFF4C
S3150800277088130000FFFFFFFEFFFF02FF0070004006
S31508002780F8B54F4646460124554AC0B41368234057
S315080027908B420CD21368A3430B43136013681C4087
S315080027A08C4204D001200CBC90469946F8BD0368BB
S315080027B09A0706D5F0254B4CE268AA4385682A4352
S315080027C0E2600C1C061CDB0728D5464A43681268DB
S315080027D0022B4FD0002B48D0032B7ED05207E1D5D1
S315080027E00321404DEA688A431343EB60FDF7B4FFC3
S315080027F07368071C022B40D0032B5ED0002B4CD1EC
S315080028000C339846384B994604E0FDF7A5FFC01BE4
S3150800281048452DD84246EB681A42F6D10121304A7E
S3150800282013680B409C4207D813688B4323431360F5
S3150800283013681940A142B5D133685A0706D5294904
S315080028402A4AC8680240F0680243CA601B0707D5CF
S3150800285024483169C368264AC90013400B43C3603C
S315080028600020FDF757FF00209DE79205B8D499E7A9
S31508002870032098E79203B3D494E70A3398461A4B91
S31508002880994604E0FDF768FFC01B4845F0D8424664
S31508002890EB681340082BF5D1C0E70C239846124B7A
S315080028A0994604E0FDF758FFC01B4845E0D8424664
S315080028B0EB681340042BF5D1B0E7093398460A4B69
S315080028C0994604E0FDF748FFC01B4845D0D8424664
S315080028D0EB6813400C2BF5D1A0E7920180D461E791
S315080028E0002002400010024088130000FFF8FFFF96
S315080028F0FFC7FFFF022370B588B004930133069320
S3150800290000230C1C151C059300280AD001281BD08F
S315080029101649174BCA681A402A432243CA6008B0A8
S3150800292070BD0126114AD16A3143D162D36A079034
S3150800293033400193019BA0208023C0055B0003A9B7
S315080029400393FFF753F9E3E7084AD16A0143D162D3
S31508002950D26A03A910400290029AA0208022C005DC
S31508002960920003920793FFF741F9D1E7001002405E
S31508002970FFFFFF808021034A090313680B43136096
S315080029807047C046001002400C211D4A08B5506821
S31508002990D3680004400F0B40042B20D019D9082B0C
S315080029A015D00C2B15D1D3681648D1689B021B0F7E
S315080029B0C35C0902D068890F0131C00316D41268B6
S315080029C0D20618D51048584301F068FA00E00F48B7
S315080029D008BD802301301B028340181CF8E71368E2
S315080029E0DB0601D50848F3E70948F1E707485843E5
S315080029F001F054FAECE70648584301F04FFAE7E7C6
S31508002A0000100240A445000800093D0000127A00A3
S31508002A100024F40008B5FFF7B7FF054B054ADB6845
S31508002A201B061B0FD35CD840034B186008BDC04675
S31508002A3000100240C04500080400002008B5FFF752
S31508002A40E9FF044B044ADB685B055B0FD35CD8409F
S31508002A5008BDC04600100240C045000808B5FFF78B
S31508002A60D9FF044B044ADB689B045B0FD35CD84050
S31508002A7008BDC04600100240C04500083F23036059
S31508002A80364B1A68520343D5A023DB024360334B07
S31508002A901A6880235B00134046D00123C3612F4A7E
S31508002AA013681B0E036253681B045B0F436293682B
S31508002AB0012213404BD082610122284B1B68134028
S31508002AC043D0C260254A5368DB04DB0E0361136DED
S31508002AD05B0533D5A023DB00836001221F4B1B6DEA
S31508002AE0134023D01D4B42611B68DB0123D401230D
S31508002AF083628023194A5B02D1680B40C362D3689C
S31508002B009B021B0F0363D3681B029B0F436370472B
S31508002B1080221B68520213401DD0104B42601A686F
S31508002B2080235B001340B8D1C361B8E743610B4B00
S31508002B301B68DB01DBD502238362DAE7136D80228B
S31508002B405200134005D08260C7E7C360BAE78361C5
S31508002B50B2E78360C1E7436099E7C04600100240C8
S31508002B600F2310B5032403600C4BDA682240426039
S31508002B70DA68ED3422408260E022DC68D200224026
S31508002B80C260DA68E0239B0113400122DB08036177
S31508002B90034B1B6813400B6010BDC0460010024073
S31508002BA0002002407047C04638B58025044C6D00A9
S31508002BB063692B4202D0FFF7F5FFA56138BDC04611
S31508002BC00010024080210C4B49001A6882B00A4363
S31508002BD01A601968094A0A401A608022196852025E
S31508002BE00A400192019A1968054A0A401A600022A9
S31508002BF0DA601A6102B0704700100240F4FFF6FE70
S31508002C00FFFFFBFFF0B54746036880B4071C9A062A
S31508002C1050D54369C020554980030A685A40024284
S31508002C2005D0C02292021340934200D17EE0802153
S31508002C3080254E4A4905936B4D4C0B439363236895
S31508002C406D002B432360FDF787FD061C04E0FDF7A6
S31508002C5083FD801B642867D823682B42F7D0C021E0
S31508002C60424C7A69236D890253400B4221D0802554
S31508002C70206D216D2D0329432165256D3D493E4B68
S31508002C80294080250340AD0021652365284253D19C
S31508002C90C023101C9B02184098425DD0334A374B1C
S31508002CA011680B4013603149334A0B6D13400343D7
S31508002CB00B653B68DA0706D503202C49CA6C8243A4
S31508002CC078680243CA649A0706D50C202749CA6C55
S31508002CD08243B8680243CA645A0706D52349284A74
S31508002CE0C86C0240F8680243CA641A0706D51F4929
S31508002CF0244AC86C024038690243CA645A0606D593
S31508002D001A49214AC86C0240B8690243CA640020BD
S31508002D101B0606D515491D4BCA6C1340FA691343A1
S31508002D20CB6404BC9046F0BD0320FAE70B6801208B
S31508002D309B0300D47BE7F4E7FDF70EFD144B061C56
S31508002D40984604E0FDF708FD801B4045ECD8236D46
S31508002D502B42F7D07A699BE7C021044C074B2568BC
S31508002D6089030A402B401A4322609CE70010024060
S31508002D7000700040FFFFF7FFFFFFFCFFFFFFCFFFDC
S31508002D80FFF3FFFFFFCFFFFFFFFFFFFBFFFFF3FF91
S31508002D9088130000EF2303210360114BDA6C0A4005
S31508002DA04260DA6C09310A408260C022D96C12018D
S31508002DB00A40C260C022D96C92010A400261C02250
S31508002DC0D96C12030A40C261C022196D92020A40E8
S31508002DD04261DA6C8023DB04134083617047C04686
S31508002DE00010024010B5402813D8614B80001B58CC
S31508002DF09F46C0235F4A9B01D16C0B4063D080215C
S31508002E0089018B4200D190E080225201934200D181
S31508002E1091E0002010BD8021564AC904D36C0B40AE
S31508002E2079D1136800209B01F4D5D3685248D1683C
S31508002E309B021B0FC35C0902D068890F0131C003CE
S31508002E4000D58AE01268D20600D588E04B48584378
S31508002E5001F024F8DEE70321464AD36C0B4079D00B
S31508002E60022B62D0012B66D00020032BD2D1106D25
S31508002E708005C00FC003CDE70C213E4AD36C0B403A
S31508002E8021D0082B51D0042B55D000200C2BC1D1B2
S31508002E90EDE7C02237491201CB6C134013D08020CE
S31508002EA00001834250D08020C000834243D00020D6
S31508002EB09342AFD1086D8005C00FC003AAE72D4B1A
S31508002EC09B6B5B02A5D5FFF7B9FDA3E7C021802060
S31508002ED0284A8902136D40020B408342C7D08024DA
S31508002EE0A402A3422AD000208B4200D092E713689E
S31508002EF0234200D18EE71368C02280219203134033
S31508002F0089038B4231D093422DD0802252039342BB
S31508002F1027D01B487EE700208B4200D07AE79368CB
S31508002F209B0700D476E7174874E713685B0700D455
S31508002F306FE712486EE7FFF727FD6BE7136D9B07F0
S31508002F4000D466E7104865E70B685B0700D460E7BE
S31508002F500A485FE7FFF782FD5CE70C4877E7084811
S31508002F6075E70B4856E70B4854E70B4852E7C04647
S31508002F70D045000800100240A44500080024F400CB
S31508002F8000093D00006CDC028890000000127A00FF
S31508002F9080841E0020A1070040420F008021034ABA
S31508002FA08901136D0B4313657047C0460010024034
S31508002FB0044B054A196D0A4080211A651A698A4325
S31508002FC01A61704700100240FFDFFFFF8021094B9E
S31508002FD089011A6D80200A431A658022196900033F
S31508002FE00A431A61044B1968014319609A68024337
S31508002FF09A60704700100240000401407047C046BE
S3150800300038B58025034C63691D4202D0FFF7F6FFE9
S31508003010A56138BD0010024080211C4B09059A6A3B
S315080030200A439A62996A1A4A0A409A62194B1A4AD4
S3150800303059680A405A605A6801680A435A605A68C9
S3150800304041680A435A605A6881680A435A605A684E
S31508003050120E12065A605A68C1680A435A60016914
S315080030605A6809040A435A6019680C4A0A401A60E1
S315080030704269196812020A431A60402219680A430B
S315080030801A60202219680A431A6070470010024025
S31508003090FFFFFFF7006C0040FFFFFF48FFC0FFFF80
S315080030A08023024A11680B4313607047006C004086
S315080030B0084A53681B041B0C036013689B049B0E89
S315080030C0436093681B0C8360802392681B0213403D
S315080030D0C3607047006C0040F8B5051CFDF73CFB63
S315080030E00126071C214C6B1C37D00120002D36D138
S315080030F0A3681E4202D00223E66018430223A26890
S31508003100134202D00422E3601043A3685B0505D589
S315080031102023E26818431C3B1343E360A368DB05DE
S3150800312005D50823E2681843043B1343E360A36804
S315080031309B0509D51023E26818430C3B1343E3604B
S31508003140A3681B0703D4F8BDA3681B0701D508238A
S31508003150E3600028F7D16B1CC7D10020C8E7FDF74C
S31508003160FBFAC01B854280414042C1E7006C004023
S31508003170024A0349136A0B43136270470000014071
S3150800318001200000024A034B116A0B401362704784
S3150800319000000140FEDFFFFFF8B5061C0C1C151CDD
S315080031A0FDF7DAFA071C326801E06B1C05D1D36912
S315080031B023409C42F9D10020F8BD002D05D0FDF72B
S315080031C0CBFAC01B8542EED23268802113680320F1
S315080031D08B431360136860398B4313601168064B81
S315080031E00B400121136093688B43936041230022AF
S315080031F0F154013BF254DFE7FFFEFFFF7047C0467C
S3150800320038B5002800D19BE04123C35C041CDBB21F
S31508003210002B55D0022241232568E2542B68013A37
S3150800322021699343A2682B600A43802109020A4355
S3150800323061692B6811434A4A13400B432B60E269C4
S31508003240A369216A1343802212011343E2681943D2
S3150800325011436B68434A13400B436B60424B9D42D4
S315080032604CD0424B9D4200D16CE0FFF7E7FB400093
S31508003270616800F013FE256883B20F201A1C03400C
S3150800328082435B101343EB606A68394B13402A226A
S315080032906B60AB689343AB6001232A6813432B60CA
S315080032A0002363642B681B071DD42B685B070CD4AB
S315080032B0002240230020E25401320133E25438BD93
S315080032C040228354FFF79AFFA4E78021FA22201CA4
S315080032D0C9039200FFF760FF0028E9D003224123C3
S315080032E00320E254EBE78021FA22201C890392008E
S315080032F0FFF752FF0028F1D12568D6E703221D4BB8
S31508003300DB6C13401C4A9B009B58082B16D81B4A9B
S315080033109B00D3589F4680206168400200F0BEFD9E
S3150800332083B2AAE7FFF730FBA1E71548616800F00A
S31508003330B5FD83B2A1E7FFF791FB98E70023EB60A1
S315080033400120BCE70C220B4BDB6C1340043B082B1B
S3150800335000D98AE7084A9B00D3181B69D5E7C046F7
S31508003360F369FFEFFFC0FFFF00380140004400404B
S31508003370FFBFFFFF00100240F8460008D4460008C9
S315080033800048E8017047C04670B5002810D04126AD
S315080033900223002583550368041C1D605D609D603B
S315080033A0FFF7F0FF402300206564A555E55470BD7E
S315080033B00120FCE7F0B547460D1C412180B41E1CD0
S315080033C0435C041CDBB20220012B02D004BC9046ED
S315080033D0F0BD002D45D00138002AF7D03F30804691
S315080033E0205C844667460220012FEFD040462354CE
S315080033F0002380276364123363547F012285628524
S31508003400638D002B14D0638D201C013B9BB2638512
S315080034108021321CFFF7C0FE002810D1A368BB42EA
S3150800342015D023682A7801359A62638D002BEAD174
S31508003430201C4021321CFFF7AFFE002801D00320D4
S31508003440C4E741230122E254013BE054BEE7236965
S31508003450002BE6D12B882268DB05DB0D936202354B
S31508003460CEE70120B2E7C046F8B546464F460D1CE2
S315080034704121C0B41E1C435C041CDBB20220012B94
S3150800348003D00CBC90469946F8BD002D62D0013891
S31508003490002AF6D03F308046205C844667460220E4
S315080034A0012FEED04046235400236364223363542D
S315080034B0228662868022A3685201934250D0002B4E
S315080034C041D12369002B47D07F239846A3868023C2
S315080034D05B01FF279946638E9BB2002B20D0638E33
S315080034E0201C013B9BB263868021321CFFF754FEE9
S315080034F0002826D12368201C9F622021321CFFF752
S315080035004BFE00281DD1A3684B4510D042462368C0
S315080035105B6A13402B70638E01359BB2002BDED19C
S3150800352041220121A154013AA3540020A9E72369A5
S31508003530002BEBD1424623685B6A13402B80023589
S31508003540C9E703209DE78022520593420FD0A38E38
S315080035509846BCE7012094E7FF23A3869846B6E77A
S315080035602369002BF8D1054BA3869846AFE7236954
S31508003570002BA9D03F23A3869846A8E7FF010000A1
S31508003580F0B547460D1C412180B4161C425C041C4C
S31508003590D2B20220012A02D004BC9046F0BD002D0A
S315080035A06DD0002E6BD00138002BF5D03F30804609
S315080035B0205C844667460220012FEDD040462254FF
S315080035C00022626422326254802263852386238520
S315080035D06386A368520193425FD0002B53D12369B7
S315080035E0002B56D07F237F27A38680235B0198462E
S315080035F0638D9BB2002B29D0638D201C013B9BB2A7
S315080036006385638E8021013B9BB26386069AFFF72A
S31508003610C3FD002835D1A36843451ED02B78226800
S315080036203B4093620135201C2021069AFFF7B4FD22
S31508003630002826D1A368434518D023685B6A3B4017
S315080036403370638D01369BB2002BD5D141220121FF
S31508003650A154013AA35400209EE72369002BDDD12B
S315080036602B8822683B4093620235DCE72369002BEE
S31508003670E3D123685B6A3B4033800236B8E7012012
S315080036808AE7032088E78022520593420BD0A78E4B
S31508003690ABE7FF23FF27A386A7E72369002BF8D10B
S315080036A0044FA786A1E72369002B9BD03F233F271A
S315080036B0A3869AE7FF01000070B54124055D031C47
S315080036C00220012D00D070BD002916D00138002A2D
S315080036D0F9D03F355E5D0130012EF4D05A85596226
S315080036E01A85122100225A6419555A551A688023D8
S315080036F0116800200B431360E5E70120E3E7C046A5
S31508003700412370B5C35C0224DBB2012B01D0201C17
S3150800371070BD00293AD0013C002AF8D04025465D04
S315080037200134012EF3D043550286428680228368EF
S31508003730C162520193422BD0002B1DD10369002B85
S3150800374044D1FF3383860021222241238024416409
S31508003750C254036864001A6822431A6001229C68EE
S3150800376022439A6020221C6822431A604022815410
S31508003770BF329A620024CAE7802252059342E2D1F8
S315080037800369002B22D03F238386DCE70124BEE7AA
S315080037900369002B1DD1104B838600212222412369
S315080037A080244164C254036864001A6822431A607C
S315080037B001229C6822439A6020221C6822431A60D0
S315080037C040228154044A00249A62A0E77F23838614
S315080037D0B9E7FF238386E0E7FF010000F0B541243F
S315080037E0045D0225E4B2012C01D0281CF0BD002995
S315080037F037D0002A35D0013D002BF6D04026875D0C
S315080038000135012FF1D08455C26280224386038692
S3150800381003854385836841625201934230D0002B69
S3150800382021D10369002B28D07F23838600213222E9
S3150800383041234164C2540368123A1C680025224396
S3150800384080241A601A68640022431A6001229C6860
S3150800385022439A6040228154196840320A431A600A
S31508003860C3E70125C1E7802252059342DED10369E9
S31508003870002BD9D03F238386D8E7FF238386D5E755
S315080038800369002BF9D1014B8386CFE7FF010000BE
S31508003890F8B54125131C425D041CD2B20220012A48
S315080038A000D0F8BD002923D00138002BF9D04026D6
S315080038B0A75D0130012FF4D00027A2551132638588
S315080038C0616223856764A06B62550A4AC2620A4A26
S315080038D002630A4A426322682832FDF783FA802285
S315080038E0236800201E6299680A439A60A755D8E79C
S315080038F00120D6E7D93A00081D3B0008853C000898
S31508003900F0B54746161C412280B4835C041CDBB222
S315080039100D1C0220012B02D004BC9046F0BD0029E4
S3150800392033D00138002EF7D04027E15D0130012958
S31508003930F2D0E3550023636498462233E56226866F
S3150800394065622685E06BA354114B2168C362114B4F
S3150800395024310363104B2A1C4363331CFDF742FAD8
S315080039602268291C2832331CA06BFDF73BFA082273
S31508003970236800201A629A683A439A6080229968F6
S315080039800A439A604346E355C6E70120C4E7C046A2
S31508003990413B0008313B0008853C0008F8B546461F
S315080039A04F46C0B40E1C41211D1C435C041CDBB2EF
S315080039B00220012B03D00CBC90469946F8BD002E78
S315080039C042D0002A40D00138002DF4D03F3081463D
S315080039D0205C844667460220012FECD048462354D3
S315080039E00023636498463233E2622586666225853B
S315080039F0E06B6354154B1649C362164B0363A36BFE
S31508003A00D9621549196315495963416321682B1C05
S31508003A102431FDF7E7F92268311C28322B1CA06BEC
S31508003A20FDF7E0F90822236849461A624A461A62EF
S31508003A309A6800200A439A60802299680A439A6025
S31508003A4043464A46A354B6E70120B4E7413B00087B
S31508003A50D93A0008313B00081D3B0008853C0008A0
S31508003A60402210B5815C031C0220012907D080245E
S31508003A7018688168A143816000210020995410BD0F
S31508003A80402210B5815C031C0220012907D0802141
S31508003A90186884682143816000210020995410BD6C
S31508003AA010B5041C806B002801D0FDF7C5F9E06B42
S31508003AB0002801D0FDF7C0F98021236800209A6804
S31508003AC08A439A609A6840398A439A600122412358
S31508003AD0E25410BD7047C046202108B50368826AC3
S31508003AE01B680B4005D153854133D35C122B08D094
S31508003AF008BD4123D35C122BFAD1101CFFF7EAFF4D
S31508003B00F6E7136860319A688A439A604022196812
S31508003B100A431A60ECE7C0467047C04608B5806A93
S31508003B20FFF7FAFF08BDC0467047C0467047C04653
S31508003B3008B5806AFFF7FAFF08BDC0467047C04659
S31508003B402021036810B51B68826A0B4013D153867F
S31508003B502131535C222B16D0402413689868A04361
S31508003B60986098684034A04398600123101C535409
S31508003B70FFF7E4FF06E04123D35C101C222B0DD08F
S31508003B80FFF7DCFF10BD402410688368A3438360F9
S31508003B900123101C5354FFF7C7FFF3E7FFF7C4FFD1
S31508003BA0F0E7C046412310B5C25C818E3F3B322AFE
S31508003BB001D0181C10BD438D002B19D00268D3699B
S31508003BC05B0615D5802384685B019C424BD0436A0B
S31508003BD05C1C44621B780B409362438D013B9BB28D
S31508003BE04385438D002B03D180241368A3431360B8
S31508003BF0438E002B12D00368DA6992060ED580220E
S31508003C0084685201944224D0C26A5B6A541C1940E3
S31508003C10C4621170438E013B9BB24386438E002BD0
S31508003C2004D040230022C2540023C2E7202103689F
S31508003C301A688A431A601968104A0A4001211A60EC
S31508003C409A688A439A604123C154FFF777FF002395
S31508003C50AFE70269002AD7D15B6AC26A19401180A8
S31508003C600232C262D6E70369002BB0D1436A1C88C8
S31508003C7002330C4094624362AFE7C046FFFEFFFF83
S31508003C807047C04608B50023806A43864385426C60
S31508003C9010331343436401224123C254FFF7F0FF54
S31508003CA008BDC0460122036810B5D969041C0A423A
S31508003CB002D01968C90560D40222D9690A4203D01C
S31508003CC001219868014250D10422D9690A4203D0D9
S31508003CD001219868014240D10822D9690A4203D0D5
S31508003CE00121986801422AD1626C002A30D120222B
S31508003CF0D9690A4202D019680A4217D18022D969BD
S31508003D000A4202D019680A4207D14022D9690A42F2
S31508003D1002D019680A4237D110BD4121605C1228C9
S31508003D2074D0201CFFF73EFF2368EEE72132A15C22
S31508003D30222936D0201CFFF735FF2368DEE71A62F2
S31508003D40606C024362644122A154626C002ACED0A0
S31508003D50201CFFF795FF2368C9E71A62606C023AD0
S31508003D60024362644122A154B6E71A62606C0232C9
S31508003D70024362644122A154A6E71A62416C1143C8
S31508003D8041644121425497E71968201C9143196000
S31508003D9001219A688A439A604123E154FFF79AFE03
S31508003DA0BAE7A25CA18E222AA8D18022A068520175
S31508003DB0904249D0E26A5B6A501C1940E062117071
S31508003DC02368FF229A62628E013A92B26286002ABC
S31508003DD000D093E7201C2021264AFFF7DDF9236847
S31508003DE0002800D08AE720211A68201C8A431A6016
S31508003DF01968214A0A4001211A609A688A439A601A
S31508003E004123E154FFF790FE236877E7615C1229A6
S31508003E1000D07AE7618D00290ED08022A168520170
S31508003E2091421BD0626A511C616212789A62628D55
S31508003E30013A92B2628568E719689143402219608F
S31508003E4019680A431A6060E72269002AB2D1586ADB
S31508003E50E26A014011800232E262B2E72269002A70
S31508003E60E0D1616A0A880231D205D20D9A6261628E
S31508003E70DDE7C046F0550000FFFEFFFF4123C05CAA
S31508003E80C0B27047406C70474847000800000020E1
S31508003E903404002038040020D008002000224308FB
S31508003EA08B4274D303098B425FD3030A8B4244D3F4
S31508003EB0030B8B4228D3030C8B420DD3FF22090236
S31508003EC012BA030C8B4202D31212090265D0030BF5
S31508003ED08B4219D300E0090AC30B8B4201D3CB03EB
S31508003EE0C01A5241830B8B4201D38B03C01A52412D
S31508003EF0430B8B4201D34B03C01A5241030B8B422F
S31508003F0001D30B03C01A5241C30A8B4201D3CB0219
S31508003F10C01A5241830A8B4201D38B02C01A5241FE
S31508003F20430A8B4201D34B02C01A5241030A8B4201
S31508003F3001D30B02C01A5241CDD2C3098B4201D319
S31508003F40CB01C01A524183098B4201D38B01C01A97
S31508003F50524143098B4201D34B01C01A524103090E
S31508003F608B4201D30B01C01A5241C3088B4201D3BD
S31508003F70CB00C01A524183088B4201D38B00C01A6A
S31508003F80524143088B4201D34B00C01A5241411A91
S31508003F9000D20146524110467047FFE701B500209E
S31508003FA000F00CF802BDC0460029F7D003B5FFF7AC
S31508003FB075FF0EBC4243891A1847C0467047C0466B
S31508003FC010B50021041C00F081F8044B1868C36B77
S31508003FD0002B00D09847201C00F008FA304700084C
S31508003FE070B50D4E0D4D0024AD1BAD1005D0A300C8
S31508003FF0F35801349847A542F9D100F0FBF9084E69
S31508004000084D0024AD1BAD1005D0A300F3580134AC
S315080040109847A542F9D170BD3C4700083C470008BF
S315080040203C4700084447000870B583073FD0541E34
S31508004030002A3BD0CEB2031C032503E0621E002CE7
S3150800404034D0141C01335A1E16702B42F6D1032C99
S3150800405024D9FF250D402A0215432A0415430F2C9F
S3150800406011D9261C103E3609013636011A1C9B1931
S31508004070156055609560D56010329342F8D10F22CD
S315080040801440032C0AD9261FB6080136B6001A1C96
S315080040909B1920C29342FCD103221440002C05D060
S315080040A0C9B21C1919700133A342FBD170BD141C87
S315080040B0031CCCE708B5034B002B02D0024800F0DE
S315080040C089F808BD00000000E5410008F0B556462D
S315080040D05F464D464446F0B40E1C3C4B87B01B6801
S315080040E0019003934933FF330493A422039B5200A0
S315080040F09F58002F4CD0049B984600239B46C42308
S315080041005B009C46BC4463460293C6235B009A4602
S315080041107C68BA44A5007D19013C08D526E06B1DCC
S31508004120FF331B68B34204D0043D013C1ED3002E66
S31508004130F5D17B686A68013BA3423AD05B466B605F
S31508004140002AF1D07B68029999460123A3400968A1
S315080041500591194223D190477B684B45C5D1434603
S315080041601B68BB42C1D1043D013CE0D2184B002B71
S315080041700ED07B68002B23D13B68002B24D0424607
S31508004180381C136000E000BF43461F68002FB6D1F5
S3150800419007B03CBC90469946A246AB46F0BD514690
S315080041A00968194207D12B1C84331968019890476E
S315080041B0D2E77C60C4E72B1C843318689047CBE7AA
S315080041C03B68B8461F1CE1E70023FAE730470008BA
S315080041D00000000008B5011C00220020002300F0A2
S315080041E01BF808BD38B5094B094CE41AA41009D0C8
S315080041F0084AA518AD00ED182B68013C9847043D00
S31508004200002CF9D100F0FCF838BDC0464447000838
S3150800421048470008FFFFFF3FF8B544465F46564645
S315080042204D469B462F4BF0B41C68A4235B00051C27
S31508004230E0580E1C904600284BD043681F2B0DDC17
S315080042405C1C002D21D102339B0044601E500020C7
S315080042503CBC90469946A246AB46F8BD224B002B7D
S315080042603CD0C820400000E000BF002836D0A42279
S3150800427000235200A15843600160A0504032835089
S31508004280043283500124002DDDD09A0091468144E2
S31508004290424688214F467A50C422520090468044AE
S315080042A042468739994012688A460A4394464246E6
S315080042B061461160842249465F4652008F50022D9E
S315080042C0C1D1021C55468D32FF3211680D43156067
S315080042D0B9E7201C4D30FF30E050AEE701204042E0
S315080042E0B6E7C046304700080000000010B582B0A7
S315080042F0FCF716F9FBF750FFFBF7C6FF0320FBF7A1
S31508004300F3FF0020FBF7F0FF0020FBF7EDFF00208E
S31508004310FBF7EAFF0020FBF7E7FF0020FBF7E4FFC7
S315080043200020FBF7E1FF0020FBF7DEFF0020FBF78C
S31508004330DBFF0220FBF7D8FF0020FBF7D5FF0020A4
S31508004340FBF7D2FF0020FBF7CFFF0020FBF7CCFFDF
S315080043500020FBF7C9FF0020FBF7C6FF0020FBF78C
S31508004360C3FF0020FBF7C0FF0020FBF7BDFF0020BE
S31508004370FBF7BAFF0120FBF7B7FF064CFCF74EF830
S31508004380FBF7C0FF2368643301932268019B9A42B6
S31508004390FBD3F3E7840500200D488546002103E09A
S315080043A00C4B5B58435004310B480C4B42189A424D
S315080043B0F6D30B4A02E0002313600432094B9A42F3
S315080043C0F9D3FCF717F9FFF70BFEFFF78FFFFEE7A8
S315080043D00020002048470008000000203404002080
S315080043E038040020D0080020FEE70000FEE7C0469B
S315080043F000000000F8B5C046F8BC08BC9E467047E9
S31108004400F8B5C046F8BC08BC9E467047DC
S3150800440C36498B69DB070BD5354B012001E0002BB0
S3150800441C5CD08A69013B1042F9D10320002B54D099
S3150800442C2E4B9A69920412D49A69D2050FD49A69BA
S3150800443C92050CD49A69120509D49A69520506D4C0
S3150800444C9A69920303D49B690020DB033DD5234B61
S3150800445C9B69DB0504D50823224A51690B43536132
S3150800446C1E4B9B699B0504D504231E4A51690B43B5
S3150800447C53611A4B9B695B0504D50223194A51698A
S3150800448C0B435361154B9B691B0504D51023154A21
S3150800449C51690B435361114B9B699B0404D501234A
S315080044AC104A51690B4353610C4B9B699B030FD400
S315080044BC0A4B9B69DB0304D540230A4A51690B4313
S315080044CC53610120084A054B9A6170470320FCE7A3
S315080044DC2023044A51690B435361E9E70020024043
S315080044EC50C30000B8080020002F0300054B064AED
S315080044FC00209A60054A9A60102219680A431A60C5
S3150800450C7047C0460020024037261504FDFCFBFA0E
S3150800451C1021054B054A00209A60054A9A601A68CC
S3150800452C8A431A607047C046002002403726150495
S3150800453CFDFCFBFA38B5051C0C1CFFF761FF0028BF
S3150800454C1CD180210E4BC9005A680A435A600822AE
S3150800455C59680A435A6072B6221C403208CC2B6042
S3150800456C9442FBD162B6FFF74BFF0821044B5A68FD
S3150800457C8A435A605968034A0A405A6038BDC0468D
S3150800458C00200240FFFBFFFF024B5B690360002023
S30D0800459C7047C046B80800206C
S315080045A4030406080C101820300000000000000060
S315080045B400000000010203040607080900000000C1
S315080045C4010203040102030406070809122E00085F
S315080045D4562E0008782E0008122E0008922E00087F
S315080045E4122E0008122E0008122E0008F22D0008BA
S315080045F4122E0008122E0008122E0008122E000889
S31508004604122E0008122E0008122E0008BE2E0008CC
S31508004614122E0008122E0008122E0008122E000868
S31508004624122E0008122E0008122E0008122E000858
S31508004634122E0008122E0008122E0008122E000848
S31508004644122E0008122E0008122E0008CC2E00087E
S31508004654122E0008122E0008122E0008122E000828
S31508004664122E0008122E0008122E0008122E000818
S31508004674122E0008122E0008122E0008122E000808
S31508004684122E0008122E0008122E0008122E0008F8
S31508004694122E0008122E0008122E0008122E0008E8
S315080046A4122E0008122E0008122E0008122E0008D8
S315080046B4122E0008122E0008122E0008122E0008C8
S315080046C4122E0008122E0008122E0008162E0008B4
S315080046D46A320008363300082A3300083C330008D7
S315080046E4243300083C3300083C3300083C330008F4
S315080046F41633000801000000040000000200000050
S31508004704080000000400000000000000000000008B
S315080047140000000002000000000000000000000085
S315080047240000000008000000430000000800002004
S30D08004734ECB9FF7F010000004B
S30D0800473CB5400008E900000879
S30908004744C10000089A
S315080047480000000080841E0000000000F40200201B
S315080047585C030020C40300200000000000000000DD
S315080047680000000000000000000000000000000033
S315080047780000000000000000000000002C470008A8
S315080047880000000000000000000000000000000013
S315080047980000000000000000000000000000000003
S315080047A800000000000000000000000000000000F3
S315080047B800000000000000000000000000000000E3
S315080047C800000000000000000000000000000000D3
S315080047D800000000000000000000000000000000C3
S315080047E800000000000000000000000000000000B3
S315080047F801000000000000000E33CDAB34126DE650
S31508004808ECDE05000B0000000000000000000000B8
S315080048180000000000000000000000000000000082
S315080048280000000000000000000000000000000072
S315080048380000000000000000000000000000000062
S315080048480000000000000000000000000000000052
S30908004B780800002003
S30908004B7C0000000027
S7050800439916
