S01900006C65645374726970436F6E74726F6C6C65722E73313970
S315080000000020002095440008E5440008FD05000886
S3150800001000000000000000000000000000000000D2
S31508000020000000000000000000000000E544000891
S315080000300000000000000000E5440008D1050008A3
S31508000040E5440008E5440008E5440008E5440008DE
S31508000050E5440008E5440008E5440008E5440008CE
S31508000060E5440008E5440008E5440008E5440008BE
S31508000070E5440008E544000800000000E5440008DF
S3150800008000000000E5440008000000000000000031
S31508000090E544000800000000E5440008E5440008BF
S315080000A0E5440008E5440008E5440008E54400087E
S315080000B0E5440008E544000800000000E54400089F
S315080000C010B5064C2378002B07D1054B002B02D020
S315080000D0044800E000BF0123237010BD3804002047
S315080000E000000000EC440008084B10B5002B03D0B4
S315080000F00749084800E000BF07480368002B00D1FD
S3150800010010BD064B002BFBD09847F9E7000000000E
S315080001103C040020EC4400083404002000000000E1
S31508000120164B002B00D1144B9D46402292029A1A78
S31508000130924600218B460F461348144A121A03F0BA
S31508000140F7FF0F4B002B00D098470E4B002B00D023
S3150800015098470020002104000D000D48002802D011
S315080001600C4804F0B5F803F0BFFF2000290004F09E
S315080001703BF903F0A9FFC046000008000000000094
S31508000180000000000000000038040020D00800200D
S31508000190D1420008E1420008F0B54E4657464546AA
S315080001A0E0B40227304B86B0DA6A00243A43DA62B2
S315080001B0DB6A03253B400093009B01239846029384
S315080001C02A4B01A91800039404949A46019501F054
S315080001D089FDA020042301A9C00599460193049529
S315080001E001F080FD80231B020193962320489B0182
S315080001F043600C2343611F4B1F4D03604B466B60E6
S315080002007C332B6180235B012B622B001B4A046124
S3150800021004C31B4AC460914684608461C461046255
S315080002200294AC60EC606C61AC61EC61043252CB58
S3150800023052C252CB52C212CB12C24A46114B13605B
S3150800024003F068F8280000F033FC484600F030FC5C
S31508000250534652469F614346936206B01CBC90467D
S315080002609946A246F0BDC046001002400004005060
S315080002700806002000440040CC0500204400024047
S3150800028090050020580002407047C0467047C04697
S31508000290C046C046C046C046C046C0467047C0466F
S315080002A0FF22144B10B55A60FF2212029A60FF22F1
S315080002B0002002241204DA600F4A1860D16A86B058
S315080002C02143D162D36A01A923400093009B80236E
S315080002D00A4C01937F3B0293039002332000049358
S315080002E001F000FD00228021200001F087FE06B003
S315080002F010BDC046A80800200010024000040050A7
S31508000300054A1378642B05D0591CD3181871012097
S31508000310117070470020FCE71C05002095221C4838
S31508000320920070B5030081180EE01A68002A0ED0F4
S315080003305A7852085A709A7852089A701A78520857
S315080003401A7004338B4206D05A68002AEDD01A6018
S3150800035004338B42F8D10F4D2A78002A13D0541E45
S31508000360A1B22B1D01312E7959185A781A7001330A
S315080003708B42FAD12C70032E06D9074B1A6895239F
S315080003809B00C25070BD0026034BB600F258F6E734
S31508000390500600201C050020A808002080220F4BCC
S315080003A010B59A61C046C046C046C046C046C0465B
S315080003B0C046C046C046C046C046C046C046C046FF
S315080003C0C046C046C046C046C046C046C0469A62F9
S315080003D0002801D0FFF75CFF10BDC046000400509E
S315080003E08022104B10B59A61C046C046C046C0462A
S315080003F0C046C046C046C046C046C0469A62C046C9
S31508000400C046C046C046C046C046C046C046C046AE
S31508000410C046C046C046C046C046002801D0FFF7C1
S3150800042037FF10BD00040050F8B5052246464F4672
S31508000430184BC0B41A60184BE1268024994601234C
S3150800044036012404002598460AE0FFF7A7FF002F87
S3150800045012D080240135013EADB22404002E11D0FD
S315080004604A464746AB00D358274038002342ECD1CA
S31508000470FFF7B6FF002FECD16408C046C046013E20
S31508000480002EEDD10722034B1A600CBC9046994604
S31508000490F8BDC04610E000E05006002070B5060022
S315080004A01825012405E0013DFFF778FF6400002DBB
S315080004B008D001203442F6D1013DFFF791FF6400D0
S315080004C0002DF6D170BDC0462022064B9A62C04662
S315080004D0C046C046C046C046C046C046C046C046DE
S315080004E0C04670470004005030B5094C20780028F3
S315080004F00CD0013881B2231D0131257959185A7853
S315080005001A7001338B42FAD12070280030BDC046DC
S315080005101C050020032802D9034B18687047024BB4
S315080005208000C058FAE7C046A80800204023244A9D
S3150800053000B5116895B00B4380211360214A49051F
S31508000540936B06A80B4393631F4A204B11680B4015
S31508000550802109010B431360022206921092802221
S31508000560D202129280220123D203099313920F33E7
S315080005700F220A93002301920C3A07930D930B93CB
S3150800058008930C931193029203930493059301F035
S31508000590BDFE012101A802F06BF902F0B3FAFA21B7
S315080005A0890003F005FD00F0DFF9042000F042FAA7
S315080005B0012000220121404200F080F915B000BD5B
S315080005C0002002400010024000700040FFE7FFFFD5
S315080005D0024A1368013313607047C0468405002039
S315080005E0054982B00B68181801900A68019B9A425F
S315080005F0FBD302B07047C04684050020FEE7C0461C
S315080006008021104B49001A680A431A60D9680E4AB5
S315080006100A40DA6019680D4A0A4001211A609A6888
S315080006208A439A6019680A4A0A401A60D968094AC8
S315080006300A40DA6000221A618022074B12059A6086
S315080006407047C046001002400C40FF88F6FFF6FED1
S31508000650FFFFFBFFFFFF02FF00ED00E00C211F4A32
S3150800066010B5D3680B40042B2FD020D9082B12D0F5
S315080006700C2B27D1D3681A4CD1689B021B0FE05C60
S315080006800902D368890F0131DB0321D4154B58437E
S3150800069003F08EFC01E01448114C104BDB681B0676
S315080006A01B0FE3181B7BD840104B186010BD002B9E
S315080006B008D1536880201B045B0F01330002984061
S315080006C0074CEAE7054B5B68F4E70648044CE4E7A1
S315080006D0054B584303F06CFCDFE7C04600100240A8
S315080006E0A04600080024F40000127A000400002046
S315080006F07047C0467047C0460121002210B5074B17
S31508000700494299629A6259625A6219621A62D961B1
S31508000710DA61FFF7EFFF002010BDC0460010024067
S3150800072010B5040002F0EEF9FA21890003F040FC46
S3150800073000F01AF9012000222100404200F0BEF81C
S31508000740002010BD10B50020FFF7EAFFFFF7D0FF25
S31508000750002010BD024A1368013313607047C04673
S315080007608C050020014B18687047C0468C05002090
S3150800077010B582B00190FFF7F5FF0400FFF7F2FF0E
S31508000780019B001B9842F9D302B010BD0221024A10
S3150800079013688B431360704710E000E00223024A97
S315080007A011680B431360704710E000E0004870477B
S315080007B000000501014B1868000C704700580140FD
S315080007C0024B18680005000D7047C04600580140E6
S315080007D00123024A51680B43536070470058014091
S315080007E00121024A53688B43536070470058014001
S315080007F00223024A51680B43536070470058014070
S315080008000221024A53688B435360704700580140DF
S315080008100423024A51680B4353607047005801404D
S315080008200421024A53688B435360704700580140BD
S31508000830024B5A68104358607047C046005801403A
S31508000840024A5368834353607047C04600580140C4
S31508000850024B1868C0239B001840704700000140EF
S315080008600123024A116A0B431362704700000140D4
S315080008700121024A136A8B43136270470000014044
S315080008803021044B1A6A8A431A621A6A104318629C
S315080008907047C046000001408021034A0906136AD2
S315080008A00B4313627047C04600000140024A136AB0
S315080008B05B005B08136270470000014070B50028B2
S315080008C014DB032483082040FC342600134AC02581
S315080008D09446C00089018640214081409B006344BC
S315080008E0AD005A59B2431143595170BD03240F2321
S315080008F0C0B203402040FC342500094AC000944693
S315080009008901854021408140083B9B089B00634440
S31508000910DA69AA431143D961E7E7C04600E100E076
S3150800092000ED00E01F2318401E3B8340014A136078
S315080009307047C04600E100E01F2318401E3B834075
S31508000940802201498B50704700E100E0BFF34F8FCA
S31508000950034A044BDA60BFF34F8FC046FDE7C04633
S315080009600400FA0500ED00E00A4A431E01209342FE
S315080009700ED8C020084A094953600B6A00061B02B4
S315080009801B0A03430B62002300209360073313609E
S315080009907047C046FFFFFF0010E000E000ED00E0F2
S315080009A000280BDB03218308C0330D4A9B009A58A5
S315080009B00840C300DA409009084070470F220949E9
S315080009C0C3B28C461A40083A9208920062445068AC
S315080009D003221340DB00D84080091040EDE7C046EB
S315080009E000E100E018ED00E01F23802218401E3BBE
S315080009F08340024952008B507047C04600E100E030
S31508000A008023054A5B00D3581F221040C3401800B4
S31508000A10012318407047C04600E100E01F23C022AA
S31508000A2018401E3B8340024952008B507047C0460F
S31508000A3000E100E0042805D00421054A13688B4329
S31508000A4013607047024B1A6810431860F9E7C046EE
S31508000A5010E000E07047C04610B5FFF7FBFF10BD79
S31508000A604279124B9A600279012A03D00022DA6091
S31508000A701A61704701680E329143D960827A11076C
S31508000A80427A12060A4301790A43C17A89040A435B
S31508000A90017B49040A43417B09040A43C1790902D7
S31508000AA00A43817949000A431A61E2E790ED00E0BA
S31508000AB010B5002857D02523C35CDBB2002B2FD0F6
S31508000AC002222523C25403683E4A1968C4681140A5
S31508000AD08268224304692243446922438469224383
S31508000AE0C4692243046A22430A431A60364A934277
S31508000AF024D0364A93422BD0354A934235D0354ACC
S31508000B00934210D0344A93423AD0344A934242D060
S31508000B10334A93424AD001222523C254002010BDED
S31508000B2024228354CCE72F4B2F4A19680A401A60AF
S31508000B3041681A6809030A431A60ECE70F21294B32
S31508000B401A688A431A601A6841680A431A60E2E713
S31508000B50F021244B1A688A431A6041681A68090109
S31508000B600A431A60D7E70120D9E71E4B1F4A1968BE
S31508000B700A401A6041681A6809020A431A60CAE7F5
S31508000B80184B1B4A19680A401A6041681A68090412
S31508000B900A431A60BFE7134B164A19680A401A60D7
S31508000BA041681A6809050A431A60B4E70D4B124AE8
S31508000BB019680A401A6041681A6809060A431A60E1
S31508000BC0A9E7C0460FC0FFFF080002401C0002400C
S31508000BD03000024044000240580002406C000240C7
S31508000BE080000240A8000240FF0FFFFFFFF0FFFF52
S31508000BF0FFFFF0FFFFFF0FFFFFFFFFF0002838D0D1
S31508000C002523C35C022B34D0012103681A688A4362
S31508000C101A6000221A605A609A60DA60594A93424A
S31508000C2029D0594A93424CD0584A93425FD0584AE1
S31508000C3093424FD0574A934200D17CE0564A93429A
S31508000C4000D191E08021554A4904516080218904E8
S31508000C5051608021090551608021504AC9045160BC
S31508000C60484A934213D10F214D4A13688B431360A8
S31508000C701FE001207047494A516002215160063140
S31508000C8051600439454A51603E4A9342EBD03E4A88
S31508000C90934238D03D4A93423BD03D4A93423ED098
S31508000CA03C4A934241D03C4A934251D03D4A9342F2
S31508000CB054D00023252283638354013A83540020A9
S31508000CC0D8E71021354A51601031516060315160C2
S31508000CD04039D7E78021314A49015160802189018D
S31508000CE051608021090251608021C901CAE780212B
S31508000CF02A4A49005160491851608021090151600A
S31508000D008021C900BEE7F021254A13688B4313608A
S31508000D10CFE7234A244B11680B401360C9E7204AE2
S31508000D20224B11680B401360C3E71D4A204B11681C
S31508000D300B401360BDE78021184A490251608021A3
S31508000D40890251608021090351608021C90299E70F
S31508000D50134A184B11680B401360AAE7104A164B42
S31508000D6011680B401360A4E780210C4A49035160BF
S31508000D708021890351608021090451608021C903BB
S31508000D8080E7C046080002401C00024030000240CE
S31508000D9044000240580002406C0002400000024035
S31508000DA0A800024080000240FFF0FFFFFF0FFFFF90
S31508000DB0FFFFF0FFFFFF0FFFFFFFFFF070B52425D1
S31508000DC0465D0224012E12D00126465501354455AA
S31508000DD004682568B543256063608368102B08D0CE
S31508000DE0A160E260012322681343236000242000E7
S31508000DF070BDA260E160F5E770B52425465D022462
S31508000E00012E1ED00126465501354455046825682D
S31508000E10B543256063608368102B14D0A160E26037
S31508000E2002232268134323600423226813432360A2
S31508000E30082322681343236001232268134323608F
S31508000E400024200070BDA260E160E9E70121026884
S31508000E50F8B5136804008B431360FFF783FCFA2682
S31508000E6007000125B60004E0FFF77CFCC01BB04272
S31508000E700AD823681B682B40F6D124220020A354E5
S31508000E802533233AE254F8BD2023A26B03201343EB
S31508000E90A36300222423E25403320133E254F2E727
S31508000EA0F8B556464D4644465F468046F0B48946F0
S31508000EB0160000296ED103689F4A934200D185E047
S31508000EC09E4A934200D1F0E09D4A934200D182E0C7
S31508000ED09C4A934200D1FBE09B4A934200D10CE125
S31508000EE09A4A8025934200D118E1AD04FFF73AFCEF
S31508000EF08246974C904F4346914A1B689346914ABF
S31508000F008E49944612E08B4268D05B4568D06345AB
S31508000F1069D08D48834269D08C48834269D0802045
S31508000F20000502420BD1721C00D091E022682A42C9
S31508000F3062D12268BB42E6D108200242F3D07E4A3B
S31508000F40934200D1B5E07D4A934200D1B3E07C4A92
S31508000F50934200D1B6E07B4A934200D1BDE07A4A7B
S31508000F60934200D1C1E0794A934200D1CBE0802276
S31508000F701205774B41465A6043469A6B0123134341
S31508000F804246936304222523CA540022013BCA54CD
S31508000F90012057E00368684A934215D0674A93428E
S31508000FA000D184E0664A934212D0664A934200D141
S31508000FB08BE0654A934200D19CE0644A80259342BF
S31508000FC000D1A9E0ED0491E704258FE702258DE716
S31508000FD08025ED008AE78025AD0087E78020A0E719
S31508000FE0802000019DE7802000029AE78020000308
S31508000FF097E78020000494E74A46002A40D14E4AE3
S31508001000934268D04D4A934200D171E04C4A9342CC
S3150800101000D17BE04B4A934200D181E04A4A934291
S3150800102000D180E0494A934200D17FE080229204B1
S31508001030474B5A60012225234146CA540022002004
S31508001040013BCA543CBC90469946A246AB46F8BDFD
S31508001050002E06D0FFF786FB5346C01A864200D3F9
S3150800106049E743469A6B2023134342464146936316
S3150800107003222523CA540022013BCA540320E1E770
S315080010802D4A934219D02D4A934229D02C4A93428D
S3150800109036D02C4A93423CD02B4A934222D02B4A34
S315080010A0934246D08022D20408E020251EE7402538
S315080010B01CE708225DE780225BE70422244B5A607E
S315080010C00522B8E78022120153E78025ED010DE7D6
S315080010D08025AD010AE70222AAE78022120248E724
S315080010E04022EBE78022D202E8E78022120340E79B
S315080010F020229DE78025ED02F8E68025AD02F5E67B
S315080011008022D200DAE78022120432E78022920097
S315080011108EE78022D201D1E7ED03E7E6AD03E5E6E7
S315080011208022920184E78022920281E7802292033C
S315080011307EE78022D203C1E7080002401C00024075
S315080011403000024044000240580002406C00024051
S315080011500000024070B503680400B849B8480D6835
S315080011601A00834237D0B748834200D1D7E0B64841
S31508001170834200D1DEE0B548834200D102E1B4489B
S31508001180834200D1F1E0B348834200D135E128011A
S3150800119000D4C5E10821186801426BD01868884355
S315080011A0A74918608B4251D0A6498B4200D133E13A
S315080011B0A5498B4200D160E1A4498B4200D170E178
S315080011C0A3498B4200D135E1A24980208B4200D148
S315080011D07CE100053BE02807DCD4096804220A42C2
S315080011E000D1BDE019680A4200D1B9E01A68920632
S315080011F000D5D8E0924A04201968814319609049BD
S315080012008A4200D1CFE08F498A4200D106E18E4951
S315080012108A4200D134E18D498A4200D144E18C49A1
S315080012208A4200D118E18B498A4200D150E18021D7
S315080012308248C9044160052525216554216B00298A
S3150800124000D0B9E080210068890434E008207B4991
S3150800125048600121A06B0143A16304202521605445
S31508001260002001396054616B002903D020008847AB
S3150800127023681A007149724809688342AED07148DA
S31508001280834250D07048834258D07048834200D178
S315080012907CE06F48834200D16BE06E48834200D100
S315080012A0AFE0490103D51968490700D51FE163492D
S315080012B0086880218904084230D002211868014252
S315080012C02CD01868800602D41868884318605C4BCE
S315080012D09A4264D05B4B9A4263D05B4B9A4200D1E8
S315080012E097E05A4B9A4200D1C4E0594B9A4200D132
S315080012F0D4E0584B9A4200D1E5E0802292044F4B45
S315080013005A60A36B0122A3632523E2540022013B02
S31508001310E254E36A002B01D02000984770BD2806E6
S3150800132000D537E709684A0611D4444A20211068CF
S31508001330444AC0E7280500D52CE709684A0500D5C0
S31508001340E8E03E4A1068404A80218900B3E71A68F7
S315080013505207EAD53B4A1968890600D553E74AE792
S31508001360364A10680221364AA5E7280300D511E750
S3150800137009684A0300D5D5E08021304A89021068F9
S31508001380334A98E7280400D504E709684A0400D5D3
S31508001390BAE02A4A10682D4A802189018BE7022281
S315080013A0ADE72022ABE704210520244A516021310C
S315080013B06054216B0029D4D020008847204D1F494E
S315080013C0236808681A000221AB4200D173E71D4D55
S315080013D01E31AB4200D16EE71B498B42B4D01B4984
S315080013E08B42D9D01A498B4200D18AE08021194D07
S315080013F08904AB4200D05EE708E0280200D5C9E6BA
S3150800140009684A0278D40D4A1068124A802189036D
S3150800141051E78022920072E7802018E740210525CF
S31508001420064841601B396554216B0029C4D1006800
S31508001430202140E78020000309E7C046000002405B
S31508001440080002401C0002403000024044000240EE
S31508001450580002406C00024080213548C9024160AC
S31508001460052525216554216B0029A5D18021006811
S31508001470890220E78022920141E780200001E6E602
S3150800148080212B48C9004160052525216554216B1B
S31508001490002991D18021006889000CE780229202F8
S315080014A02DE780200002D2E680212148C90141604B
S315080014B0052525216554216B002900D07CE780216C
S315080014C000688901F7E68022920318E70004BEE661
S315080014D080211748C9034160052525216554216BDC
S315080014E0002900D068E7802100688903E3E61968C7
S315080014F0890600D583E67EE61A68520783D50D4A23
S3150800150029E780218902D6E61A68520700D440E7FF
S31508001510094A20E71A68520700D412E7074A1AE769
S315080015200968BEE61A68520700D425E7044A12E796
S31508001530000002406C0002404400024030000240B5
S31508001540580002402523C05CC0B27047806B7047C4
S31508001550214B9B69DB0504D50823204A51690B43B7
S3150800156053611D4B9B699B0504D504231B4A51698E
S315080015700B435361184B9B695B0504D50223174A35
S3150800158051690B435361144B9B691B0504D5102302
S31508001590124A51690B4353610F4B9B699B0404D54F
S315080015A001230E4A51690B4353610B4B9B699B03FD
S315080015B004D52023094A51690B435361064B9B699D
S315080015C0DB0304D54023054A51690B435361044A9A
S315080015D0014B9A617047C04600200240B8080020B7
S315080015E0002F03007047C0467047C046354B364A41
S315080015F09B6970B51340354C934224D00223314D74
S31508001600AA69134203D0AB612378002B12D1237841
S31508001610DBB2002B0DD12B4A2D4950680140516091
S3150800162050682C490140516050682B49014051606F
S31508001630237470BD2378012B11D02378022B38D060
S3150800164000232370E3E72378012B27D0E568FFF70B
S315080016507FFF2800FFF7C8FF00232370CEE76368E3
S31508001660013B63606368002B1CD0A068FFF7BAFFD4
S31508001670A368A26880208032A2606968174A800041
S315080016800A4000216A6061616A68803302436A60C1
S315080016900822686802436A601960B8E7023BA568D1
S315080016A0A360D4E701204042A0602370FFF79AFFA9
S315080016B0ADE708226B6893436B60E068FFF792FF1B
S315080016C0BEE7C04600200240002F0300B8080020ED
S315080016D0F7FDFFFFFFFFFEFFFFFFFDFFFFFDFFFF1B
S315080016E0094B01205A68920708D55A68104206D154
S315080016F00020054B054A1A61054A1A617047054AD2
S31508001700DA60054ADA60F3E700200240BFAE9D8C36
S3150800171016151413EFCDAB89050403020223034AF9
S31508001720002051680B4353607047C04600200240B2
S31508001730094B01205A68520708D55A68104206D143
S315080017400020054B054A5A61054A5A617047054A01
S31508001750DA60054ADA60F3E700200240C8D9EAFBF6
S3150800176027262524EFCDAB89050403020423034A63
S31508001770002051680B4353607047C0460020024062
S31508001780014B58697047C046B8080020F8B50400F0
S31508001790FEF7E8FF1A4E0700012501E0631C12D187
S315080017A0B369174A1D42F9D1022391690B4213D135
S315080017B0134B9A69D20502D49A6992050ED5FFF79A
S315080017C0C7FE0120F8BD002C04D0FEF7CBFFC01BD6
S315080017D08442E5D20320F5E79361E9E79A69520561
S315080017E0EDD49A691205EAD49A699204E7D49A69FB
S315080017F09203E4D49B690020DB03E0D4E2E7C04609
S315080018000020024070B50C4C0D00237C1600022007
S31508001810012B00D170BD012308482374FFF7B6FFDA
S31508001820002802D000232374F4E760612E60034881
S31508001830FFF7ACFFF6E7C046B808002050C3000023
S31508001840F8B5114C0600237C0D0017000220012B69
S3150800185000D1F8BD01230D482374FFF797FF002830
S31508001860F7D180210A4B49025A680A4380215A60F7
S315080018705A6889020A435A6002232370E560022ED9
S31508001880E7D160612F60E4E7B808002050C3000084
S315080018900020024000228021054B10B55A61054AF6
S315080018A0C902536804480B435360FFF76FFF10BD26
S315080018B0B80800200020024050C30000002110B5DF
S315080018C08024064BA4005961054B5A6822435A6086
S315080018D008225C6822435A60016010BDB8080020DF
S315080018E00020024070B5040010480D00FFF74EFFB7
S315080018F000280DD10E4B5861230409D0002D0BD1B9
S315080019000C498B68A3439BB2DA43120413438B60DA
S315080019100648FFF73BFF70BD064A93681C43A4B20E
S31508001920E3431B041C439460F2E7C04650C300001F
S31508001930B80800200000F81F70B50B4D06000B48CC
S315080019406C68FFF723FF00280CD12404084B3602E5
S31508001950240C34435861E3431B041C432C6003489E
S31508001960FFF714FF70BDC0460000F81F50C3000003
S31508001970B8080020F0B557464E464546E0B4204F15
S3150800198006003B7C8A460220012B04D11CBC9046EB
S315080019909946A246F0BD01231A483B74FFF7F6FEA6
S315080019A08046031E28D15246013B78611360B3680E
S315080019B07468DB011B199C421ED20823124D9946F6
S315080019C007E07268B3689446DB0180346344A34237
S315080019D012D92000FFF772FF0A48FFF7D7FE4A46DA
S315080019E06B6893436B606A68084B13406B6000280A
S315080019F0E7D0534680461C60002340463B74C5E743
S31508001A00B808002050C3000000200240FFFDFFFF79
S31508001A10F8B5114C0600237C0225012B01D12800BC
S31508001A20F8BD01270D482774FFF7B0FE051EF6D14D
S31508001A3080210B4B49025A680A4380215A605A682A
S31508001A4089020A435A60B3686061706827706360E8
S31508001A50A060FFF733FFE2E7B808002050C3000094
S31508001A6000200240F0B5474680B4454C0500237C6B
S31508001A700220012B0FD001222B68227401381A424A
S31508001A800CD19A0712D45A072AD41A075BD4DB0654
S31508001A9044D40023237404BC9046F0BD6968A86842
S31508001AA0FFF720FF002859D12B68EAE7354F36485B
S31508001AB03B682E7B9846FFF769FE0028E9D1FF238D
S31508001AC042461B021A401643F3431B041E43606139
S31508001AD03E602D48FFF75AFE0028DAD12B68D2E778
S31508001AE00023284EAF7B6361736827489846FFF743
S31508001AF04DFE0028CDD1702342461F40234B60611E
S31508001B001A4013003B43DA431204134373601E481A
S31508001B10FFF73CFE0028BCD12B68B6E7194E1A48D9
S31508001B20EF7B7568FFF732FE0028B2D16D04FF031C
S31508001B306D0C3D43EB431B041D4360617560124801
S31508001B40FFF724FEA5E70F4F0F487B686E7B984684
S31508001B50FFF71CFE002804D02B6898E700222274A1
S31508001B6099E742460A4B60611A401643F3431B0441
S31508001B701E437E600448FFF709FE2B6887E7C046C8
S31508001B80B80800200000F81F50C300008FFF0000AF
S31508001B90F0FF000010B50F24094B04601A6A826032
S31508001BA0DA6902737022D969090C11408173DA69FE
S31508001BB0120C22404273DB69DB0FC37310BDC046AB
S31508001BC00020024003001A6810B50120D20703D589
S31508001BD019799868FFF786FE10BDC0460121044AA8
S31508001BE00160D3691B0A0B400371136A836070474F
S31508001BF00020024010B50120FFF79EFE10BDC0462A
S31508001C0010B50020FFF798FE10BDC046054B012011
S31508001C105A68D20704D50020034ADA60034ADA6014
S31508001C207047C04600200240EFCDAB890504030289
S31508001C300123034A002051680B4353607047C0468E
S31508001C400020024010B504000548FFF79FFD002854
S31508001C5005D1044B586120600148FFF797FD10BD78
S31508001C6050C30000B8080020F8B5124C0500237CC4
S31508001C700F0016000220012B00D1F8BD01230E48E3
S31508001C802374FFF783FD00280BD16061022D0BD06A
S31508001C90012D0BD0002D01D1F6B23E700648FFF794
S31508001CA075FD00232374E8E73E60F7E7B6B23E8089
S31508001CB0F4E7C046B808002050C300008021034A54
S31508001CC0490053680B4353607047C04600200240E2
S31508001CD0024A034B51680B4053607047002002408C
S31508001CE0FFFEFFFFF0B54D4644465F465646F0B444
S31508001CF08946096885B000240022002900D1B3E08E
S31508001D0001239846654B8A469B46654B9C464B463F
S31508001D10019369E0013D012D00D885E00325A54022
S31508001D20ED4303270F40A74006682E403E43066052
S31508001D30C6683540019EB668A6403543C56080250D
S31508001D406D0529424BD05D4646466D6B0F273543D8
S31508001D505E467563534E9508B146AD004D44AE6870
S31508001D60B14603261640B600B74003964E46BE4314
S31508001D700296A026F605B04200D17CE04A4EB04253
S31508001D8000D17AE0494EB04200D17AE0484EB042DE
S31508001D9000D17AE0474EB04200D17AE00626039F8A
S31508001DA0BE40029F3743AF606546DE432D68CF03CA
S31508001DB058D4354067463D607D688F0350D435401A
S31508001DC067467D60BD68CF0248D435406746BD602A
S31508001DD0FD68890240D42B0033406146CB605346E8
S31508001DE001320234D3403FD04346514693400B401C
S31508001DF0F5D00199102649680D00B543022D89D101
S31508001E000F27093E1640B600B740D508AD0045195C
S31508001E1002952D6ABD43019FA9463D69B5402E002E
S31508001E204D462E43029D2E620325A540019FED4394
S31508001E30FF688668A7402E403E434746974086601F
S31508001E404668BE43029646460F09374097403E000D
S31508001E50029F3743476064E72B43BEE71D43B5E758
S31508001E601D43ADE71D43A5E705B03CBC9046994622
S31508001E70A246AB46F0BD002693E74646039FBE4002
S31508001E808FE70226039FBE408BE70326039FBE40CB
S31508001E9087E70526039FBE4083E7C0460010024039
S31508001EA000040140000001400004005000080050F2
S31508001EB0000C0050001C0050F0B55F4656464D46D3
S31508001EC04446F0B4002383B000296CD0012294461E
S31508001ED0023290460C32914603E00A000133DA409A
S31508001EE061D066460D009E403540F6D047465A00FA
S31508001EF09740FA43046814400460DC08A4000719F4
S31508001F0001973F6ABA4607271F40BF00BB464F46A0
S31508001F105C46A740BB4657465C46A7433C00019F24
S31508001F203C6284684F46144084604468B443446005
S31508001F30C4682240284CC260A24644461C40A400FD
S31508001F40A7409A08920052449668BA463E40A0278F
S31508001F50FF05B8422ED0214FB8422DD0204FB842A7
S31508001F602ED0204FB8422FD01F4FB84230D0062768
S31508001F70A7403C00A642B0D15646ED4394680133CB
S31508001F80B4439460194A194C12682A402260626860
S31508001F902A406260A2682A40A260E26815400A00E8
S31508001FA0E560DA409DD103B03CBC90469946A2460E
S31508001FB0AB46F0BD0024DDE76746A7403C00D9E7FD
S31508001FC00227A7403C00D5E74746A7403C00D1E793
S31508001FD00527A7403C00CDE700000140000400505B
S31508001FE000080050000C0050001C0050000401407E
S31508001FF000690840411E8841C0B27047002A01D1D5
S31508002000816270478161FCE74369594041617047C5
S31508002010802382B05B020193019B0B430193019BD2
S31508002020C361C161019BC361C3690193C36901208F
S315080020301B0C984302B070477047C046044B10B556
S315080020405A69104202D05861FFF7F6FF10BDC04624
S31508002050000401408021054B49059A6A0A439A62A1
S31508002060996A034A0A409A627047C04600100240BD
S31508002070FFFFFFEF8021034A490013680B431360F3
S315080020807047C04600700040024A034B11680B4077
S315080020901360704700700040FFFEFFFFE0211A4AF8
S315080020A013688B4301680B431360184B184A596829
S315080020B011405960196811401960D9681140D960F2
S315080020C099680A4080219A60426849020A4202D009
S315080020D0186801431960930305D580200B4940020F
S315080020E04B6803434B60D30705D580200749400258
S315080020F08B6803438B60930705D58021034A490201
S31508002100D3680B43D3607047007000400004014059
S31508002110FFFFFEFF1023024A11680B431360704746
S31508002120007000401021024A13688B431360704701
S3150800213000700040024B5A68104358607047C0460A
S3150800214000700040024A5368834353607047C04694
S315080021500070004010B50324084A1368A3431843C7
S3150800216010600420064A136983431361012903D0CA
S3150800217040BF20BF20BF10BD30BFFCE70070004045
S3150800218000ED00E010B503240B4A1368A343184377
S3150800219004231060094A106903431361012908D012
S315080021A040BF20BF20BF0421044A13698B43136133
S315080021B010BD30BFF7E7C0460070004000ED00E0F4
S315080021C00223054A11680B4313600423034A116965
S315080021D00B43136130BF70470070004000ED00E00C
S315080021E00223024A11690B431361704700ED00E0B0
S315080021F00221024A13698B431361704700ED00E020
S315080022001023024A11690B431361704700ED00E081
S315080022101021024A13698B431361704700ED00E0F1
S315080022207047C04670B58025044C6D0263692B4221
S3150800223002D0FFF7F5FF656170BDC0460004014096
S315080022408021034AC90013680B4313607047C046D0
S3150800225000700040024A034B11680B401360704738
S3150800226000700040FFFBFFFF8021034A89001368C6
S315080022700B4313607047C04600700040024A034B88
S3150800228011680B401360704700700040FFFDFFFFA8
S315080022900122054B19680A4380211A601A68C90188
S315080022A00A431A607047C0460070004010B5124CC9
S315080022B0124B226812491340012223602368934374
S315080022C02360104B186801F073FE32235843002828
S315080022D00BD063689B0608D52200202102E05368CC
S315080022E0194202D001380028F9D10320024B5B6855
S315080022F09B06DB17184010BD00700040FFBFFFFFAC
S3150800230040420F00040000207047C046F0B557460B
S315080023104E464546E0B4036882B00400DA0736D56F
S315080023200C20C849CA680240082A00D159E1CA687F
S3150800233002400C2A00D150E1802361685B02994271
S3150800234000D101E2A022D202914200D192E1BD4D14
S31508002350BD4A286802402A602A6813400193019BF7
S315080023602A68BA4B13402B60002900D08FE1FEF78C
S31508002370F9F980260700B60205E0FEF7F3F9C01B57
S31508002380642800D9AEE12B683342F6D123689A0750
S315080023902CD50C20AB49CA680240042A00D1A7E113
S315080023A0CA6802400C2A00D19EE1E368A54D002BBD
S315080023B000D134E109212A6804278A4313432B6094
S315080023C0FEF7D0F9060005E0FEF7CCF9801B0228D7
S315080023D000D987E12B689B4A1F42F5D021695368CB
S315080023E008029B490B40034353602368DA062CD541
S315080023F00C22944DEB681A4200D1D2E0E369002B17
S3150800240000D1A6E180222B68520013432B60FEF709
S31508002410A9F980260700B60005E0FEF7A3F9C01B58
S31508002420022800D95EE12B68864A3342F5D0516806
S31508002430884B0B40616A0B4353605368216A1B0241
S3150800244009061B0A0B43536023681A0717D56369E5
S315080024507C4D002B00D1CFE001232A6D02261343C1
S315080024602B65FEF77FF9070005E0FEF77BF9C01B31
S31508002470022800D936E12B6D1E42F6D023689A064B
S315080024801FD5A3696F4D002B00D145E10123AA682A
S3150800249071491A43AA606A6B022613436F4A6B6333
S315080024A0136A0B431362FEF75DF9070005E0FEF7B2
S315080024B059F9C01B022800D914E1AB681E42F6D0B0
S315080024C023685B0746D5802200205E4B5205996B30
S315080024D08146114204D1996B0A439A6301239946AE
S315080024E0802600225E4D76002B689246334200D144
S315080024F04FE18022A3685200934200D15BE1002B92
S3150800250000D1D5E0A021C9008B4200D18AE14D4B0C
S31508002510544A196D0A401A65196D534A0A401A65D4
S31508002520FEF720F980258046464EAD004F4F06E05F
S31508002530FEF718F94346C01AB84200D9D2E0336DFF
S315080025402B42F5D05346012B00D116E14B46012B01
S3150800255000D118E1A36A002B1CD00C21394DEA687A
S315080025600A400C2A46D02A68022B00D128E1404BA3
S315080025702C0013402B60FEF7F5F880250600AD0405
S3150800258005E0FEF7EFF8801B022800D9AAE02368C9
S315080025902B42F6D1002002B01CBC90469946A246B2
S315080025A0F0BD2B689B0502D5E369002B22D0254A8E
S315080025B0284B516800200B40616A0B4353605368EF
S315080025C0216A1B0209061B0A0B435360FEF7A8F88B
S315080025D023681A0700D452E739E7CA68D20300D439
S315080025E0AAE6184A1268920300D4D0E66268002A5E
S315080025F000D0CCE60120CEE701222B6D02269343BC
S315080026002B65FEF7AFF8070004E0FEF7ABF8C01B32
S31508002610022867D82B6D1E42F7D123682FE70922B7
S315080026202B68042693432B60FEF79CF8070004E00A
S31508002630FEF798F8C01B022854D82B681E42F7D11B
S315080026402368D3E600100240FFFFFEFFFFFFFBFFF3
S31508002650FFE0FFFFFF1FFFFF012000000000014011
S3150800266000700040FFFEFFFFFFFBFFFF881300001E
S31508002670FFFFFFFE724A734910680140802011600F
S315080026801168C0020143116011680B431360FEF71D
S3150800269069F8802507006A4EAD0204E0FEF762F885
S315080026A0C01B64281ED833682B42F7D023686EE611
S315080026B0634D654B2A6D802613402B652A6D634B47
S315080026C0B60013402B65FEF74DF8614F804605E0CE
S315080026D0FEF748F84346C01AB84203D82B6D334272
S315080026E0F6D12FE7032056E7CA68D20300D55CE681
S315080026F0534A1268520703D5E268012A00D079E7DF
S3150800270021694F4D08026A6852490A4002436A60C5
S31508002710DA0600D499E66BE60122AB6802269343F3
S315080027204D4AAB60116A4D4B0B401362FEF71AF81F
S31508002730070004E0FEF716F8C01B0228D2D8AB68DB
S315080027401E42F7D12368BCE63D4A13681943116057
S315080027509DE72A683C4B802613402B60FEF702F85B
S31508002760B600070004E0FDF7FDFFC01B0228B9D834
S315080027702B683342F7D1236867E6394A324B11682A
S315080027800B401360E2E62E4A364B916B0B4093637F
S31508002790E0E62B6833432B60FDF7E4FF070004E00F
S315080027A0FDF7E0FFC01B64289CD82B683342F7D09E
S315080027B001239A469DE622490A6D13430B65AFE647
S315080027C0294B802713402B60FDF7CCFFBF048046BA
S315080027D005E0FDF7C7FF4346C01A022882D82B68D2
S315080027E0174E3B42F5D1626B216BF3681143E26ADF
S315080027F0802411431D4AA404134080220B43F3602E
S315080028003368520413433360FDF7ACFF050005E057
S31508002810FDF7A8FF401B022800D963E73368234267
S31508002820F6D0B7E6064B0849186D014080201965B1
S31508002830196DC00001431965196D0A431A656FE6DB
S3150800284000100240FFFFFEFFFFFEFFFFFFFBFFFF3A
S3150800285088130000FFE0FFFF00000140FEDFFFFFD6
S3150800286000700040FFFFFFEFFFFFFFFEFFFF02FFC4
S31508002870F8B546464F460C000121554AC0B41368C0
S3150800288006000B40A3420CD213688B432343136004
S31508002890136819408C4204D001200CBC9046994616
S315080028A0F8BD33689A0706D5F0204A49CA688243B4
S315080028B0B0680243CA60DB0728D5464A73681268BF
S315080028C0022B4FD0002B48D0032B7ED05207E3D5DE
S315080028D00321404DEA688A431343EB60FDF742FF44
S315080028E073680700022B40D0032B5ED0002B4CD117
S315080028F00C339846384B994604E0FDF733FFC01B66
S3150800290048452DD84246EB681A42F6D10121304A8D
S3150800291013680B409C4207D813688B432343136004
S31508002920136819408C42B7D133685A0706D5294926
S315080029302A4AC8680240F0680243CA601B0707D5DE
S3150800294024483169C368264AC90013400B43C3604B
S315080029500020FDF7E5FE00209FE79205B8D49BE727
S3150800296003209AE79203B3D496E70A3398461A4B9C
S31508002970994604E0FDF7F6FEC01B4845F0D84246E6
S31508002980EB681340082BF5D1C0E70C239846124B89
S31508002990994604E0FDF7E6FEC01B4845E0D84246E6
S315080029A0EB681340042BF5D1B0E7093398460A4B78
S315080029B0994604E0FDF7D6FEC01B4845D0D84246E6
S315080029C0EB6813400C2BF5D1A0E7920180D463E79E
S315080029D0002002400010024088130000FFF8FFFFA5
S315080029E0FFC7FFFF022370B588B00493013306932F
S315080029F000230C001500059300280AD001281BD0D7
S31508002A00164A174BD1680B401D432C43D46008B0B7
S31508002A1070BD0126114AD16A3143D162D36A079043
S31508002A2033400193019BA020802303A95B00C005C6
S31508002A300393FFF757F9E3E7084AD16A0143D162DE
S31508002A40D26A03A910400290029AA0208022C005EB
S31508002A50920003920793FFF745F9D1E70010024069
S31508002A60FFFFFF808021034A090313680B431360A5
S31508002A707047C046001002400C2110B51C4C636814
S31508002A80E2681B045B0F0A40042A1FD019D9082ADA
S31508002A9015D00C2A15D1E368164AE1689B021B0F6C
S31508002AA0D35C0902E268890F0131D20315D4226882
S31508002AB0D20617D51048584301F07AFA00E00F48B5
S31508002AC010BD8020013300029840F9E72368DB0631
S31508002AD001D50948F4E70A48F2E70848584301F0DF
S31508002AE067FAEDE70648584301F062FAE8E7C04698
S31508002AF000100240A046000800093D0000127A00B6
S31508002B000024F40010B5FFF7B7FF054B054ADB684C
S31508002B101B061B0FD35CD840034B186010BDC0467C
S31508002B2000100240BC4600080400002010B5FFF75C
S31508002B30A3FF0749074ACB681B061B0FD35CD8407F
S31508002B40054B1860CB685B055B0FD35CD84010BD9E
S31508002B5000100240BC4600080400002010B5FFF72C
S31508002B608BFF0749074ACB681B061B0FD35CD84067
S31508002B70054B1860CB689B045B0FD35CD84010BD2F
S31508002B8000100240BC460008040000203F230360F2
S31508002B90364B1A68520343D5A023DB024360334BF6
S31508002BA01A6880235B00134046D00123C3612F4A6D
S31508002BB013681B0E036253681B045B0F436293681A
S31508002BC0012213404BD082610122284B1B68134017
S31508002BD043D0C260254A5368DB04DB0E0361136DDC
S31508002BE05B0533D5A023DB00836001221F4B1B6DD9
S31508002BF0134023D01D4B42611B68DB0123D40123FC
S31508002C0083628023194A5B02D1680B40C362D3688A
S31508002C109B021B0F0363D3681B029B0F436370471A
S31508002C2080221B68520213401DD0104B42601A685E
S31508002C3080235B001340B8D1C361B8E743610B4BEF
S31508002C401B68DB01DBD502238362DAE7136D80227A
S31508002C505200134005D08260C7E7C360BAE78361B4
S31508002C60B2E78360C1E7436099E7C04600100240B7
S31508002C700F2310B503240C4A0360D368234043602E
S31508002C80D368ED3423408360E023D468DB001C401E
S31508002C90C460D268D208134001220361034B1B6843
S31508002CA013400B6010BDC0460010024000200240D1
S31508002CB07047C04670B58025044C6D0063692B4289
S31508002CC002D0FFF7F5FFA56170BDC04600100240AF
S31508002CD080210C4B49001A6882B00A431A601968A9
S31508002CE0094A0A401A608022196852020A4001926B
S31508002CF0019A1968054A0A401A600022DA601A61C0
S31508002D0002B0704700100240F4FFF6FEFFFFFBFF1B
S31508002D10F0B54746036880B407009A0650D543695C
S31508002D20C020554980030A685A40024205D0C0228D
S31508002D3092021340934200D17EE0802180254E4ABC
S31508002D404905936B4D4C0B43936323686D002B43E6
S31508002D502360FDF707FD060004E0FDF703FD801B71
S31508002D60642867D823682B42F7D0C021424C7A6979
S31508002D70236D890253400B4221D08025206D216D99
S31508002D802D0329432165256D3D493E4B2940802564
S31508002D900340AD0021652365284253D1C0211300A5
S31508002DA089020B408B425DD03349374A0868024096
S31508002DB00A603149334A086D024013430B653B6884
S31508002DC0DA0706D503202C49CA6C82437868024381
S31508002DD0CA649A0706D50C202749CA6C8243B86884
S31508002DE00243CA645A0706D52349284AC86C0240D2
S31508002DF0F8680243CA641A0706D51F49244AC86CEC
S31508002E00024038690243CA645A0606D51A49214A55
S31508002E10C86C0240B8690243CA6400201B0606D57E
S31508002E2015491D4BCA6C1340FA691343CB6404BC9D
S31508002E309046F0BD0320FAE70B6801209B0300D4F7
S31508002E407BE7F4E7FDF78EFC144B0600984604E092
S31508002E50FDF788FC801B4045ECD8236D2B42F7D044
S31508002E607A699BE7044C084920680840C021890311
S31508002E700A40024322609CE70010024000700040AE
S31508002E80FFFFF7FFFFFFFCFFFFFFCFFFFFF3FFFF8B
S31508002E90FFCFFFFFFFFFFFFBFFFFF3FF88130000D5
S31508002EA0EF2303210360114BDA6C0A404260DA6CA7
S31508002EB009310A408260C022D96C12010A40C260F8
S31508002EC0C022D96C92010A400261C022D96C120351
S31508002ED00A40C261C022196D92020A404261DA6C48
S31508002EE08023DB04134083617047C046001002400C
S31508002EF010B5402813D8614B80001B589F46C02345
S31508002F005F4A9B01D16C0B4064D0802189018B42BA
S31508002F1000D187E080225201934200D192E000203E
S31508002F2010BD8021564AC904D36C0B4000D07FE0FF
S31508002F30136800209B01F3D5D3685248D1689B02D9
S31508002F401B0FC35C0902D068890F0131C00300D585
S31508002F508AE01268D20600D588E04B48584301F04B
S31508002F6027F8DDE70321464AD36C0B4079D0022BBC
S31508002F7058D0012B66D00020032BD1D1106D8005C7
S31508002F80C00FC003CCE70C213D4AD36C0B4021D0BF
S31508002F90082B47D0042B55D000200C2BC0D1EDE7C9
S31508002FA0C02237491201CB6C134013D08020000190
S31508002FB0834250D08020C000834243D000209342F1
S31508002FC0AED1086D8005C00FC003A9E72C4B9B6BDB
S31508002FD05B02A4D5FFF7AAFDA2E7C0218020284AF4
S31508002FE08902136D40020B408342C7D08024A40295
S31508002FF0A3422AD000208B4200D091E713682342CF
S3150800300000D18DE71368C0228021920313408903FB
S315080030108B4231D093422DD080225203934227D03F
S315080030201A487DE713685B0700D478E7164877E700
S3150800303000208B4200D073E793689B0700D46FE7A4
S3150800304013486DE7FFF718FD6AE7136D9B0700D471
S3150800305065E7104864E70B685B0700D45FE70A4832
S315080030605EE7FFF77BFD5BE70B4877E7074875E701
S315080030700A4855E70A4853E70A4851E7CC46000884
S3150800308000100240A04600080024F40000093D0094
S31508003090006CDC028890000000127A0080841E0012
S315080030A020A1070040420F008021034A8901136DC1
S315080030B00B4313657047C04600100240044B054A8F
S315080030C0196D0A4080211A651A698A431A61704780
S315080030D000100240FFDFFFFF8021094B89011A6DAE
S315080030E080200A431A658022196900030A431A6177
S315080030F0044B1968014319609A6802439A6070473D
S3150800310000100240000401407047C04670B5802593
S31508003110034C63691D4202D0FFF7F6FFA56170BD37
S315080031200010024080211C4B09059A6A0A439A62DC
S31508003130996A1A4A0A409A62194B1A4A59680A4001
S315080031405A605A6801680A435A605A6841680A43CD
S315080031505A605A6881680A435A605A68120E1206FB
S315080031605A605A68C1680A435A6001695A6809046C
S315080031700A435A6019680C4A0A401A604269196873
S3150800318012020A431A60402219680A431A6020226A
S3150800319019680A431A60704700100240FFFFFFF7DC
S315080031A0006C0040FFFFFF48FFC0FFFF8023024A74
S315080031B011680B4313607047006C0040084A536857
S315080031C01B041B0C036013689B049B0E43609368E7
S315080031D01B0C8360802392681B021340C3607047F0
S315080031E0006C0040F0B5474680B40600FDF7BAFA11
S315080031F0234C8046012702250CE01023E268184379
S315080032000C3B1343E360A3681B0736D50823E3602A
S31508003210002832D1731C26D00120002E25D1A368A0
S315080032201F4201D02843E760A3681D4202D0042349
S31508003230E5601843A3685B0505D52023E2681843B3
S315080032401C3B1343E360A368DB0505D50823E26846
S315080032501843043B1343E360A3689B05CDD4A368D6
S315080032601B07D5D5D2E70020D9E7FDF77BFA4346F9
S31508003270C01A864280414042D1E704BC9046F0BD60
S31508003280006C0040024A0349136A0B4313627047F5
S315080032900000014001200000024A034B116A0B405E
S315080032A01362704700000140FEDFFFFFF8B5060015
S315080032B00C001500FDF756FA0700326801E06B1C92
S315080032C005D1D36923409C42F9D10020F8BD002DD1
S315080032D005D0FDF747FAC01B8542EED23268802139
S315080032E0136803208B431360136860398B4313609C
S315080032F01168064B0B400121136093688B4393605A
S3150800330041230022F154013BF254DFE7FFFEFFFFA1
S315080033107047C04670B5051E00D199E04123C35CCD
S31508003320DBB2002B54D0022241232C68EA542368CE
S31508003330013A29699343AA6823600A43802109024E
S315080033400A43696923681143494A13400B432360BA
S31508003350EA69AB69296A1343802212011343EA68B2
S31508003360194311436368434A13400B436360424B56
S315080033709C424BD0414B9C4200D16BE0FFF7D6FBF9
S315080033804000696800F014FE2C6880B20F2203071B
S315080033905B0F90431843E0606268394B13402A225A
S315080033A06360A3689343A3600123226813432360E1
S315080033B000236B6423681B071DD423685B070CD4A2
S315080033C0002240230020EA5401320133EA5470BD3A
S315080033D040228354FFF79CFFA5E7FA22802192003A
S315080033E0C9032800FFF762FF0028E9D0032241231A
S315080033F00320EA54EBE7FA22802192008903280089
S31508003400FFF754FF0028F1D12C68D6E703221D4B9D
S31508003410DB6C13401C4A9B009B58082B16D81B4A8A
S315080034209B00D3589F4680206968400200F0C0FD83
S3150800343080B2ABE7FFF720FBA2E76968144800F003
S31508003440B7FD80B2A2E7FFF789FB99E70023E3609F
S315080034500120BCE70C220B4BDB6C1340043B082B0A
S3150800346000D98BE7084A9B00D3181B69D5E7C046E5
S31508003470F369FFEFFFC0FFFF00380140004400403A
S31508003480FFBFFFFF00100240F4470008D0470008BE
S315080034900048E8017047C04670B5041E0FD04126A3
S315080034A002230025835503681D605D609D60FFF754
S315080034B0F1FF402300206564A555E55470BD012041
S315080034C0FCE7C046F0B547460D00412180B41E0012
S315080034D0435C0400DBB20220012B02D004BC9046F8
S315080034E0F0BD002D45D00138002AF7D03F30804680
S315080034F0205C844667460220012FEFD040462354BD
S31508003500002380276364123363547F012285628512
S31508003510638D002B14D0638D3200013B9BB263850B
S3150800352080212000FFF7C2FE002810D1A368BB4205
S3150800353015D023682A7801359A62638D002BEAD163
S31508003540320040212000FFF7B1FE002801D00320F9
S31508003550C4E741230122E254013BE054BEE7236954
S31508003560002BE6D12B882268DB05DB0D936202353A
S31508003570CEE70120B2E7C046F8B546464F460D00ED
S315080035804121C0B41E00435C0400DBB20220012BBB
S3150800359003D00CBC90469946F8BD002D62D0013880
S315080035A0002AF6D03F308046205C844667460220D3
S315080035B0012FEED04046235400236364223363541C
S315080035C0228662868022A3685201934250D0002B3D
S315080035D041D12369002B47D07F239846A3868023B1
S315080035E05B01FF279946638E9BB2002B20D0638E22
S315080035F03200013B9BB2638680212000FFF756FE0E
S31508003600002826D1236832009F6220212000FFF778
S315080036104DFE00281DD1A3684B4510D042462368AD
S315080036205B6A13402B70638E01359BB2002BDED18B
S3150800363041220121A154013AA3540020A9E7236994
S31508003640002BEBD1424623685B6A13402B80023578
S31508003650C9E703209DE78022520593420FD0A38E27
S315080036609846BCE7012094E7FF23A3869846B6E769
S315080036702369002BF8D1054BA3869846AFE7236943
S31508003680002BA9D03F23A3869846A8E7FF01000090
S31508003690F0B547460D00412180B41600425C04008F
S315080036A0D2B20220012A02D004BC9046F0BD002DF9
S315080036B06DD0002E6BD00138002BF5D03F308046F8
S315080036C0205C844667460220012FEDD040462254EE
S315080036D0002262642232625480226385238623850F
S315080036E06386A368520193425FD0002B53D12369A6
S315080036F0002B56D07F237F27A38680235B0198461D
S31508003700638D9BB2002B29D0638D069A013B9BB231
S315080037106385638E8021013B9BB263862000FFF799
S31508003720C5FD002835D1A36843451ED02B782268ED
S315080037303B4093620135069A20212000FFF7B6FD2B
S31508003740002826D1A368434518D023685B6A3B4006
S315080037503370638D01369BB2002BD5D141220121EE
S31508003760A154013AA35400209EE72369002BDDD11A
S315080037702B8822683B4093620235DCE72369002BDD
S31508003780E3D123685B6A3B4033800236B8E7012001
S315080037908AE7032088E78022520593420BD0A78E3A
S315080037A0ABE7FF23FF27A386A7E72369002BF8D1FA
S315080037B0044FA786A1E72369002B9BD03F233F2709
S315080037C0A3869AE7FF01000070B54124055D030052
S315080037D00220012D00D070BD002916D00138002A1C
S315080037E0F9D03F355E5D0130012EF4D05A85596215
S315080037F01A85122100225A6419555A551A688023C7
S31508003800116800200B431360E5E70120E3E7C04693
S31508003810412370B5C35C0224DBB2012B01D0200022
S3150800382070BD00293AD0013C002AF8D04025465DF3
S315080038300134012EF3D043550286428680228368DE
S31508003840C162520193422BD0002B1DD10369002B74
S3150800385044D1FF33838600212222412380244164F8
S31508003860C254036864001A6822431A6001229C68DD
S3150800387022439A6020221C6822431A6040228154FF
S31508003880BF329A620024CAE7802252059342E2D1E7
S315080038900369002B22D03F238386DCE70124BEE799
S315080038A00369002B1DD1104B838600212222412358
S315080038B080244164C254036864001A6822431A606B
S315080038C001229C6822439A6020221C6822431A60BF
S315080038D040228154044A00249A62A0E77F23838603
S315080038E0B9E7FF238386E0E7FF010000F0B541242E
S315080038F0045D0225E4B2012C01D02800F0BD0029A0
S3150800390037D0002A35D0013D002BF6D04026875DFA
S315080039100135012FF1D08455C26280224386038681
S3150800392003854385836841625201934230D0002B58
S3150800393021D10369002B28D07F23838600213222D8
S3150800394041234164C2540368123A1C680025224385
S3150800395080241A601A68640022431A6001229C684F
S3150800396022439A6040228154196840320A431A60F9
S31508003970C3E70125C1E7802252059342DED10369D8
S31508003980002BD9D03F238386D8E7FF238386D5E744
S315080039900369002BF9D1014B8386CFE7FF010000AD
S315080039A0F8B54126845D0500E4B20220012C00D05A
S315080039B0F8BD002925D00138002AF9D04027EB5D4B
S315080039C00130012BF4D0EC55122300246A85696274
S315080039D02A856C64A86BAB550B4B2E68C3620B4BE0
S315080039E0283603630A4B436313003200FDF704FAD3
S315080039F080222B6800201F6299680A439A60EC555A
S31508003A00D6E70120D4E7C046ED3B0008313C000864
S31508003A10993D0008F0B547461600412280B4835CFC
S31508003A200400DBB20D000220012B02D004BC904634
S31508003A30F0BD002933D00138002EF7D04027E15DCC
S31508003A4001300129F2D0E3550023636498462233F6
S31508003A50E562268665622685E06BA354114B2168CC
S31508003A60C362114B24310363104B2A0043633300AE
S31508003A70FDF7C2F92268330028322900A06BFDF74A
S31508003A80BBF90822236800201A629A683A439A60AA
S31508003A90802299680A439A604346E355C6E701209F
S31508003AA0C4E7C046553C0008453C0008993D000857
S31508003AB0F8B546464F46C0B40E0041211D00435C8A
S31508003AC00400DBB20220012B03D00CBC90469946B9
S31508003AD0F8BD002E42D0002A40D00138002DF4D07F
S31508003AE03F308146205C844667460220012FECD091
S31508003AF0484623540023636498463233E262258697
S31508003B0066622585E06B6354154B1649C362164BEE
S31508003B100363A36BD9621549196315495963416350
S31508003B2021682B002431FDF767F922682B0028321B
S31508003B303100A06BFDF760F90822236849461A622E
S31508003B404A461A629A6800200A439A60802299684F
S31508003B500A439A6043464A46A354B6E70120B4E7A7
S31508003B60553C0008ED3B0008453C0008313C000880
S31508003B70993D0008402210B5815C03000220012906
S31508003B8007D0802418688168A1438160002100203D
S31508003B90995410BD402210B5815C0300022001290A
S31508003BA007D080211868846821438160002100209D
S31508003BB0995410BD10B50400806B002801D0FDF79C
S31508003BC045F9E06B002801D0FDF740F9802123680C
S31508003BD000209A688A439A609A6840398A439A60AC
S31508003BE001224123E25410BD7047C04620210368D4
S31508003BF010B51B68826A0B4005D153854133D35CE7
S31508003C00122B08D010BD4123D35C122BFAD1100019
S31508003C10FFF7EAFFF6E7136860319A688A439A6005
S31508003C20402219680A431A60ECE7C0467047C04646
S31508003C3010B5806AFFF7FAFF10BDC0467047C04648
S31508003C407047C04610B5806AFFF7FAFF10BDC04638
S31508003C507047C0462021036810B51B68826A0B406E
S31508003C6013D153862131535C222B16D04024136876
S31508003C709868A043986098684034A04398600123E8
S31508003C8010005354FFF7E4FF06E04123D35C10000D
S31508003C90222B0DD0FFF7DCFF10BD40241068836887
S31508003CA0A3438360012310005354FFF7C7FFF3E7CC
S31508003CB0FFF7C4FFF0E7C046412310B5C25C3F3B9F
S31508003CC0322A01D0180010BD438D818E002B19D0E1
S31508003CD00268D3695B0615D5802384685B019C421C
S31508003CE04BD0436A5C1C44621B780B409362438D3D
S31508003CF0013B9BB24385438D002B03D18024136877
S31508003D00A3431360438E002B12D00368DA69920628
S31508003D100ED5802284685201944224D0C26A5B6A16
S31508003D20541C1940C4621170438E013B9BB24386F2
S31508003D30438E002B04D040230022C2540023C1E73F
S31508003D40202103681A688A431A601968104A0A40CB
S31508003D5001211A609A688A439A604123C154FFF781
S31508003D6077FF0023AEE70269002AD7D15B6AC26AE9
S31508003D70194011800232C262D6E70369002BB0D11E
S31508003D80436A1C8802330C4094624362AFE7C0461C
S31508003D90FFFEFFFF7047C0460023806A10B54386C2
S31508003DA04385426C10331343436401224123C254B2
S31508003DB0FFF7F0FF10BDC0460122036810B5D969A8
S31508003DC004000A4202D01968C90560D40222D969DA
S31508003DD00A4203D001219868014250D10422D969C8
S31508003DE00A4203D001219868014240D10822D969C4
S31508003DF00A4203D00121986801422AD1626C002A3E
S31508003E0030D12022D9690A4202D019680A4217D14C
S31508003E108022D9690A4202D019680A4207D140228B
S31508003E20D9690A4202D019680A4237D110BD412120
S31508003E30605C122874D02000FFF73EFF2368EEE787
S31508003E402132A15C222936D02000FFF735FF2368EE
S31508003E50DEE71A62606C024362644122A154626C16
S31508003E60002ACED02000FFF795FF2368C9E71A621B
S31508003E70606C023A024362644122A154B6E71A62B0
S31508003E80606C0232024362644122A154A6E71A62B8
S31508003E90416C114341644121425497E71968200057
S31508003EA09143196001219A688A439A604123E15433
S31508003EB0FFF79AFEBAE7A25C222AA9D18022A06857
S31508003EC0A18E5201904249D0E26A5B6A501C0B40AF
S31508003ED0E06213702368FF229A62628E013A92B2F8
S31508003EE06286002A00D093E7274A20212000FFF7A0
S31508003EF0DDF92368002800D08AE720211A68200007
S31508003F008A431A601968214A0A4001211A609A6888
S31508003F108A439A604123E154FFF790FE236877E7C6
S31508003F20615C122900D07AE7618D00290ED08022C3
S31508003F30A168520191421BD0626A511C61621278D3
S31508003F409A62628D013A92B2628568E7196891436E
S31508003F504022196019680A431A6060E72269002A34
S31508003F60B2D1586AE26A014011800232E262B2E7CF
S31508003F702269002AE0D1616A0A880231D205D20D87
S31508003F809A626162DDE7C046F0550000FFFEFFFF5A
S31508003F904123C05CC0B27047406C70474448000873
S31508003FA0000000203404002038040020D008002037
S31508003FB0002243088B4274D303098B425FD3030A5A
S31508003FC08B4244D3030B8B4228D3030C8B420DD36D
S31508003FD0FF22090212BA030C8B4202D312120902FB
S31508003FE065D0030B8B4219D300E0090AC30B8B4239
S31508003FF001D3CB03C01A5241830B8B4201D38B03E7
S31508004000C01A5241430B8B4201D34B03C01A52418B
S31508004010030B8B4201D30B03C01A5241C30A8B42CE
S3150800402001D3CB02C01A5241830A8B4201D38B02B9
S31508004030C01A5241430A8B4201D34B02C01A52415D
S31508004040030A8B4201D30B02C01A5241CDD2C309CF
S315080040508B4201D3CB01C01A524183098B4201D34B
S315080040608B01C01A524143098B4201D34B01C01A36
S31508004070524103098B4201D30B01C01A5241C308AE
S315080040808B4201D3CB00C01A524183088B4201D31D
S315080040908B00C01A524143088B4201D34B00C01A09
S315080040A05241411A00D20146524110467047FFE775
S315080040B001B5002000F006F802BDC0460029F7D079
S315080040C076E770477047C04610B50021040000F037
S315080040D081F8044B1868C36B002B00D09847200062
S315080040E000F002FA2C48000870B50D4E0D4D00245C
S315080040F0AD1BAD1005D0A300F35801349847A5426F
S31508004100F9D100F0F5F9084E084D0024AD1BAD10A5
S3150800411005D0A300F35801349847A542F9D170BDDC
S315080041203848000838480008384800084048000859
S3150800413070B583073FD0541E002A3BD0CEB2030089
S31508004140032503E0621E002C34D0140001335A1EE6
S3150800415016702B42F6D1032C24D9FF250D402A02CE
S3150800416015432A0415430F2C11D92600103E36098B
S31508004170013636011A009B19156055609560D560A1
S3150800418010329342F8D10F221440032C0AD9261F65
S31508004190B6080136B6001A009B1920C29342FCD114
S315080041A003221440002C05D0C9B21C19197001331A
S315080041B09C42FBD170BD14000300CCE7034B10B53D
S315080041C0002B02D0024800F083F810BD0000000062
S315080041D0E1420008F0B55F4656464D464446F0B4FF
S315080041E00F00394B85B01B68019002934933FF33A2
S315080041F00393A422029B52009E58002E4ED0039B86
S315080042009946C4235B00984604339A467468B044BA
S31508004210A5007519B244013C08D52DE06B1DFF3386
S315080042201B689F4204D0043D013C25D3002FF5D1DD
S3150800423073686A68013BA34239D000236B60002A81
S31508004240F1D0736841469B460123A3400968194289
S315080042502BD05146096819422BD12B008433196893
S315080042600198904773685B45C3D14B461B68B342B8
S31508004270BFD1043D013CD9D2144B002B0ED0736834
S31508004280002B1BD13368002B1CD04A463000136024
S3150800429000E000BF4B461E68002EB2D105B03CBCFC
S315080042A090469946A246AB46F0BD9047DAE7746059
S315080042B0C5E72B00843318689047D3E73368B146BF
S315080042C01E00E9E70023FAE72C4800080000000072
S315080042D010B5010000230022002000F01BF810BDD5
S315080042E070B5094B094CE41AA41009D0084AA51858
S315080042F0AD00ED182B68013C9847043D002CF9D118
S3150800430000F0FCF870BDC046404800084448000864
S31508004310FFFFFF3FF8B544465F4656464D469B4667
S315080043202F4BF0B41C68A4235B000500E0580E0070
S31508004330904600284BD043681F2B0DDC5C1C002DD3
S3150800434021D102339B0044601E5000203CBC90469D
S315080043509946A246AB46F8BD224B002B3CD0C82056
S31508004360400000E000BF002836D0A42200235200F7
S31508004370A15843600160A0504032835004328350F4
S315080043800124002DDDD09A009146814442468821B9
S315080043904F467A50C4225200904680444246873996
S315080043A0994012688A460A43944642466146116015
S315080043B0842249465F4652008F50022DC1D1020021
S315080043C055468D32FF3211680D431560B9E7200056
S315080043D04D30FF30E050AEE701204042B6E7C04618
S315080043E02C4800080000000010B582B0FCF79EF8C3
S315080043F0FBF7D2FEFBF754FF0320FBF781FF0020F3
S31508004400FBF77EFF0020FBF77BFF0020FBF778FF1A
S315080044100020FBF775FF0020FBF772FF0020FBF773
S315080044206FFF0020FBF76CFF0020FBF769FF0220F7
S31508004430FBF766FF0020FBF763FF0020FBF760FF32
S315080044400020FBF75DFF0020FBF75AFF0020FBF773
S3150800445057FF0020FBF754FF0020FBF751FF002011
S31508004460FBF74EFF0020FBF74BFF0020FBF748FF4A
S315080044700120FBF745FF064CFBF7D6FFFBF74EFF7F
S315080044802368643301932268019B9A42FBD3F3E7BE
S31508004490840500200D488546002103E00C4B5B5837
S315080044A0435004310B480C4B42189A42F6D30B4A38
S315080044B002E0002313600432094B9A42F9D3FCF751
S315080044C09FF8FFF711FEFFF78FFFFEE70020002099
S315080044D04448000800000020340400203804002066
S315080044E0D0080020FEE70000FEE7C04600000000F6
S315080044F0F8B5C046F8BC08BC9E467047F8B5C04635
S30D08004500F8BC08BC9E46704792
S3150800450836498B69DB070BD5354B012001E0002BB3
S315080045185CD08A69013B1042F9D10320002B54D09C
S315080045282E4B9A69920412D49A69D2050FD49A69BD
S3150800453892050CD49A69120509D49A69520506D4C3
S315080045489A69920303D49B690020DB033DD5234B64
S315080045589B69DB0504D50823224A51690B43536135
S315080045681E4B9B699B0504D504231E4A51690B43B8
S3150800457853611A4B9B695B0504D50223194A51698D
S315080045880B435361154B9B691B0504D51023154A24
S3150800459851690B435361114B9B699B0404D501234D
S315080045A8104A51690B4353610C4B9B699B030FD403
S315080045B80A4B9B69DB0304D540230A4A51690B4316
S315080045C853610120084A054B9A6170470320FCE7A6
S315080045D82023044A51690B435361E9E70020024046
S315080045E850C30000B8080020002F030070B5050066
S315080045F80C00FFF785FF00281CD180210E4BC90047
S315080046085A680A435A60082259680A435A6072B6B1
S315080046182200403208CC2B609442FBD162B6FFF7E1
S315080046286FFF0821044B5A688A435A605968034A37
S315080046380A405A6070BDC04600200240FFFBFFFFD3
S31508004648054B064A00209A60054A9A60102219689E
S315080046580A431A607047C0460020024037261504E8
S31508004668FDFCFBFA1021054B054A00209A60054A0D
S315080046789A601A688A431A607047C0460020024042
S3150800468837261504FDFCFBFA024B5B69036000201C
S30D080046987047C046B80800206F
S315080046A0030406080C101820300000000000000063
S315080046B000000000010203040607080900000000C4
S315080046C00102030401020304060708091E2F000855
S315080046D0642F0008862F00081E2F0008A02F000848
S315080046E01E2F00081E2F00081E2F0008FE2E000889
S315080046F01E2F00081E2F00081E2F00081E2F000858
S315080047001E2F00081E2F00081E2F0008CC2F000899
S315080047101E2F00081E2F00081E2F00081E2F000837
S315080047201E2F00081E2F00081E2F00081E2F000827
S315080047301E2F00081E2F00081E2F00081E2F000817
S315080047401E2F00081E2F00081E2F0008DA2F00084B
S315080047501E2F00081E2F00081E2F00081E2F0008F7
S315080047601E2F00081E2F00081E2F00081E2F0008E7
S315080047701E2F00081E2F00081E2F00081E2F0008D7
S315080047801E2F00081E2F00081E2F00081E2F0008C7
S315080047901E2F00081E2F00081E2F00081E2F0008B7
S315080047A01E2F00081E2F00081E2F00081E2F0008A7
S315080047B01E2F00081E2F00081E2F00081E2F000897
S315080047C01E2F00081E2F00081E2F0008222F000883
S315080047D07C330008463400083A3400084C34000894
S315080047E0343400084C3400084C3400084C340008B3
S315080047F02634000801000000040000000200000042
S31508004800080000000400000000000000000000008E
S315080048100000000002000000000000000000000088
S315080048200000000008000000430000000800002007
S30D08004830F0B8FF7F010000004B
S30D08004838BD410008E900000873
S30908004840C10000089D
S315080048440000000080841E0000000000F40200201E
S315080048545C030020C40300200000000000000000E0
S315080048640000000000000000000000000000000036
S3150800487400000000000000000000000028480008AE
S315080048840000000000000000000000000000000016
S315080048940000000000000000000000000000000006
S315080048A400000000000000000000000000000000F6
S315080048B400000000000000000000000000000000E6
S315080048C400000000000000000000000000000000D6
S315080048D400000000000000000000000000000000C6
S315080048E400000000000000000000000000000000B6
S315080048F401000000000000000E33CDAB34126DE653
S31508004904ECDE05000B0000000000000000000000BB
S315080049140000000000000000000000000000000085
S315080049240000000000000000000000000000000075
S315080049340000000000000000000000000000000065
S315080049440000000000000000000000000000000055
S30908004C740800002006
S30908004C78000000002A
S7050800449519
