:0C800000F8B5C046F8BC08BC9E467047AE
:10800C0010B50021041C00F0EDF8044B1868C36B8C
:10801C00002B00D09847201C12F076F9A8A501007F
:10802C0008B5034B002B02D0024800F05FF908BDE5
:10803C00000000000983000010B5064C2378002BCB
:10804C0007D1054B002B02D0044800E000BF0123F0
:10805C00237010BD082C020000000000BCA701001A
:10806C0008B5084B002B03D00748084900E000BFB7
:10807C0007480368002B00D108BD064B002BFBD032
:10808C009847F9E700000000BCA701000C2C020087
:10809C00CC27020000000000164B002B00D1144B23
:1080AC009D46402292029A1A924600218B460F4618
:1080BC001348144A121A00F04FF80F4B002B00D043
:1080CC0098470E4B002B00D098470020002104004D
:1080DC000D000D48002802D00C4800F007F900F004
:1080EC0017F82000290000F031FAFFF789FFC0468D
:1080FC00000008000000000000000000000000006C
:10810C00082C0200B4320200F9820000098300003E
:10811C0070B50D4E0D4D0024AD1BAD1005D0A30058
:10812C00F35801349847A542F9D1FFF763FF084E85
:10813C00084D0024AD1BAD1005D0A300F35801343D
:10814C009847A542F9D170BDC0270200C027020094
:10815C00C0270200C827020070B583073FD0541E09
:10816C00002A3BD0CEB2031C032503E0621E002C78
:10817C0034D0141C01335A1E16702B42F6D1032C2A
:10818C0024D9FF250D402A0215432A0415430F2C30
:10819C0011D9261C103E3609013636011A1C9B19C2
:1081AC00156055609560D56010329342F8D10F225E
:1081BC001440032C0AD9261FB6080136B6001A1C27
:1081CC009B1920C29342FCD103221440002C05D0F1
:1081DC00C9B21C1919700133A342FBD170BD141C18
:1081EC00031CCCE7F0B556465F464D464446F0B40A
:1081FC000E1C3C4B87B01B68019003934933FF3333
:10820C000493A422039B52009F58002F4CD0049B34
:10821C00984600239B46C4235B009C46BC446346A3
:10822C000293C6235B009A467C68BA44A5007D196C
:10823C00013C08D526E06B1DFF331B68B34204D00C
:10824C00043D013C1ED3002EF5D17B686A68013BCE
:10825C00A3423AD05B466B60002AF1D07B6802994E
:10826C0099460123A34009680591194223D19047EF
:10827C007B684B45C5D143461B68BB42C1D1043D0D
:10828C00013CE0D2184B002B0ED07B68002B23D185
:10829C003B68002B24D04246381C136000E000BF22
:1082AC0043461F68002FB6D107B03CBC9046994698
:1082BC00A246AB46F0BD51460968194207D12B1CAA
:1082CC008433196801989047D2E77C60C4E72B1C73
:1082DC00843318689047CBE73B68B8461F1CE1E72E
:1082EC000023FAE7A8A501000000000008B5011C56
:1082FC0000220020002300F01BF808BD38B5094B04
:10830C00094CE41AA41009D0084AA518AD00ED18C0
:10831C002B68013C9847043D002CF9D112F036F93A
:10832C0038BDC046C8270200CC270200FFFFFF3F24
:10833C00F8B544465F4656464D469B462F4BF0B427
:10834C001C68A4235B00051CE0580E1C90460028FA
:10835C004BD043681F2B0DDC5C1C002D21D102334C
:10836C009B0044601E5000203CBC90469946A2469F
:10837C00AB46F8BD224B002B3CD0C820400000E09F
:10838C0000BF002836D0A42200235200A15843601D
:10839C000160A05040328350043283500124002DE0
:1083AC00DDD09A0091468144424688214F467A504E
:1083BC00C422520090468044424687399940126844
:1083CC008A460A43944642466146116084224946D5
:1083DC005F4652008F50022DC1D1021C55468D3282
:1083EC00FF3211680D431560B9E7201C4D30FF308A
:1083FC00E050AEE701204042B6E7C046A8A5010018
:10840C000000000080B584B000AF78600E23FB182C
:10841C0000221A801FE00123BB6011E00E23FB1821
:10842C001B889B007A68D3181B68BA68134002D06B
:10843C0000F038F801E000F051F8BB685B00BB605D
:10844C00BB68094A9342E9D90E23FB181A880E23FC
:10845C00FB1801321A800E23FB181B88952BDAD9D6
:10846C00BD4604B080BDC046FFFFFF0080B584B0A0
:10847C0000AF78600123FB600BE07B68FA68134067
:10848C0002D000F00FF801E000F028F8FB685B0068
:10849C00FB60FB68024A9342EFD9BD4604B080BD35
:1084AC00FFFFFF0080B500AFC046C046C046C046C7
:1084BC00C046094B181C2021012203F0C1F9C0460B
:1084CC00C046C046C046C046034B181C20210022A3
:1084DC0003F0B6F9BD4680BD0004005080B500AF76
:1084EC00C046C046C046C046C046094B181C202199
:1084FC00012203F0A5F9C046C046C046C046C0469E
:10850C00034B181C2021002203F09AF9BD4680BDB4
:10851C000004005080B500AFC046C046C046C046FF
:10852C00C046094B181C2021012203F089F9C046D2
:10853C00C046C046C046C046034B181C2021002232
:10854C0003F07EF9BD4680BD0004005080B500AF3D
:10855C0000F0E4FC00F00CF800F06AF9034B181C76
:10856C00FFF784FF642000F04FFDF7E75555555594
:10857C0080B59CB000AF3D4B3C4A926B80214905C5
:10858C000A439A633A4B3A4A12683A490A408021A4
:10859C0009010A431A603823FB1822221A60382377
:1085AC00FB180122DA603823FB1810221A613823D9
:1085BC00FB1801229A613823FB1802229A62382395
:1085CC00FB180022DA623823FB188022D2021A63CD
:1085DC003823FB188022D2035A633823FB18181C4B
:1085EC0009F042FD2423FB180F221A602423FB18E8
:1085FC0003225A602423FB1800229A602423FB18C0
:10860C000022DA602423FB1800221A612423FB18B1
:10861C00181C01210AF0A6F83B1D43221A603B1DD1
:10862C0001225A603B1D04229A603B1D8022D20419
:10863C009A613B1D181C0AF009FC0AF09FFA031CF6
:10864C00181CFA23990010F099FA031C181C00F05E
:10865C006BFF042000F0BAFF01235B42181C0021C1
:10866C00002200F025FFBD461CB080BD001002406A
:10867C0000700040FFE7FFFF80B58AB000AF2D4BC4
:10868C008022D2051A602B4B1F225A60294B0022E4
:10869C009A60284BFF22DA60264B00221A61254B88
:1086AC00181C0BF05BF81823FB18802252011A607F
:1086BC00204A1823FB18101C191C0DF0D1FB1D4B64
:1086CC00181C0BF009FC1023FB1800221A60102355
:1086DC00FB1800225A60174A1023FB18101C191C97
:1086EC000EF082FA3B1C60221A603B1C00225A607E
:1086FC003B1C00229A603B1C0022DA600D4A3B1C9A
:10870C00101C191C00220CF0E7FE0A4A3B1C101C22
:10871C00191C04220CF0E0FE064A3B1C101C191C10
:10872C000C220CF0D9FE034B181C00F0C3F9BD460B
:10873C000AB080BDD42F020080B500AF124B134A93
:10874C001A60114BE12252025A600F4B00229A60C0
:10875C000D4B0022DA600C4B00221A610A4B0C22E2
:10876C005A61094B00229A61074B0022DA61064BD1
:10877C0000221A62044B00225A62034B181C0EF0A2
:10878C0099FABD4680BDC046642F020000380140F6
:10879C0080B500AF124B134A1A60114BE122520202
:1087AC005A600F4B802252059A600D4B0022DA6002
:1087BC000B4B00221A610A4B0C225A61084B002207
:1087CC009A61074B0022DA61054B00221A62044BB6
:1087DC0000225A62024B181C0EF06CFABD4680BD8A
:1087EC000C3002000044004080B582B000AF0F4B4B
:1087FC000E4A126B01210A431A630C4B1B6B0122AC
:10880C0013407B607B680A200021002200F050FEA0
:10881C000A2000F063FE0B200021002200F048FE2D
:10882C000B2000F05BFEBD4602B080BD0010024084
:10883C0080B588B000AF1C4B1B4AD26A01210A4399
:10884C00DA62194BDB6A01221340BB60BB68164B22
:10885C00154AD26A02210A43DA62134BDB6A0222FE
:10886C0013407B607B680C23FB1880221A600C235E
:10887C00FB1801225A600C23FB1800229A600C236F
:10888C00FB180322DA60094A0C23FB18101C191C74
:10889C0002F06AFD054B181C8021002202F0D0FF6B
:1088AC00BD4608B080BDC046001002400004005018
:1088BC00B0B582B000AFBB1D00221A804CE0BB1DCE
:1088CC001B885A1C2E4B9200D358002B0BD0BB1D6F
:1088DC001A88BB1D1B88591C294B8900C958284B69
:1088EC009200D15033E0BB1D1A88254B9200D3580F
:1088FC00002B2CD0BB1D1B88BA1D1288204992005E
:10890C008A1852785208D1B21D4A9B00D3180A1CFF
:10891C005A70BB1D1B88BA1D1288194992008A18FF
:10892C0092785208D1B2164A9B00D3180A1C9A703E
:10893C00BB1D1B88BA1D1288114992008A18D27867
:10894C005208D1B20E4A9B00D3180A1CDA70BB1D18
:10895C001A88BB1D01321A80BB1D1B88942BAED903
:10896C0000F030F8031C1A1C054D95239C00101CBC
:10897C0000F05EF8031C2B51BD4602B0B0BDC046E2
:10898C00D02C020080B582B000AF021CFB1D1A7007
:10899C000A4B1B78642B01D100230BE0074B1B788F
:1089AC005A1CD1B2054A1170191C054BFA1D1278CC
:1089BC005A540123181CBD4602B080BD8C2C0200F9
:1089CC00282C020080B582B000AF174B1B78002B0F
:1089DC0001D1002323E0BB1D144A12781A70FB1D31
:1089EC0001221A700DE0FB1D1B78013BFA1D127859
:1089FC000E49895C0D4AD154FB1D1A78FB1D0132BE
:108A0C001A70094B1B78FA1D12789A42EBD3064B5D
:108A1C001B78013BDAB2044B1A70BB1D1B78181C77
:108A2C00BD4602B080BDC0468C2C0200282C020032
:108A3C0080B582B000AF021CFB1D1A70FB1D1B78A9
:108A4C00032B05D8FB1D1A78044B9200D35801E078
:108A5C00024B1B68181CBD4602B080BDACA50100C2
:108A6C0080B500AF074B074A526B01210A435A638A
:108A7C0001235B42181C0021002200F019FDBD46A9
:108A8C0080BDC0460010024080B582B000AF786057
:108A9C007B681A688023DB059A4205D1044B044A93
:108AAC00926B01210A439A63BD4602B080BDC04659
:108ABC000010024080B588B000AF78607B681A68FF
:108ACC008023DB059A421BD10C23FB180B221A6066
:108ADC000C23FB1802225A600C23FB1800229A600C
:108AEC000C23FB180022DA600C23FB1802221A61FB
:108AFC00A023DA050C23FB18101C191C02F034FC03
:108B0C00BD4608B080BDC04680B582B000AF78606D
:108B1C007B681A688023DB059A4205D1044B044A12
:108B2C00926B01218A439A63BD4602B080BDC04658
:108B3C000010024080B588B000AF78607B681B687D
:108B4C004E4A934249D14E4B4D4A526B8021C9013A
:108B5C000A435A630C23FB18C022D2001A600C2360
:108B6C00FB1802225A600C23FB1801229A600C237A
:108B7C00FB180322DA600C23FB1804221A61A023D1
:108B8C00DA050C23FB18101C191C02F0EDFB3D4BF5
:108B9C003D4A1A603B4B03225A603A4B00229A60C2
:108BAC00384B0022DA60374B80221A61354B002299
:108BBC005A61344B00229A61324B2022DA61314BDC
:108BCC0000221A622F4B181C00F062FD7B682D4AA4
:108BDC005A662C4B7A689A624CE07B681B682B4A6D
:108BEC00934247D1264B264A926B802189020A4335
:108BFC009A630C23FB18264A1A600C23FB180222DA
:108C0C005A600C23FB1801229A600C23FB180322D8
:108C1C00DA600C23FB1804221A61A023DA050C235A
:108C2C00FB18101C191C02F09FFB1A4B1A4A1A60F5
:108C3C00184B04225A60174B00229A60154B0022E5
:108C4C00DA60144B80221A61124B00225A61114BCC
:108C5C0000229A610F4B2022DA610E4B00221A621D
:108C6C000C4B181C00F014FD7B680A4A5A66094B21
:108C7C007A689A62BD4608B080BDC0460038014093
:108C8C0000100240282F0200300002400044004037
:108C9C0004800000942C02005800024080B582B081
:108CAC0000AF78607B681B68184A934213D1184B4D
:108CBC00174A526B17490A405A63A023DA05C0239E
:108CCC00DB00101C191C02F0BFFC7B685B6E181CCF
:108CDC0000F0CAFD16E07B681B680F4A934211D165
:108CEC000B4B0B4A926B0D490A409A63A023DB0590
:108CFC000B4A181C111C02F0A7FC7B685B6E181C3D
:108D0C0000F0B2FDBD4602B080BDC0460038014047
:108D1C0000100240FFBFFFFF00440040FFFFFDFFBB
:108D2C000480000080B500AFBD4680BD80B500AFAB
:108D3C00FEE7C04680B500AF00F050F900F060FCD3
:108D4C00BD4680BD80B500AF024B181C01F08EF9FA
:108D5C00BD4680BD282F020080B500AF024B181C09
:108D6C0001F084F9BD4680BD942C020080B500AFA3
:108D7C00164B164A1268802149000A431A60134B9D
:108D8C00124AD26812490A40DA60104B0F4A126834
:108D9C0010490A401A600D4B0C4A926801218A4313
:108DAC009A600A4B094A12680B490A401A60074B31
:108DBC00064AD26809490A40DA60044B00221A615B
:108DCC00074B802212059A60BD4680BD0010024000
:108DDC000C40FF88F6FFF6FEFFFFFBFFFFFF02FFD4
:108DEC0000ED00E080B586B000AF00237B6100236E
:108DFC003B610023FB600023BB6000237B60414B85
:108E0C00DB680C2213407B617B69042B19D002D8E0
:108E1C00002B05D053E0082B17D00C2B19D04EE0AB
:108E2C00384B5A68E0231B0213405B0B7B607B685A
:108E3C0001331A1C80231B0293401A1C324B1A60FC
:108E4C004EE0314B314A1A604AE02F4B304A1A60DF
:108E5C0046E02C4BDA68F0239B0313403B61294B13
:108E6C00DA68C0231B041340FB603B699B0C294A46
:108E7C00D35C3B61FB689B0D0133FB60214BDA68D3
:108E8C0080235B021340BB60BB68002B0BD13B699A
:108E9C001E4A5343181CF9680FF070FE031C1A1C71
:108EAC00194B1A601CE03B69194A5343181CF968AA
:108EBC000FF064FE031C1A1C134B1A6010E0114BCC
:108ECC005A68E0231B0213405B0B7B607B68013309
:108EDC001A1C80231B0293401A1C0B4B1A60C046B1
:108EEC00084BDB68F02213401B090B4AD35C7B61F7
:108EFC00054B1A687B69DA40034B1A60BD4606B015
:108F0C0080BDC04600100240042C02000024F40076
:108F1C0000127A00CCA50100BCA5010080B500AF01
:108F2C00074B074A126840210A431A60002000F0E0
:108F3C0037F8FFF795FD0023181CBD4680BDC046D1
:108F4C000020024080B500AF104B012252429A62C1
:108F5C000E4B00229A620D4B012252425A620B4B6D
:108F6C0000225A62094B012252421A62074B00221C
:108F7C001A62064B01225242DA61044B0022DA617A
:108F8C0000F00AF80023181CBD4680BD00100240FA
:108F9C0080B500AFBD4680BD80B500AFBD4680BD7D
:108FAC0080B582B000AF786009F0E8FD031C181C96
:108FBC00FA2399000FF0E2FD031C181C00F0B4FA20
:108FCC0001235A427B68101C191C002200F070FA15
:108FDC000023181CBD4602B080BDC04680B500AF52
:108FEC00034B1B685A1C024B1A60BD4680BDC04621
:108FFC00902C020080B500AF024B1B68181CBD46BC
:10900C0080BDC046902C020080B584B000AF786063
:10901C000023FB60FFF7EEFF031CFB60C046FFF76D
:10902C00E9FF021CFB68D21A7B689A42F7D3BD4653
:10903C0004B080BD80B500AF034B034A1268022117
:10904C008A431A60BD4680BD10E000E080B500AFD9
:10905C00034B034A126802210A431A60BD4680BDC5
:10906C0010E000E080B500AF014B181CBD4680BD80
:10907C000000050180B500AF024B1B681B0C181CCF
:10908C00BD4680BD0058014080B500AF034B1B6846
:10909C001B051B0D181CBD4680BDC0460058014069
:1090AC0080B500AF034B034A526801210A435A6052
:1090BC00BD4680BD0058014080B500AF034B034A4C
:1090CC00526801218A435A60BD4680BD0058014058
:1090DC0080B500AF034B034A526802210A435A6021
:1090EC00BD4680BD0058014080B500AF034B034A1C
:1090FC00526802218A435A60BD4680BD0058014027
:10910C0080B500AF034B034A526804210A435A60EE
:10911C00BD4680BD0058014080B500AF034B034AEB
:10912C00526804218A435A60BD4680BD00580140F4
:10913C0080B582B000AF7860044B044A51687A68FD
:10914C000A435A60BD4602B080BDC046005801407B
:10915C0080B582B000AF7860044B044A52687968DD
:10916C00C9430A405A60BD4602B080BD0058014058
:10917C0080B500AF034B1A68C0239B001340181C2A
:10918C00BD4680BD0000014080B500AF034B034AD3
:10919C00126A01210A431A62BD4680BD00000140DB
:1091AC0080B500AF034B034A126A01218A431A624D
:1091BC00BD4680BD0000014080B582B000AF786034
:1091CC00074B074A126A30218A431A62044B044A3D
:1091DC00116A7A680A431A62BD4602B080BDC04665
:1091EC000000014080B500AF044B044A126A802194
:1091FC0009060A431A62BD4680BDC0460000014004
:10920C0080B500AF034B034A126A520052081A622F
:10921C00BD4680BD0000014080B582B000AF021C8D
:10922C00FB1D1A70064BFA1D1278111C1F220A40E6
:10923C00012191400A1C1A60BD4602B080BDC04697
:10924C0000E100E080B582B000AF021CFB1D1A707B
:10925C000649FB1D1B781A1C1F23134001229A4040
:10926C00131C80228B50BD4602B080BD00E100E093
:10927C0080B582B000AF021CFB1D1A70084A802317
:10928C005B00D258FB1D1B78191C1F230B40DA40C6
:10929C00131C01221340181CBD4602B080BDC046F1
:1092AC0000E100E080B582B000AF021CFB1D1A701B
:1092BC000649FB1D1B781A1C1F23134001229A40E0
:1092CC0080235B00CA50BD4602B080BD00E100E0C7
:1092DC0080B582B000AF021CFB1D1A700649FB1D45
:1092EC001B781A1C1F23134001229A40C0235B00D9
:1092FC00CA50BD4602B080BD00E100E0B0B582B0FE
:10930C0000AF021C3960FB1D1A70FB1D1B787F2BF4
:10931C002FD92D4CFB1D1B781A1C0F231340083B17
:10932C009908294AFB1D1B78181C0F230340083B86
:10933C009B0806339B00D3185B68FA1D1278101C2F
:10934C0003220240D200101CFF228240D2431A405A
:10935C003B689B01FF200340F81D0078051C03208F
:10936C002840C00083401A438B1D9B00E3185A60B1
:10937C0026E0164CFB1D1B785BB29B081349FA1DAB
:10938C00127852B29208C03292005258F91D0978E4
:10939C00081C03210140C900081CFF218140C9435E
:1093AC0011403A689201FF200240F81D0078051C1C
:1093BC0003202840C00082400A43C0339B001A514E
:1093CC00BD4602B0B0BDC04600ED00E000E100E0DB
:1093DC0080B582B000AF021CFB1D1A70FB1D1B7800
:1093EC007F2B16D9164AFB1D1B78191C0F230B401B
:1093FC00083B9B0806339B00D3185B68FA1D127858
:10940C00111C03220A40D200D340FF2213409B09B7
:10941C0011E00C4AFB1D1B785BB29B08C0339B0010
:10942C009B58FA1D1278111C03220A40D200D3401B
:10943C00FF2213409B09181CBD4602B080BDC046DC
:10944C0000ED00E000E100E080B500AFBFF34F8F0E
:10945C00034B044ADA60BFF34F8FC046FDE7C046AA
:10946C0000ED00E00400FA0580B582B000AF786032
:10947C007B68013B0C4A934201D9012310E00B4B52
:10948C007A68013A5A6001235B42181C0321FFF7EA
:10949C0035FF064B00229A60044B07221A6000230A
:1094AC00181CBD4602B080BDFFFFFF0010E000E0BD
:1094BC0080B584B000AFB9607A600F23FB18021C32
:1094CC001A700F23FB1800229A56BB68101C191C2B
:1094DC00FFF714FFBD4604B080BDC04680B582B016
:1094EC0000AF021CFB1D1A70FB1D1B785BB2181C15
:1094FC00FFF792FEBD4602B080BDC04680B582B07B
:10950C0000AF021CFB1D1A70FB1D1B785BB2181CF4
:10951C00FFF798FEBD4602B080BDC04680B500AFD7
:10952C00FFF792FFBD4680BD80B582B000AF78607A
:10953C007B68181CFFF798FF031C181CBD4602B073
:10954C0080BDC04680B582B000AF021CFB1D1A70F6
:10955C00FB1D1B785BB2181CFFF73AFF031C181C91
:10956C00BD4602B080BDC04680B582B000AF021CC3
:10957C00FB1D1A70FB1D1B785BB2181CFFF792FECB
:10958C00BD4602B080BDC04680B582B000AF021CA3
:10959C00FB1D1A70FB1D1B785BB2181CFFF768FED5
:1095AC00031C181CBD4602B080BDC04680B582B0FD
:1095BC0000AF021CFB1D1A70FB1D1B785BB2181C44
:1095CC00FFF786FEBD4602B080BDC04680B582B0B6
:1095DC0000AF78607B68042B06D1084B074A1268F1
:1095EC0004210A431A6005E0044B044A1268042162
:1095FC008A431A60BD4602B080BDC04610E000E050
:10960C0080B500AF00F002F8BD4680BD80B500AF5C
:10961C00BD4680BD80B582B000AF78601B4B7A68C8
:10962C0052799A607B681B79012B26D1174A7B688B
:10963C001B680F218B43D360144B7A68927A110705
:10964C007A68527A120611437A68D27A92041143DC
:10965C007A68127B520411437A68527B12041143CC
:10966C007A68D279120211437A68927952000A43CD
:10967C00796809790A431A6105E0044B0022DA6023
:10968C00024B00221A61BD4602B080BD90ED00E095
:10969C0080B584B000AF78600023FB607B68002B42
:1096AC0001D10123BFE07B6825229B5CDBB2002B40
:1096BC0003D17B682422002199547B682522022146
:1096CC0099547B681B681B68FB60FB68584A134005
:1096DC00FB607B689A687B68DB681A437B681B6954
:1096EC001A437B685B691A437B689B691A437B68E6
:1096FC00DB691A437B681B6A1343FA681343FB60EC
:10970C007B681B68FA681A607B681B68494A93423D
:10971C000DD1494B484A12680F218A431A60464AB8
:10972C00454B19687B685B680B43136076E07B687C
:10973C001B68424A93420ED13F4B3F4A1268F021BC
:10974C008A431A603C4A3C4B19687B685B681B0176
:10975C000B43136062E07B681B68394A93420ED15D
:10976C00354B354A126837490A401A60324A324B37
:10977C0019687B685B681B020B4313604EE07B68C7
:10978C001B68314A93420ED12B4B2B4A12682F493E
:10979C000A401A60284A284B19687B685B681B03CF
:1097AC000B4313603AE07B681B68294A93420ED145
:1097BC00214B214A126827490A401A601E4A1E4B47
:1097CC0019687B685B681B040B43136026E07B689D
:1097DC001B68214A93420ED1174B174A12681F4936
:1097EC000A401A60144A144B19687B685B681B05A5
:1097FC000B43136012E07B681B68194A93420DD12E
:10980C000D4B0D4A126817490A401A600A4A0A4B56
:10981C0019687B685B681B060B4313607B68252209
:10982C00012199540023181CBD4604B080BDC046CC
:10983C000FC0FFFF08000240A80002401C000240BD
:10984C0030000240FFF0FFFF44000240FF0FFFFF1B
:10985C0058000240FFFFF0FF6C000240FFFF0FFFBB
:10986C0080000240FFFFFFF080B582B000AF78604F
:10987C007B68002B01D101235EE17B6825229B5C78
:10988C00DBB2022B01D1012356E17B681B687A689D
:10989C001268126801218A431A607B681B680022D7
:1098AC001A607B681B6800225A607B681B68002268
:1098BC009A607B681B680022DA60A14A7B681B688F
:1098CC00191EA04B99422ED07B681B68191E9E4B0B
:1098DC00994226D07B681B68191E9C4B99421DD05F
:1098EC007B681B68191E9A4B994214D07B681B68C5
:1098FC00191E984B99420BD07B681B68191E964B0E
:10990C00994202D180235B030EE080235B040BE0C1
:10991C0080235B0208E080235B0105E080235B0071
:10992C0002E0102300E001235360854A7B681B682A
:10993C00191E844B99422ED07B681B68191E824BD2
:10994C00994226D07B681B68191E804B99421DD00A
:10995C007B681B68191E7E4B994214D07B681B6870
:10996C00191E7C4B99420BD07B681B68191E7A4BD5
:10997C00994202D180239B030EE080239B040BE0D1
:10998C0080239B0208E080239B0105E080239B0041
:10999C0002E0202300E002235360694A7B681B68C5
:1099AC00191E684B99422ED07B681B68191E664B9A
:1099BC00994226D07B681B68191E644B99421DD0B6
:1099CC007B681B68191E624B994214D07B681B681C
:1099DC00191E604B99420BD07B681B68191E5E4B9D
:1099EC00994202D180231B040EE080231B050BE05F
:1099FC0080231B0308E080231B0205E080231B014E
:109A0C0002E0802300E0082353604D4A7B681B680A
:109A1C00191E4C4B99422ED07B681B68191E4A4B61
:109A2C00994226D07B681B68191E484B99421DD061
:109A3C007B681B68191E464B994214D07B681B68C7
:109A4C00191E444B99420BD07B681B68191E424B64
:109A5C00994202D18023DB030EE08023DB040BE070
:109A6C008023DB0208E08023DB0105E08023DB00A0
:109A7C0002E0402300E0042353607B681B68314AFA
:109A8C00934206D1354B354A12680F218A431A602E
:109A9C0046E07B681B682C4A934206D12F4B2F4A19
:109AAC001268F0218A431A603AE07B681B68274AE7
:109ABC00934206D1294B294A126829490A401A6057
:109ACC002EE07B681B68224A934206D1234B234A23
:109ADC00126824490A401A6022E07B681B681D4A00
:109AEC00934206D11D4B1D4A12681F490A401A6049
:109AFC0016E07B681B68184A934206D1174B174A2D
:109B0C0012681A490A401A600AE07B681B68184AF6
:109B1C00934205D1114B114A126816490A401A603A
:109B2C007B6800229A637B682522002199547B680C
:109B3C002422002199540023181CBD4602B080BD7C
:109B4C0000000240080002401C00024030000240AD
:109B5C0044000240580002406C000240A800024041
:109B6C00FFF0FFFFFF0FFFFFFFFFF0FFFFFF0FFFF7
:109B7C0080000240FFFFFFF080B584B000AFF860BA
:109B8C00B9607A603B60FB6824229B5C012B01D19D
:109B9C0002231EE0FB68242201219954FB68252234
:109BAC0002219954FB681B68FA681268126801213B
:109BBC008A431A60F868B9687A683B6800F056FC0A
:109BCC00FB681B68FA681268126801210A431A6064
:109BDC000023181CBD4604B080BDC04680B584B0BF
:109BEC0000AFF860B9607A603B60FB6824229B5C34
:109BFC00012B01D1022336E0FB6824220121995468
:109C0C00FB68252202219954FB681B68FA681268CC
:109C1C00126801218A431A60F868B9687A683B684F
:109C2C0000F024FCFB681B68FA68126812680221B9
:109C3C000A431A60FB681B68FA68126812680421F0
:109C4C000A431A60FB681B68FA68126812680821DC
:109C5C000A431A60FB681B68FA68126812680121D3
:109C6C000A431A600023181CBD4604B080BDC046D0
:109C7C0080B584B000AF78600023FB607B681B6804
:109C8C007A681268126801218A431A60FFF7B2F9E8
:109C9C00031CFB6018E0FFF7ADF9021CFB68D21A3D
:109CAC00FA239B009A420FD97B689B6B20221A43A4
:109CBC007B689A637B682422002199547B68252257
:109CCC000321995403230EE07B681B681B68012257
:109CDC001340E0D17B682422002199547B68252213
:109CEC00012199540023181CBD4604B080BDC04608
:109CFC0080B586B000AFF860B9607A6000233B6134
:109D0C00BB68002B37D1FB681B681A1EC14B9A42EB
:109D1C002ED0FB681B681A1EBF4B9A4226D0FB68DC
:109D2C001B681A1EBD4B9A421DD0FB681B681A1E7D
:109D3C00BB4B9A4214D0FB681B681A1EB94B9A4253
:109D4C000BD0FB681B681A1EB74B9A4202D18023BA
:109D5C009B030EE080239B040BE080239B0208E016
:109D6C0080239B0105E080239B0002E0202300E080
:109D7C0002237B6136E0FB681B681A1EA54B9A42D6
:109D8C002ED0FB681B681A1EA34B9A4226D0FB6888
:109D9C001B681A1EA14B9A421DD0FB681B681A1E29
:109DAC009F4B9A4214D0FB681B681A1E9D4B9A421B
:109DBC000BD0FB681B681A1E9B4B9A4202D1802366
:109DCC00DB030EE08023DB040BE08023DB0208E0E6
:109DDC008023DB0105E08023DB0002E0402300E070
:109DEC0004237B61FFF706F9031C3B619FE08F4B5B
:109DFC001A68FB681B68191E864B99422ED0FB68AB
:109E0C001B68191E844B994226D0FB681B68191ECF
:109E1C00824B99421DD0FB681B68191E804B9942DE
:109E2C0014D0FB681B68191E7E4B99420BD0FB6843
:109E3C001B68191E7C4B994202D180231B040EE037
:109E4C0080231B050BE080231B0308E080231B02EF
:109E5C0005E080231B0102E0802300E0082313406F
:109E6C0047D0724AFB681B68191E6A4B99422ED068
:109E7C00FB681B68191E684B994226D0FB681B684F
:109E8C00191E664B99421DD0FB681B68191E644B4A
:109E9C00994214D0FB681B68191E624B99420BD077
:109EAC00FB681B68191E604B994202D180231B046E
:109EBC000EE080231B050BE080231B0308E08023AE
:109ECC001B0205E080231B0102E0802300E0082335
:109EDC005360FB689B6B01221A43FB689A63FB6817
:109EEC00252204219954FB68242200219954012332
:109EFC00B7E07B6801331AD07B68002B07D0FFF7E3
:109F0C0079F8021C3B69D21A7B689A420FD9FB681C
:109F1C009B6B20221A43FB689A63FB682522032162
:109F2C009954FB68242200219954032399E03F4B58
:109F3C001B687A69134000D159E7BB68002B40D1EC
:109F4C003A4AFB681B68191E324B99422ED0FB68AB
:109F5C001B68191E304B994226D0FB681B68191ED2
:109F6C002E4B99421DD0FB681B68191E2C4B994235
:109F7C0014D0FB681B68191E2A4B99420BD0FB6846
:109F8C001B68191E284B994202D180239B030EE0BB
:109F9C0080239B040BE080239B0208E080239B0121
:109FAC0005E080239B0002E0202300E002235360A5
:109FBC00FB68252201219954FB6824220021995425
:109FCC004EE01A4AFB681B68191E124B99423DD091
:109FDC00FB681B68191E104B994235D0FB681B6837
:109FEC00191E0E4B99422CD0FB681B68191E0C4B8A
:109FFC00994223D0FB681B68191E0A4B99421AD050
:10A00C00FB681B68191E084B994211D18023DB0396
:10A01C001DE0C046080002401C0002403000024017
:10A02C0044000240580002406C0002400000024014
:10A03C008023DB040BE08023DB0208E08023DB01C0
:10A04C0005E08023DB0002E0402300E004235360A2
:10A05C00FB68252205219954FB6824220021995480
:10A06C000023181CBD4606B080BDC04680B582B02A
:10A07C0000AF7860B04B1A687B681B68191EAF4B39
:10A08C0099422ED07B681B68191EAD4B994226D085
:10A09C007B681B68191EAB4B99421DD07B681B68F3
:10A0AC00191EA94B994214D07B681B68191EA74B2B
:10A0BC0099420BD07B681B68191EA54B994202D1A3
:10A0CC0080231B040EE080231B050BE080231B0365
:10A0DC0008E080231B0205E080231B0102E08023A3
:10A0EC0000E0082313405CD07B681B681B680822C7
:10A0FC00134056D07B681B687A6812681268082176
:10A10C008A431A608C4A7B681B68191E8B4B9942D8
:10A11C002ED07B681B68191E894B994226D07B6810
:10A12C001B68191E874B99421DD07B681B68191E32
:10A13C00854B994214D07B681B68191E834B99423E
:10A14C000BD07B681B68191E814B994202D180236E
:10A15C001B040EE080231B050BE080231B0308E08F
:10A16C0080231B0205E080231B0102E0802300E01A
:10A17C00082353607B689B6B01221A437B689A63AC
:10A18C007B682522042199547B6824220021995450
:10A19C007B685B6B002B04D07B685B6B7A68101C54
:10A1AC009847654B1A687B681B68191E634B99426C
:10A1BC002ED07B681B68191E614B994226D07B6898
:10A1CC001B68191E5F4B99421DD07B681B68191EBA
:10A1DC005D4B994214D07B681B68191E5B4B9942EE
:10A1EC000BD07B681B68191E594B994202D18023F6
:10A1FC00DB030EE08023DB040BE08023DB0208E0B2
:10A20C008023DB0105E08023DB0002E0402300E03B
:10A21C000423134058D07B681B681B68042213402E
:10A22C0052D07B681B681B682022134007D17B68C7
:10A23C001B687A681268126804218A431A603E4AC5
:10A24C007B681B68191E3D4B99422ED07B681B689E
:10A25C00191E3B4B994226D07B681B68191E394B43
:10A26C0099421DD07B681B68191E374B994214D03C
:10A27C007B681B68191E354B99420BD07B681B6899
:10A28C00191E334B994202D18023DB030EE080234D
:10A29C00DB040BE08023DB0208E08023DB0105E01C
:10A2AC008023DB0002E0402300E0042353607B6842
:10A2BC002522052199547B681B6B002B04D07B68ED
:10A2CC001B6B7A68101C98471B4B1A687B681B68C1
:10A2DC00191E1A4B99423DD07B681B68191E184BEE
:10A2EC00994226D07B681B68191E164B99421DD0CB
:10A2FC007B681B68191E144B994214D07B681B6831
:10A30C00191E124B99420BD07B681B68191E104BFF
:10A31C00994202D180239B031DE080239B041AE009
:10A32C0080239B0217E080239B0114E080239B0079
:10A33C0011E020230FE0C04600000240080002405C
:10A34C001C00024030000240440002405800024011
:10A35C006C0002400223134060D07B681B681B68B2
:10A36C00022213405AD07B681B681B6820221340C2
:10A37C0007D17B681B687A681268126802218A43CD
:10A38C001A60284A7B681B68191E274B99422ED0ED
:10A39C007B681B68191E254B994226D07B681B686D
:10A3AC00191E234B99421DD07B681B68191E214B2B
:10A3BC00994214D07B681B68191E1F4B99420BD015
:10A3CC007B681B68191E1D4B994202D180239B038D
:10A3DC000EE080239B040BE080239B0208E080238B
:10A3EC009B0105E080239B0002E0202300E0022378
:10A3FC0053607B689A6B7B689A637B68252201218A
:10A40C0099547B682422002199547B68DB6A002BC9
:10A41C0004D07B68DB6A7A68101C9847BD4602B092
:10A42C0080BDC04600000240080002401C000240F3
:10A43C003000024044000240580002406C000240D0
:10A44C0080B582B000AF78607B6825229B5CDBB264
:10A45C00181CBD4602B080BD80B582B000AF7860DC
:10A46C007B689B6B181CBD4602B080BD80B584B068
:10A47C0000AFF860B9607A603B60FB681B683A68B3
:10A48C005A60FB689B68102B08D1FB681B687A68C4
:10A49C009A60FB681B68BA68DA6007E0FB681B68A7
:10A4AC00BA689A60FB681B687A68DA60BD4604B0CB
:10A4BC0080BDC04690B587B000AFF860B9607A60D7
:10A4CC001723FB1801221A70164B1B7C012B01D190
:10A4DC00022323E0134B01221A741723FC18124B8E
:10A4EC00181C00F0B3F9031C23701723FB181B78FE
:10A4FC00002B0DD1BA687B68101C191C00F082FA75
:10A50C001723FC18084B181C00F0A0F9031C23702F
:10A51C00044B00221A741723FB181B78181CBD4619
:10A52C0007B090BD9C32020050C3000090B587B0BC
:10A53C0000AFF860B9607A601723FB1800221A701C
:10A54C001C4B1B7C012B01D102232FE0194B012248
:10A55C001A741723FC18184B181C00F077F9031CFD
:10A56C0023701723FB181B78002B1CD1134B134A99
:10A57C005268802149020A435A60104B0F4A5268B4
:10A58C00802189020A435A600A4B02221A70094B35
:10A59C00BA68DA60FB68022B05D1BA687B68101CBC
:10A5AC00191C00F02FFA1723FB181B78181CBD463A
:10A5BC0007B090BD9C32020050C300000020024046
:10A5CC0080B582B000AF4A4B9B694A4A1340494A56
:10A5DC00934218D1484B1B78DBB2012B07D1464B69
:10A5EC009B687B60444B012252429A6002E0424BD2
:10A5FC00DB687B6000F086F97B68181C00F08EF835
:10A60C003D4B00221A703A4B9B690222134052D0E8
:10A61C00374B02229A61384B1B78DBB2002B4AD0A5
:10A62C00354B1B78DBB2012B32D1334B5B685A1E96
:10A63C00314B5A60304B5B68002B1BD02E4B9B6808
:10A64C007B607B68181C00F061F82B4B9B68803397
:10A65C007B60294B9B6880331A1C274B9A60244BD8
:10A66C00234A526825490A405A607B68181C00F03E
:10A67C00ABF920E001235B427B601F4B7A689A6048
:10A68C001D4B00221A707B68181C00F03FF812E07A
:10A69C00194B1B78DBB2022B0AD1154B144A5268AA
:10A6AC0008218A435A60144BDB68181C00F02EF802
:10A6BC00114B00221A70104B1B78DBB2002B14D1FB
:10A6CC000B4B0B4A52680E490A405A60084B084A19
:10A6DC0052680C490A405A60054B054A52680A49AF
:10A6EC000A405A60044B00221A74BD4602B080BD69
:10A6FC0000200240002F03009C320200FFFDFFFFF0
:10A70C00F7FDFFFFFFFFFEFFFFFFFDFF80B582B0EF
:10A71C0000AF7860BD4602B080BDC04680B582B047
:10A72C0000AF7860BD4602B080BDC04680B500AFBA
:10A73C000D4B5B680222134012D00B4B5B6801225D
:10A74C00134005D0084B094ADA60074B084ADA6017
:10A75C00054B084A1A61044B074A1A61002300E0B2
:10A76C000123181CBD4680BD00200240EFCDAB89F3
:10A77C0005040302BFAE9D8C1615141380B500AFF3
:10A78C00044B044A526802210A435A600023181CE5
:10A79C00BD4680BD0020024080B500AF0D4B5B680C
:10A7AC000422134012D00B4B5B680122134005D0DE
:10A7BC00084B094ADA60074B084ADA60054B084A2D
:10A7CC005A61044B074A5A61002300E00123181C0C
:10A7DC00BD4680BD00200240EFCDAB8905040302CD
:10A7EC00C8D9EAFB2726252480B500AF044B044AC0
:10A7FC00526804210A435A600023181CBD4680BDD0
:10A80C000020024080B500AF084B00225A61084B73
:10A81C00074A52688021C9020A435A60054B181C2A
:10A82C0000F014F8031C181CBD4680BD9C320200BD
:10A83C000020024050C3000080B500AF024B5B69A2
:10A84C00181CBD4680BDC0469C32020080B584B049
:10A85C0000AF7860FEF7CEFB031CFB600FE07B685B
:10A86C0001330CD07B68002B07D0FEF7C3FB021C16
:10A87C00FB68D21A7B689A4201D903233BE0204B38
:10A88C009B6901221340EAD11D4B9B6902221340A4
:10A89C0002D01B4B02229A61194B9A6980235B00F0
:10A8AC00134023D1164B9A6980239B0013401DD172
:10A8BC00134B9A698023DB00134017D1104B9A6914
:10A8CC0080231B01134011D10D4B9A6980239B01EE
:10A8DC0013400BD10A4B9A6980239B02134005D17C
:10A8EC00074B9A6980235B02134003D000F00AF8EF
:10A8FC00012300E00023181CBD4604B080BDC046F7
:10A90C000020024080B500AF2C4B9A6980235B007D
:10A91C00134005D02A4B5B6908221A43284B5A6115
:10A92C00264B9A6980239B00134005D0244B5B690E
:10A93C0004221A43224B5A61204B9A698023DB0074
:10A94C00134005D01E4B5B6902221A431C4B5A6103
:10A95C001A4B9A6980231B01134005D0184B5B6975
:10A96C0010221A43164B5A61144B9A6980239B018F
:10A97C00134005D0124B5B6901221A43104B5A61EC
:10A98C000E4B9A6980239B02134005D00C4B5B69DC
:10A99C0020221A430A4B5A61084B9A6980235B02A6
:10A9AC00134005D0064B5B6940221A43044B5A6195
:10A9BC00024B044A9A61BD4680BDC046002002404D
:10A9CC009C320200002F030080B582B000AF78608B
:10A9DC000A4B00225A610A4B094A526880218900AD
:10A9EC000A435A60064B064A526808210A435A60C9
:10A9FC007B6800221A60BD4602B080BD9C3202000A
:10AA0C000020024080B582B000AF78603960044B02
:10AA1C0000225A617B683A681A60BD4602B080BD5C
:10AA2C009C32020090B585B000AF786039600F237E
:10AA3C00FB1801221A700023BB602C4B1B7C012BD2
:10AA4C0001D102234DE0294B01221A740F23FC186B
:10AA5C00274B181CFFF7FAFE031C23700F23FB185F
:10AA6C001B78002B37D1214B00225A613B68012205
:10AA7C0052421A607B685B68BB6023E0BB68181CA1
:10AA8C00FFF7A2FF0F23FC18194B181CFFF7DEFE73
:10AA9C00031C2370174B174A526808218A435A60CB
:10AAAC00144B144A526814490A405A600F23FB187D
:10AABC001B78002B03D03B68BA681A600BE0BB68AC
:10AACC008033BB607B689B68DA017B685B68D2185B
:10AADC00BB689A42D2D8054B00221A740F23FB187C
:10AAEC001B78181CBD4605B090BDC0469C320200B8
:10AAFC0050C3000000200240FFFDFFFF90B585B061
:10AB0C0000AF78600F23FB1800221A701E4B1B7CC1
:10AB1C00012B01D1022333E01B4B01221A740F23AA
:10AB2C00FC181A4B181CFFF791FE031C23700F2303
:10AB3C00FB181B78002B20D1154B154A526880212D
:10AB4C0049020A435A60124B114A52688021890209
:10AB5C000A435A600C4B00225A610B4B01221A70AB
:10AB6C007B689A68084B5A607B685A68064B9A60F7
:10AB7C007B685B68181CFFF727FF0F23FB181B78FB
:10AB8C00181CBD4605B090BD9C32020050C300009D
:10AB9C000020024090B585B000AF78600F23FB1801
:10ABAC0001221A70464B1B7C012B01D1022382E03F
:10ABBC00434B01221A747B681B680122134017D087
:10ABCC007B689A687B685B680F217C18101C191CC9
:10ABDC0000F070FB031C23700F23FB181B78002B59
:10ABEC0006D0374B00221A740F23FB181B7862E037
:10ABFC007B681B680222134014D07B681B7B0F22DE
:10AC0C00BC18181C00F036FA031C23700F23FB1819
:10AC1C001B78002B06D02A4B00221A740F23FB182A
:10AC2C001B7848E07B681B680422134021D07B68AA
:10AC3C009B7B10221340D8B27B689B7B2022134055
:10AC4C00D9B27B689B7B40221340DBB20F22BC182D
:10AC5C001A1C00F0AFF9031C23700F23FB181B7890
:10AC6C00002B06D0164B00221A740F23FB181B78EE
:10AC7C0021E07B681B680822134008D07B685B7B53
:10AC8C000F22BC18181C00F039FA031C23707B68C7
:10AC9C001B681022134008D07B68DB7B0F22BC188A
:10ACAC00181C00F077FA031C2370054B00221A7451
:10ACBC000F23FB181B78181CBD4605B090BDC04671
:10ACCC009C32020080B582B000AF78607B680F22A6
:10ACDC001A6000F065F9021C7B689A6000F03CF980
:10ACEC00031C1A1C7B681A7300F028F9031C1A1C2D
:10ACFC007B689A7300F03AF9031C1A1C7B685A7330
:10AD0C0000F042F9031C1A1C7B68DA73BD4602B0D2
:10AD1C0080BDC04690B585B000AF78600F23FB189E
:10AD2C0001221A707B681B68012213400BD07B68D0
:10AD3C009A687B681B790F217C18101C191C00F079
:10AD4C00B9FA031C23700F23FB181B78181CBD4683
:10AD5C0005B090BD80B582B000AF78607B680122F1
:10AD6C001A60084BDA6980235B0013401B0ADAB2C5
:10AD7C007B681A71034B1A6A7B689A60BD4602B0F5
:10AD8C0080BDC0460020024080B500AF012000F01D
:10AD9C004DFA031C181CBD4680BDC04680B500AFE3
:10ADAC00002000F043FA031C181CBD4680BDC046B1
:10ADBC0080B500AF084B5B680122134007D0064BEF
:10ADCC00064ADA60044B064ADA60002300E00123ED
:10ADDC00181CBD4680BDC04600200240EFCDAB899B
:10ADEC000504030280B500AF044B044A52680121EC
:10ADFC000A435A600023181CBD4680BD0020024047
:10AE0C0090B585B000AF78600F23FB1800221A7044
:10AE1C000F23FC180F4B181CFFF718FD031C237095
:10AE2C000F23FB181B78002B0DD10B4B00225A6102
:10AE3C007B6800221A600F23FC18064B181CFFF7C6
:10AE4C0005FD031C23700F23FB181B78181CBD4633
:10AE5C0005B090BD50C300009C32020090B587B085
:10AE6C0000AFF860B9607A601723FB1801221A70E2
:10AE7C00224B1B7C012B01D102233BE01F4B0122F7
:10AE8C001A741723FC181E4B181CFFF7DFFC031C4D
:10AE9C0023701723FB181B78002B25D1174B00228E
:10AEAC005A61FB68022B03D1BB687A681A6013E005
:10AEBC00FB68012B04D1BB687A6892B21A800BE054
:10AECC00FB68002B04D1BB687A68D2B21A7003E01D
:10AEDC001723FB1801221A701723FC18084B181C97
:10AEEC00FFF7B4FC031C2370044B00221A741723C5
:10AEFC00FB181B78181CBD4607B090BD9C32020095
:10AF0C0050C3000080B500AF044B044A5268802146
:10AF1C0049000A435A60BD4680BDC046002002402D
:10AF2C0080B500AF034B034A526803490A405A608C
:10AF3C00BD4680BD00200240FFFEFFFF80B500AF84
:10AF4C00044BDA69E023DB0313401B0CDBB2181C47
:10AF5C00BD4680BD0020024080B500AF024BDB69CE
:10AF6C00DBB2181CBD4680BD0020024080B500AF8E
:10AF7C00044BDA69F0231B0313401B0CDBB2181CC7
:10AF8C00BD4680BD0020024080B500AF034BDB699D
:10AF9C00DB0FDBB2181CBD4680BDC0460020024052
:10AFAC0080B500AF024B1B6A181CBD4680BDC04665
:10AFBC000020024090B587B000AF041C081C111C87
:10AFCC00FB1D221C1A70BB1D021C1A707B1D0A1C57
:10AFDC001A701723FB1800221A7000233B61002300
:10AFEC00FB60FA1DBB1D12781B781343DAB27B1D74
:10AFFC001B781343DBB2BB601A4B00225A611A4B0D
:10B00C005B681A4A1340FB60BA68FB681343DB4366
:10B01C001B043B61BA68FB6813433A6913433B61F9
:10B02C001723FC18124B181CFFF710FC031C237081
:10B03C001723FB181B78002B0DD10A4B00225A61E9
:10B04C00094B3A695A601723FC18094B181CFFF777
:10B05C00FDFB031C23701723FB181B78181CBD4623
:10B06C0007B090BD9C3202000000F81F8FFF00005B
:10B07C0050C3000090B587B000AF021CFB1D1A70C6
:10B08C0000233B610023FB60FB1D1B78BB60184B4E
:10B09C001A68FF231B021A40BB6813433B613B69D0
:10B0AC00DB431A043B691343FB601723FC18114B59
:10B0BC00181CFFF7CBFB031C23701723FB181B7802
:10B0CC00002B0DD10C4B00225A61094BFA681A6007
:10B0DC001723FC18074B181CFFF7B8FB031C237035
:10B0EC001723FB181B78181CBD4607B090BDC04633
:10B0FC000000F81F50C300009C32020090B587B0CE
:10B10C0000AF021CFB1D1A701723FB1800221A70CB
:10B11C0000233B610023FB60FB1D1B78BB60194BBC
:10B12C005B68194A1340FB60BA68FB681343DB4346
:10B13C001B043B61BA68FB6813433A6913433B61D8
:10B14C001723FC18114B181CFFF780FB031C2370F2
:10B15C001723FB181B78002B0DD10D4B00225A61C5
:10B16C00084B3A695A601723FC18084B181CFFF758
:10B17C006DFB031C23701723FB181B78181CBD4692
:10B18C0007B090BD0000F81FF0FF000050C3000096
:10B19C009C32020090B587B000AF021CFB1D1A70E8
:10B1AC001723FB1800221A7000233B610023FB605D
:10B1BC00FB1D1B78DB03BB60194B5B685B045B0CF2
:10B1CC00FB60BA68FB681343DB431B043B61BA6842
:10B1DC00FB6813433A6913433B611723FC18114B6B
:10B1EC00181CFFF733FB031C23701723FB181B7869
:10B1FC00002B0DD10C4B00225A61094B3A695A6055
:10B20C001723FC18074B181CFFF720FB031C23709B
:10B21C001723FB181B78181CBD4607B090BDC04601
:10B22C000000F81F50C300009C32020090B587B09C
:10B23C0000AF786000233B610023FB607B681B023E
:10B24C00BB60194B5B681B041B0CFB60BA68FB688A
:10B25C001343DB431B043B61BA68FB6813433A6935
:10B26C0013433B611723FC18104B181CFFF7EEFA25
:10B27C00031C23701723FB181B78002B0DD10C4BD0
:10B28C0000225A61084B3A691A601723FC18074BC5
:10B29C00181CFFF7DBFA031C23701723FB181B7811
:10B2AC00181CBD4607B090BD0000F81F50C300002D
:10B2BC009C32020090B587B000AF786039601723DC
:10B2CC00FB1800221A7000233B617B68FB6017237C
:10B2DC00FC18224B181CFFF7B9FA031C2370172318
:10B2EC00FB181B78002B2AD11D4B00225A61FB68DE
:10B2FC001B041B0C23D03B68002B0FD0FB689AB2AD
:10B30C00184B9B689BB213439BB23B61154B3A693C
:10B31C00D24311043A690A439A6010E0FB689BB26D
:10B32C00DB439AB20F4B9B689BB213409BB23B61C1
:10B33C000C4B3A69D24311043A690A439A601723B9
:10B34C00FC18064B181CFFF781FA031C23701723FB
:10B35C00FB181B78181CBD4607B090BD50C30000ED
:10B36C009C3202000000F81F80B586B000AF7860F8
:10B37C00396000237B610023FB6000233B614BE1C0
:10B38C003B681B687A69012191400A1C1340FB60E1
:10B39C00FB68002B00D13CE13B685B68022B03D0BF
:10B3AC003B685B68122B22D17B69DA087B68083218
:10B3BC009200D3583B617B69072213409B001A1CF7
:10B3CC000F239340DA433B6913403B613B681B6995
:10B3DC007A6907210A40920093403A6913433B6112
:10B3EC007B69DA087B68083292003969D1503B6876
:10B3FC005B68012B0BD03B685B68022B07D03B686A
:10B40C005B68112B03D03B685B68122B2FD17B68D8
:10B41C009B683B617B695B001A1C03239340DA43F6
:10B42C003B6913403B613B68DB687A69520093408F
:10B43C003A6913433B617B683A699A607B685B6845
:10B44C003B617B6901229A40131CDA433B69134030
:10B45C003B613B685B68102213401A097B699A4078
:10B46C00131C3A6913433B617B683A695A607B68E9
:10B47C001B683B617B695B001A1C03239340DA4316
:10B48C003B6913403B613B685B68032213407A695C
:10B49C00520093403A6913433B617B683A691A60E6
:10B4AC007B68DB683B617B695B001A1C0323934060
:10B4BC00DA433B6913403B613B689B687A695200F5
:10B4CC0093403A6913433B617B683A69DA603B68A5
:10B4DC005A6880235B05134000D19AE0534B534AC2
:10B4EC00526B01210A435A63514A7B699B08023310
:10B4FC009B009B583B617B69032213409B001A1CE9
:10B50C000F239340DA433B6913403B617A68A023D5
:10B51C00DB059A4219D07B68464A934213D07B686C
:10B52C00454A93420DD07B68444A934207D07B68CE
:10B53C00434A934201D1052308E0062306E0032386
:10B54C0004E0022302E0012300E000237A690321D6
:10B55C000A40920093403A6913433B6134497B693A
:10B56C009B0802339B003A695A50364B1B683B616F
:10B57C00FB68DA433B6913403B613B685A688023A4
:10B58C005B02134003D03A69FB6813433B612D4BBC
:10B59C003A691A602B4B5B683B61FB68DA433B6989
:10B5AC0013403B613B685A6880239B02134003D0D5
:10B5BC003A69FB6813433B61224B3A695A60214B51
:10B5CC009B683B61FB68DA433B6913403B613B681A
:10B5DC005A6880235B03134003D03A69FB6813431A
:10B5EC003B61184B3A699A60164BDB683B61FB6810
:10B5FC00DA433B6913403B613B685A6880239B03E9
:10B60C00134003D03A69FB6813433B610D4B3A6915
:10B61C00DA607B6901337B613B681A687B69DA40CD
:10B62C00131E00D0ACE6BD4606B080BD0010024033
:10B63C00000001400004005000080050000C0050B5
:10B64C00001C00500004014080B586B000AF78604B
:10B65C00396000237B6100233B610023FB60BCE06D
:10B66C007B6901229A40131C1A1C3B6813403B61F6
:10B67C003B69002B00D1ADE07B681B687A695200F6
:10B68C00111C03228A40D2431A407B681A607B69E2
:10B69C00DA087B69D9087B6808318900CB5879694D
:10B6AC00072001408900081C0F218140C943194023
:10B6BC007B6808329200D1507B689B687A69520093
:10B6CC00111C03228A40D2431A407B689A607B6823
:10B6DC005B687A69012191400A1CD2431A407B684D
:10B6EC005A607B68DB687A695200111C03228A401D
:10B6FC00D2431A407B68DA603C4A7B699B08023370
:10B70C009B009B58FB607B69032213409B001A1C17
:10B71C000F2393401A1CFB681340FB607A68A0232C
:10B72C00DB059A4219D07B68314A934213D07B686F
:10B73C00304A93420DD07B682F4A934207D07B68E6
:10B74C002E4A934201D1052308E0062306E0032389
:10B75C0004E0022302E0012300E000237A690321C4
:10B76C000A40920093401A1EFB689A4232D17B69C0
:10B77C00032213409B001A1C0F239340FB601B48B1
:10B78C007B699B0819497A699208023292005258D7
:10B79C00F968C9430A4002339B001A50184B184AE7
:10B7AC0012683969C9430A401A60154B144A526829
:10B7BC003969C9430A405A60114B114A9268396978
:10B7CC00C9430A409A600E4B0D4AD2683969C94385
:10B7DC000A40DA607B6901337B617B693A68DA4045
:10B7EC00131E00D03CE7BD4606B080BD00000140F2
:10B7FC000004005000080050000C0050001C0050C9
:10B80C000004014080B584B000AF78600A1CBB1CFA
:10B81C001A807B681B69BA1C1288134004D00F2352
:10B82C00FB1801221A7003E00F23FB1800221A7078
:10B83C000F23FB181B78181CBD4604B080BDC046F6
:10B84C0080B582B000AF7860081C111CBB1C021CB8
:10B85C001A807B1C0A1C1A707B1C1B78002B04D0D2
:10B86C00BB1C1A887B689A6103E0BB1C1A887B6836
:10B87C009A62BD4602B080BD80B582B000AF7860E0
:10B88C000A1CBB1C1A807B685A69BB1C1B885A405B
:10B89C007B685A61BD4602B080BDC04680B584B09D
:10B8AC0000AF78600A1CBB1C1A8080235B02FB6013
:10B8BC00BB1C1A88FB681343FB60FA687B68DA616F
:10B8CC00BB1C1A887B68DA61FA687B68DA617B6872
:10B8DC00DB69FB607B68DA6980235B02134001D073
:10B8EC00002300E00123181CBD4604B080BDC046F7
:10B8FC0080B582B000AF021CBB1D1A80084B5B697F
:10B90C00BA1D1288134008D0054BBA1D12885A6113
:10B91C00BB1D1B88181C00F005F8BD4602B080BD8D
:10B92C000004014080B582B000AF021CBB1D1A8020
:10B93C00BD4602B080BDC04680B582B000AF786015
:10B94C007B68002B01D1012376E07B6835229B5C60
:10B95C00DBB2002B07D17B683422002199547B6821
:10B96C00181C00F09DF87B683522022199547B68E5
:10B97C001B687A681268126801218A431A607B6816
:10B98C001B687A6852682E490A401A617B681B68EA
:10B99C007A68126892682B490A409A607B689B68A7
:10B9AC00002B14D07B68DB68012B08D17B681B68EB
:10B9BC007A689268802109020A439A6007E07B68E2
:10B9CC001B687A689268842109020A439A607B6832
:10B9DC00DB68022B04D17B681B68802212015A6041
:10B9EC007B681B687A681268526817490A435A6068
:10B9FC007B681B687A6811697A68526911437A68A6
:10BA0C00926912020A43DA607B681B687A68D16912
:10BA1C007A68126A0A431A607B681B687A68126833
:10BA2C00126801210A431A607B6800229A637B68C2
:10BA3C003522012199540023181CBD4602B080BD4B
:10BA4C00FFFFFFF0FF7FFFFF0080000280B582B098
:10BA5C0000AF78607B68002B01D101231BE07B6871
:10BA6C003522022199547B681B687A681268126827
:10BA7C0001218A431A607B68181C00F019F87B6856
:10BA8C0000229A637B683522002199547B6834220A
:10BA9C00002199540023181CBD4602B080BDC0463D
:10BAAC0080B582B000AF7860BD4602B080BDC046A4
:10BABC0080B582B000AF7860BD4602B080BDC04694
:10BACC0090B589B002AFF860081C7A60191C0A2383
:10BADC00FB18021C1A800823FB180A1C1A8000236E
:10BAEC007B61FB6835229B5CDBB2012B00D0D7E07D
:10BAFC007B68002B04D00823FB181B88002B01D17A
:10BB0C000123CEE0FB681B689A6980231B0213405B
:10BB1C0001D00223C5E0FB6834229B5C012B01D1D0
:10BB2C000223BEE0FB68342201219954FB683522C4
:10BB3C0012219954FB6800229A630823FB181B8876
:10BB4C00FF2B11D9F9680A23FB181A8880235C048F
:10BB5C0080239B010093081C111CFF22231C03F063
:10BB6C0097FBFF237B6113E00823FB181B88DAB2D9
:10BB7C00F8680A23FB18198880239C0480239B01F6
:10BB8C000093231C03F084FB0823FB181B887B61A8
:10BB9C00FA68BB6A101C191C03F022FA031E07D0AA
:10BBAC00FB689B6B042B01D101237AE0032378E023
:10BBBC00FB681B687A68511C796012789A627B6901
:10BBCC00013B7B610823FB181A880823FB18013AF8
:10BBDC001A807B69002B38D10823FB181B88002B9B
:10BBEC0033D0FA68BB6A101C8021002203F09EF946
:10BBFC00031E01D0032354E00823FB181B88FF2BE2
:10BC0C0010D9F9680A23FB181A8880235C040023D6
:10BC1C000093081C111CFF22231C03F039FBFF238B
:10BC2C007B6112E00823FB181B88DAB2F8680A2340
:10BC3C00FB18198880239C0400230093231C03F019
:10BC4C0027FB0823FB181B887B610823FB181B8828
:10BC5C00002B9DD1FA68BB6A101C191C03F0FEF96D
:10BC6C00031E07D0FB689B6B042B01D1012318E04A
:10BC7C00032316E0FB681B682022DA61FB681B6853
:10BC8C00FA681268526809490A405A60FB68352202
:10BC9C0001219954FB68342200219954002300E0BF
:10BCAC000223181CBD4607B090BDC04600E800FE3C
:10BCBC0090B589B002AFF860081C7A60191C0A2391
:10BCCC00FB18021C1A800823FB180A1C1A8000237C
:10BCDC007B61FB6835229B5CDBB2012B00D0D6E08C
:10BCEC007B68002B04D00823FB181B88002B01D188
:10BCFC000123CDE0FB681B689A6980231B0213406B
:10BD0C0001D00223C4E0FB6834229B5C012B01D1DF
:10BD1C000223BDE0FB68342201219954FB683522D3
:10BD2C0022219954FB6800229A630823FB181B8874
:10BD3C00FF2B11D9F9680A23FB181A8880235C049D
:10BD4C0090239B010093081C111CFF22231C03F061
:10BD5C009FFAFF237B6113E00823FB181B88DAB2E0
:10BD6C00F8680A23FB18198880239C0490239B01F4
:10BD7C000093231C03F08CFA0823FB181B887B61AF
:10BD8C00FB68181C042103F0A5F9031E07D0FB68FF
:10BD9C009B6B042B01D101237AE0032378E07B68B1
:10BDAC005A1C7A60FA681268526AD2B21A707B69AD
:10BDBC00013B7B610823FB181A880823FB18013A06
:10BDCC001A807B69002B38D10823FB181B88002BA9
:10BDDC0033D0FA68BB6A101C8021002203F0A6F84D
:10BDEC00031E01D0032353E00823FB181B88FF2BF1
:10BDFC0010D9F9680A23FB181A8880235C040023E5
:10BE0C000093081C111CFF22231C03F041FAFF2392
:10BE1C007B6112E00823FB181B88DAB2F8680A234E
:10BE2C00FB18198880239C0400230093231C03F027
:10BE3C002FFA0823FB181B887B610823FB181B882F
:10BE4C00002B9DD1FB68181C192103F007F9031E68
:10BE5C0007D0FB689B6B042B01D1012318E0032353
:10BE6C0016E0FB681B682022DA61FB681B68FA6825
:10BE7C001268526808490A405A60FB683522012151
:10BE8C009954FB68342200219954002300E00223CA
:10BE9C00181CBD4607B090BD00E800FE80B584B00C
:10BEAC0000AFF860B9603B60BB1D1A80FB6835229F
:10BEBC009B5CDBB2012B00D0DCE0BB68002B03D019
:10BECC00BB1D1B88002B01D10123D4E0FB6834225D
:10BEDC009B5C012B01D10223CDE0FB6834220121B4
:10BEEC009954FB68352242219954FB6800229A63CD
:10BEFC00FB681B68FA681268526861490A405A600C
:10BF0C00FA683B68101C0821002203F00FF8031E8E
:10BF1C000AD0FB681B68FA68126852688021090213
:10BF2C000A435A600323A6E0FB681B680822DA6107
:10BF3C00FB68DB68022B17D1FA683B68101C0821E0
:10BF4C00002202F0F3FF031E0AD0FB681B68FA689C
:10BF5C0012685268802109020A435A6003238AE05E
:10BF6C00FB681B680822DA61F96880235A023B6877
:10BF7C00081C111C002202F0D9FF031E0AD0FB681A
:10BF8C001B68FA6812685268802109020A435A60D9
:10BF9C00032370E0FA683B68101C191C03F020F8AE
:10BFAC00031E10D0FB681B68FA6812685268802167
:10BFBC0009020A435A60FB689B6B042B01D10123D5
:10BFCC0059E0032357E0FB681B68BA68511CB96041
:10BFDC0012789A62BB1D1A88BB1D013A1A80BB1DD0
:10BFEC001B88002BD6D1FB68181C192103F036F8DE
:10BFFC00031E12D0FB681B68FA6812685268802115
:10C00C0009020A435A60FB689B6B042B03D1FB6843
:10C01C0000229A6301E003232DE0FB681B682022B9
:10C02C00DA61F96880231A023B68081C111C012292
:10C03C0002F07CFF031E0AD0FB681B68FA681268CA
:10C04C005268802109020A435A60032313E0FB68FB
:10C05C001B68FA6812685268802109020A435A6008
:10C06C00FB68352201219954FB6834220021995434
:10C07C00002300E00223181CBD4604B080BDC0465E
:10C08C00FF7FFFFF80B584B000AFF860B9603B6004
:10C09C00BB1D1A80FB6835229B5CDBB2012B00D0E8
:10C0AC00CEE0BB68002B03D0BB1D1B88002B01D13D
:10C0BC000123C6E0FB6834229B5C012B01D10223D7
:10C0CC00BFE0FB68342201219954FB6835224221E0
:10C0DC009954FB6800229A63FB681B68FA68126823
:10C0EC0052685A490A405A60FA683B68101C082189
:10C0FC00002202F01BFF031E0AD0FB681B68FA68C3
:10C10C0012685268802109020A435A60032398E09E
:10C11C00FB681B680822DA61F96880235A023B68C5
:10C12C00081C111C012202F001FF031E0AD0FB683F
:10C13C001B68FA6812685268802109020A435A6027
:10C14C0003237EE033E0FA683B68101C191C02F0F4
:10C15C00C1FF031E1ED0FB681B68FA681268526888
:10C16C00802109020A435A60FB681B689B69042200
:10C17C00134007D0BB685A1CBA60FA681268526A3E
:10C18C00D2B21A70FB689B6B202B01D1032358E0B1
:10C19C00012356E0BB685A1CBA60FA681268526AEE
:10C1AC00D2B21A70BB1D1A88BB1D013A1A80BB1D76
:10C1BC001B88002BC7D1FB68181C192102F04EFFFD
:10C1CC00031E10D0FB681B68FA6812685268802145
:10C1DC0009020A435A60FB689B6B042B01D10123B3
:10C1EC002FE003232DE0FB681B682022DA61F9683D
:10C1FC0080231A023B68081C111C012202F096FED7
:10C20C00031E0AD0FB681B68FA681268526880210A
:10C21C0009020A435A60032313E0FB681B68FA689F
:10C22C0012685268802109020A435A60FB68352261
:10C23C0001219954FB68342200219954002300E019
:10C24C000223181CBD4604B080BDC046FF7FFFFF13
:10C25C0090B587B002AFF860081C7A60191C0A23ED
:10C26C00FB18021C1A800823FB180A1C1A80FB6896
:10C27C0035229B5CDBB2012B00D072E07B68002B7B
:10C28C0004D00823FB181B88002B01D1012369E083
:10C29C00FB681B689A6980231B02134001D00223A0
:10C2AC0060E0FB6834229B5C012B01D1022359E036
:10C2BC00FB68342201219954FB68352212219954D0
:10C2CC00FB6800229A63FB687A685A62FB68082252
:10C2DC00BA1812885A850823FB181B88FF2B03D920
:10C2EC00FB68FF221A8504E0FB680822BA18128842
:10C2FC001A85FB681B8DFF2B16D1FB681A8DFB680A
:10C30C005B8D9BB29A420FD2FB681B8DDAB2F86838
:10C31C000A23FB18198880235C0480239B0100935B
:10C32C00231C02F0B5FF0EE0FB681B8DDAB2F86837
:10C33C000A23FB18198880239C0480239B010093FB
:10C34C00231C02F0A5FFFB68342200219954FB68E2
:10C35C001B68FA6812681268F2210A431A600023FB
:10C36C0000E00223181CBD4605B090BD90B587B007
:10C37C0002AFF860081C7A60191C0A23FB18021C17
:10C38C001A800823FB180A1C1A80FB6835229B5C58
:10C39C00DBB2012B00D072E07B68002B04D00823A9
:10C3AC00FB181B88002B01D1012369E0FB681B687B
:10C3BC009A6980231B02134001D0022360E0FB68C2
:10C3CC0034229B5C012B01D1022359E0FB683422FF
:10C3DC0001219954FB68352222219954FB680022D3
:10C3EC009A63FB687A685A62FB680822BA1812884A
:10C3FC005A850823FB181B88FF2B03D9FB68FF22E7
:10C40C001A8504E0FB680822BA1812881A85FB68A2
:10C41C001B8DFF2B16D1FB681A8DFB685B8D9BB2B5
:10C42C009A420FD2FB681B8DDAB2F8680A23FB180C
:10C43C00198880235C0490239B010093231C02F039
:10C44C0027FF0EE0FB681B8DDAB2F8680A23FB1895
:10C45C00198880239C0490239B010093231C02F0D9
:10C46C0017FFFB68342200219954FB681B68FA689B
:10C47C0012681268F4210A431A60002300E00223B8
:10C48C00181CBD4605B090BD80B584B000AFF860F7
:10C49C00B960BB1D1A80FB6835229B5CDBB2012B9B
:10C4AC003BD1BB68002B03D0BB1D1B88002B01D1DB
:10C4BC00012333E0FB6834229B5C012B01D1022366
:10C4CC002CE0FB68342201219954FB68352232217F
:10C4DC009954FB6800229A63FB681B68FA6812681F
:10C4EC00526810490A405A60FB68BA685A62FB6885
:10C4FC00BA1D12881A85FB68BA1D12885A85FB680A
:10C50C00342200219954FB681B68FA68126812687F
:10C51C00FA210A431A60002300E00223181CBD46CE
:10C52C0004B080BDFF7FFFFF80B584B000AFF86022
:10C53C00B960BB1D1A80FB6835229B5CDBB2012BFA
:10C54C003BD1BB68002B03D0BB1D1B88002B01D13A
:10C55C00012333E0FB6834229B5C012B01D10223C5
:10C56C002CE0FB68342201219954FB6835224221CE
:10C57C009954FB6800229A63FB681B68FA6812687E
:10C58C00526810490A405A60FB68BA685A62FB68E4
:10C59C00BA1D12881A85FB68BA1D12885A85FB6869
:10C5AC00342200219954FB681B68FA6812681268DF
:10C5BC00FC210A431A60002300E00223181CBD462C
:10C5CC0004B080BDFF7FFFFF90B587B002AFF8606D
:10C5DC00081C7A60191C0A23FB18021C1A800823F9
:10C5EC00FB180A1C1A80FB6835229B5CDBB2012B02
:10C5FC0000D0A6E07B68002B04D00823FB181B8816
:10C60C00002B01D101239DE0FB681B689A698023F4
:10C61C001B02134001D0022394E0FB6834229B5C84
:10C62C00012B01D102238DE0FB68342201219954A6
:10C63C00FB68352212219954FB6800229A63FB682F
:10C64C007A685A62FB680822BA1812885A8508233D
:10C65C00FB181B88FF2B03D9FB68FF221A8504E00B
:10C66C00FB680822BA1812881A85FB68DB6A374AFD
:10C67C00DA62FB68DB6A364A5A63FB68D96A7A6805
:10C68C00FB681B6828331C1CFB681B8D081C111CC9
:10C69C00221CFDF7A3FAFB681B8DFF2B16D1FB6840
:10C6AC001A8DFB685B8D9BB29A420FD2FB681B8D77
:10C6BC00DAB2F8680A23FB18198880235C048023FB
:10C6CC009B010093231C02F0E3FD0EE0FB681B8D25
:10C6DC00DAB2F8680A23FB18198880239C0480239B
:10C6EC009B010093231C02F0D3FDFB68181C19213D
:10C6FC0002F076FC031E15D0FB681B68FA68126802
:10C70C005268802109020A435A60FB68DB6A181CD4
:10C71C00FDF7AEFAFB689B6B042B01D1012311E0F2
:10C72C0003230FE0FB681B68FA681268126880210B
:10C73C00C9010A431A60FB68342200219954002372
:10C74C0000E00223181CBD4605B090BD31E300008B
:10C75C00F1EE000090B587B002AFF860081C7A606B
:10C76C00191C0A23FB18021C1A800823FB180A1C2C
:10C77C001A80FB6835229B5CDBB2012B00D09CE05D
:10C78C007B68002B04D00823FB181B88002B01D1DD
:10C79C00012393E0FB681B689A6980231B021340FA
:10C7AC0001D002238AE0FB6834229B5C012B01D16F
:10C7BC00022383E0FB68342201219954FB68352263
:10C7CC0022219954FB6800229A63FB687A685A62AA
:10C7DC00FB680822BA1812885A850823FB181B8894
:10C7EC00FF2B03D9FB68FF221A8504E0FB680822A3
:10C7FC00BA1812881A85FB681B6B324ADA62FB681E
:10C80C001B6B314A5A63FB68196BFB681B6824333A
:10C81C001C1C7A68FB681B8D081C211CFDF7DEF9BB
:10C82C00FB681B8DFF2B16D1FB681A8DFB685B8D8B
:10C83C009BB29A420FD2FB681B8DDAB2F8680A23BE
:10C84C00FB18198880235C0490239B010093231C04
:10C85C0002F01EFD0EE0FB681B8DDAB2F8680A23AD
:10C86C00FB18198880239C0490239B010093231CA4
:10C87C0002F00EFDFB68181C042102F02BFC031EB9
:10C88C000CD0FB681B6B181CFDF7F2F9FB689B6B5B
:10C89C00042B01D1012311E003230FE0FB681B687B
:10C8AC00FA6812681268802109020A431A60FB6850
:10C8BC00342200219954002300E00223181CBD46A9
:10C8CC0005B090BD61E60000F1EE000090B585B0BA
:10C8DC0000AFF860B960BB1D1A80FB6835229B5C09
:10C8EC00DBB2012B00D09EE0BB68002B03D0BB1D3C
:10C8FC001B88002B01D1012396E0FB6834229B5C42
:10C90C00012B01D102238FE0FB68342201219954C1
:10C91C00FB68352232219954FB6800229A63FB682C
:10C92C00BA685A62FB68BA1D12885A85FB68BA1D30
:10C93C0012881A85FB68DB6A3D4ADA62FB68DB6A9F
:10C94C003C4A5A63FB68D96ABA68FB681B6828338F
:10C95C001C1CFB681B8D081C111C221CFDF73EF9CE
:10C96C00FB681B68FA681268526833490A405A60BF
:10C97C00FB68324C181C08210022231C02F0D6FA4A
:10C98C00031E0AD0FB681B68FA6812685268802183
:10C99C0009020A435A60032346E0FB681B6808221D
:10C9AC00DA61FB68DB68022B18D1FB68234C181C7E
:10C9BC0008210022231C02F0B9FA031E0AD0FB68DE
:10C9CC001B68FA6812685268802109020A435A608F
:10C9DC00032329E0FB681B680822DA61FA688023CC
:10C9EC005B02101C191C0022192302F09FFA031E73
:10C9FC000AD0FB681B68FA68126852688021090229
:10CA0C000A435A6003230FE0FB681B68FA6812683C
:10CA1C0012688021C9010A431A60FB683422002184
:10CA2C009954002300E00223181CBD4605B090BDAC
:10CA3C00BDE50000F1EE0000FF7FFFFF10270000B6
:10CA4C0090B585B000AFF860B960BB1D1A80FB686B
:10CA5C0035229B5CDBB2012B00D080E0BB68002B45
:10CA6C0003D0BB1D1B88002B01D1012378E0FB6890
:10CA7C0034229B5C012B01D1022371E0FB68342230
:10CA8C0001219954FB68352242219954FB680022FC
:10CA9C009A63FB68BA685A62FB68BA1D12881A85D9
:10CAAC00FB68BA1D12885A85FB681B6B2E4ADA622A
:10CABC00FB681B6B2D4A5A63FB68196BFB681B6880
:10CACC0024331C1CBA68BB1D1B88081C211CFDF7D9
:10CADC0085F8FB681B68FA681268526824490A409A
:10CAEC005A60FB68234C181C08210022231C02F0FE
:10CAFC001DFA031E0AD0FB681B68FA68126852689C
:10CB0C00802109020A435A60032329E0FB681B6851
:10CB1C000822DA61FA6880235B02101C191C0122BE
:10CB2C00192302F003FA031E0AD0FB681B68FA688B
:10CB3C0012685268802109020A435A6003230FE0ED
:10CB4C00FB681B68FA6812681268802109020A43A4
:10CB5C001A60FB68342200219954002300E0022360
:10CB6C00181CBD4605B090BD05E90000F1EE0000B3
:10CB7C00FF7FFFFF1027000090B589B002AFF8606F
:10CB8C000C1C101C191C0A23FB18221C1A800823CD
:10CB9C00FB18021C1A80BB1D0A1C1A8000237B6127
:10CBAC00FB6835229B5CDBB2012B00D0F4E0BB6A46
:10CBBC00002B04D02C23FB181B88002B01D1012344
:10CBCC00EBE0FB681B689A6980231B02134001D0C1
:10CBDC000223E2E0FB6834229B5C012B01D102238F
:10CBEC00DBE0FB68342201219954FB683522522189
:10CBFC009954FB6800229A63F8680A23FB18198879
:10CC0C000823FB181A88BB1D1C883B6B0093231C44
:10CC1C0001F0AEFA031E0FD0FB689B6B042B05D101
:10CC2C00FB683422002199540123B6E0FB683422BE
:10CC3C00002199540323B0E02C23FB181B88FF2BF5
:10CC4C0010D9F9680A23FB181A8880235C04002386
:10CC5C000093081C111CFF22231C02F019FBFF235C
:10CC6C007B6112E02C23FB181B88DAB2F8680A23CC
:10CC7C00FB18198880239C0400230093231C02F0CA
:10CC8C0007FB2C23FB181B887B61FA683B6B101C81
:10CC9C00191C02F0A5F9031E07D0FB689B6B042B33
:10CCAC0001D1012379E0032377E0FB681B68BA6AA2
:10CCBC00511CB96212789A627B69013B7B612C230F
:10CCCC00FB181A882C23FB18013A1A807B69002B5D
:10CCDC0038D12C23FB181B88002B33D0FA683B6B04
:10CCEC00101C8021002202F021F9031E01D0032325
:10CCFC0053E02C23FB181B88FF2B10D9F9680A234F
:10CD0C00FB181A8880235C0400230093081C111C58
:10CD1C00FF22231C02F0BCFAFF237B6112E02C23C0
:10CD2C00FB181B88DAB2F8680A23FB1819888023D1
:10CD3C009C0400230093231C02F0AAFA2C23FB185A
:10CD4C001B887B612C23FB181B88002B9DD1FB6857
:10CD5C00181C192102F082F9031E07D0FB689B6B8B
:10CD6C00042B01D1012318E0032316E0FB681B6898
:10CD7C002022DA61FB681B68FA681268526809495C
:10CD8C000A405A60FB68352201219954FB68342211
:10CD9C0000219954002300E00223181CBD4607B063
:10CDAC0090BDC04600E800FE90B589B002AFF860B7
:10CDBC000C1C101C191C0A23FB18221C1A8008239B
:10CDCC00FB18021C1A80BB1D0A1C1A8000237B61F5
:10CDDC00FB6835229B5CDBB2012B00D0F2E0BB6A16
:10CDEC00002B04D02C23FB181B88002B01D1012312
:10CDFC00E9E0FB681B689A6980231B02134001D091
:10CE0C000223E0E0FB6834229B5C012B01D102235E
:10CE1C00D9E0FB68342201219954FB683522622148
:10CE2C009954FB6800229A63F8680A23FB18198846
:10CE3C000823FB181A88BB1D1C883B6B0093231C12
:10CE4C0001F004FA031E0FD0FB689B6B042B05D179
:10CE5C00FB683422002199540123B4E0FB6834228E
:10CE6C00002199540323AEE02C23FB181B88FF2BC5
:10CE7C0011D9F9680A23FB181A8880235C049023C3
:10CE8C009B010093081C111CFF22231C02F000FACA
:10CE9C00FF237B6113E02C23FB181B88DAB2F868A4
:10CEAC000A23FB18198880239C0490239B01009370
:10CEBC00231C02F0EDF92C23FB181B887B61FA680C
:10CECC003B6B101C0421002202F030F8031E01D031
:10CEDC00032378E0BB6A5A1CBA62FA681268526A79
:10CEEC00D2B21A707B69013B7B612C23FB181A8828
:10CEFC002C23FB18013A1A807B69002B38D12C2388
:10CF0C00FB181B88002B33D0FA683B6B101C80215C
:10CF1C00002202F00BF8031E01D0032353E02C2354
:10CF2C00FB181B88FF2B10D9F9680A23FB181A88E9
:10CF3C0080235C0400230093081C111CFF22231C7B
:10CF4C0002F0A6F9FF237B6112E02C23FB181B884F
:10CF5C00DAB2F8680A23FB18198880239C04002392
:10CF6C000093231C02F094F92C23FB181B887B6183
:10CF7C002C23FB181B88002BA1D1FB68181C192132
:10CF8C0002F06CF8031E07D0FB689B6B042B01D1DD
:10CF9C00012318E0032316E0FB681B682022DA61EA
:10CFAC00FB681B68FA681268526809490A405A60A3
:10CFBC00FB68352201219954FB68342200219954D5
:10CFCC00002300E00223181CBD4607B090BDC046EC
:10CFDC0000E800FE90B587B002AFF8600C1C101C86
:10CFEC00191C0A23FB18221C1A800823FB18021C8C
:10CFFC001A80BB1D0A1C1A80FB6835229B5CDBB2B5
:10D00C00012B00D090E03B6A002B04D02423FB18AA
:10D01C001B88002B01D1012387E0FB681B689A69F0
:10D02C0080231B02134001D002237EE0FB683422D4
:10D03C009B5C012B01D1022377E0FB683422012198
:10D04C009954FB68352252219954FB6800229A634B
:10D05C00FB683A6A5A62FB682422BA1812885A850D
:10D06C002423FB181B88FF2B03D9FB68FF221A858E
:10D07C0004E0FB682422BA1812881A85F8680A237F
:10D08C00FB1819880823FB181A88BB1D1C88192348
:10D09C000093231C01F06CF8031E0FD0FB689B6BF4
:10D0AC00042B05D1FB6834220021995401233CE068
:10D0BC00FB68342200219954032336E0FB681B8D56
:10D0CC00FF2B15D1FB681A8DFB685B8D9BB29A42C6
:10D0DC000ED2FB681B8DDAB2F8680A23FB1819888C
:10D0EC0080235C0400230093231C02F0D1F80DE094
:10D0FC00FB681B8DDAB2F8680A23FB1819888023A9
:10D10C009C0400230093231C02F0C2F8FB68342219
:10D11C0000219954FB681B68FA6812681268F221A6
:10D12C000A431A60002300E00223181CBD4605B018
:10D13C0090BDC04690B587B002AFF8600C1C101CB7
:10D14C00191C0A23FB18221C1A800823FB18021C2A
:10D15C001A80BB1D0A1C1A80FB6835229B5CDBB253
:10D16C00012B00D08FE03B6A002B04D02423FB184A
:10D17C001B88002B01D1012386E0FB681B689A6990
:10D18C0080231B02134001D002237DE0FB68342274
:10D19C009B5C012B01D1022376E0FB683422012138
:10D1AC009954FB68352262219954FB683A6A5A6299
:10D1BC00FB682422BA1812885A852423FB181B8872
:10D1CC00FF2B03D9FB68FF221A8504E0FB6824229D
:10D1DC00BA1812881A85F8680A23FB1819880823CC
:10D1EC00FB181A88BB1D1C8819230093231C01F003
:10D1FC002DF8031E0FD0FB689B6B042B05D1FB682D
:10D20C0034220021995401233EE0FB683422002192
:10D21C009954032338E0FB681B8DFF2B16D1FB6858
:10D22C001A8DFB685B8D9BB29A420FD2FB681B8DEB
:10D23C00DAB2F8680A23FB18198880235C0490235F
:10D24C009B010093231C02F023F80EE0FB681B8D5E
:10D25C00DAB2F8680A23FB18198880239C049023FF
:10D26C009B010093231C02F013F8FB68342200216D
:10D27C009954FB681B68FA6812681268F4210A4317
:10D28C001A60002300E00223181CBD4605B090BDB7
:10D29C0090B587B002AFF8600C1C101C191C0A2347
:10D2AC00FB18221C1A800823FB18021C1A80BB1DB9
:10D2BC000A1C1A80FB6835229B5CDBB2012B00D068
:10D2CC00B6E03B6A002B04D02423FB181B88002BF0
:10D2DC0001D10123ADE0FB681B689A6980231B0216
:10D2EC00134001D00223A4E0FB6834229B5C012B89
:10D2FC0001D102239DE0FB68342201219954FB6883
:10D30C00352252219954FB6800229A63FB683A6AD1
:10D31C005A62FB682422BA1812885A852423FB18F7
:10D32C001B88FF2B03D9FB68FF221A8504E0FB68DE
:10D33C002422BA1812881A85FB68DB6A3F4ADA6223
:10D34C00FB68DB6A3E4A5A63FB68D96A3A6AFB6837
:10D35C001B6828331C1CFB681B8D081C111C221C11
:10D36C00FCF73CFCF8680A23FB1819880823FB1807
:10D37C001A88BB1D1C8819230093231C00F0F8FE8F
:10D38C00031E0FD0FB689B6B042B05D1FB6834226A
:10D39C000021995401234CE0FB683422002199545C
:10D3AC00032346E0FB681B8DFF2B15D1FB681A8D00
:10D3BC00FB685B8D9BB29A420ED2FB681B8DDAB276
:10D3CC00F8680A23FB18198880235C040023009357
:10D3DC00231C01F05DFF0DE0FB681B8DDAB2F868D1
:10D3EC000A23FB18198880239C0400230093231C18
:10D3FC0001F04EFFFB68181C192101F0F1FD031E12
:10D40C0007D0FB689B6B042B01D1012311E0032394
:10D41C000FE0FB681B68FA68126812688021C9016A
:10D42C000A431A60FB68342200219954002300E05F
:10D43C000223181CBD4605B090BDC046C1E90000D2
:10D44C00F1EE000090B587B002AFF8600C1C101C18
:10D45C00191C0A23FB18221C1A800823FB18021C17
:10D46C001A80BB1D0A1C1A80FB6835229B5CDBB240
:10D47C00012B00D0B0E03B6A002B04D02423FB1816
:10D48C001B88002B01D10123A7E0FB681B689A695C
:10D49C0080231B02134001D002239EE0FB68342240
:10D4AC009B5C012B01D1022397E0FB683422012104
:10D4BC009954FB68352262219954FB683A6A5A6286
:10D4CC00FB682422BA1812885A852423FB181B885F
:10D4DC00FF2B03D9FB68FF221A8504E0FB6824228A
:10D4EC00BA1812881A85FB681B6B3E4ADA62FB6815
:10D4FC001B6B3D4A5A63FB68196BFB681B68243332
:10D50C001C1C3A6AFB681B8D081C211CFCF766FB73
:10D51C00F8680A23FB1819880823FB181A88BB1D06
:10D52C001C8819230093231C00F090FE031E0FD0BF
:10D53C00FB689B6B042B05D1FB68342200219954AA
:10D54C0001234AE0FB68342200219954032344E070
:10D55C00FB681B8DFF2B16D1FB681A8DFB685B8D4E
:10D56C009BB29A420FD2FB681B8DDAB2F8680A2381
:10D57C00FB18198880235C0490239B010093231CC7
:10D58C0001F086FE0EE0FB681B8DDAB2F8680A2308
:10D59C00FB18198880239C0490239B010093231C67
:10D5AC0001F076FEFB68181C04210022192301F0FF
:10D5BC00BDFC031E01D003230FE0FB681B68FA6857
:10D5CC0012681268802109020A431A60FB6834222F
:10D5DC0000219954002300E00223181CBD4605B01D
:10D5EC0090BDC0464DEC0000F1EE000080B586B059
:10D5FC0000AFF8607A603B600A23FB180A1C1A80A3
:10D60C0000237B6100233B61FB6835229B5CDBB212
:10D61C00012B00D0BFE0FB681B689A6980231B02BA
:10D62C00134001D00223B7E0FB6834229B5C012B32
:10D63C0001D10223B0E0FB68342201219954FB682C
:10D64C00352202219954FB6800229A63FB681B68FF
:10D65C00FA68D268012A07D10A22BA1812889205F0
:10D66C00920D4F490A4307E00A22BA181288920514
:10D67C00920DA02189010A435A60FBF7BBFC031CE5
:10D68C007B6117E03B68013314D03B68002B07D05B
:10D69C00FBF7B0FC021C7B69D21A3B689A4209D991
:10D6AC00FB68352201219954FB68342200219954DE
:10D6BC00032371E0FB681B689B69202213400BD18C
:10D6CC00FB681B689B691022134005D1FB6835224F
:10D6DC009B5CDBB2032BD5D1FB681B689B691022CA
:10D6EC00134018D1FA683B68101C2021002201F06D
:10D6FC001DFC031E01D003234EE0FB681B68202297
:10D70C00DA61FB68352201219954FB68342200212F
:10D71C009954002340E0FA683B68101C2021002239
:10D72C0001F004FC031E01D0032335E0FB681B68E9
:10D73C001022DA61FB681B682022DA613B695A1CF3
:10D74C003A617A68934217D1FB681B68FA681268D1
:10D75C0052688021C9010A435A60FA683B68101C60
:10D76C002021002201F0E2FB031E01D0032313E071
:10D77C00FB681B682022DA613A697B689A4200D206
:10D78C0064E7FB68352201219954FB68342200219F
:10D79C009954032300E00223181CBD4606B080BD3B
:10D7AC000020000280B582B000AF78607B681B68F7
:10D7BC009B69022213401DD17B681B689B698022E8
:10D7CC00134017D17B681B689B694022134011D111
:10D7DC007B681B689B69202213400BD17B681B68FC
:10D7EC009B691022134005D17B681B689B6908223A
:10D7FC00134010D07B681B681B687A2213407A2B6D
:10D80C0009D17B6835229B5CDBB2322B03D17B6860
:10D81C00181C00F09DFB7B681B689B69022213405F
:10D82C0017D17B681B689B698022134011D17B68E0
:10D83C001B689B69402213400BD17B681B689B695A
:10D84C002022134005D17B681B689B691022134072
:10D85C0016D07B681B681B6872221340722B0FD189
:10D86C007B6835229B5CDBB2122B05D07B683522A2
:10D87C009B5CDBB2522B03D17B68181C00F018F9AF
:10D88C007B681B689B69042213401DD17B681B6855
:10D89C009B698022134017D17B681B689B694022CF
:10D8AC00134011D17B681B689B69202213400BD15C
:10D8BC007B681B689B691022134005D17B681B6831
:10D8CC009B690822134010D07B681B681B687C2264
:10D8DC0013407C2B09D17B6835229B5CDBB2422B3D
:10D8EC0003D17B68181C00F0C1FB7B681B689B692B
:10D8FC000422134017D17B681B689B69802213405C
:10D90C0011D17B681B689B69402213400BD17B684B
:10D91C001B689B692022134005D17B681B689B699F
:10D92C001022134016D07B681B681B6874221340AE
:10D93C00742B0FD17B6835229B5CDBB2222B05D07C
:10D94C007B6835229B5CDBB2622B03D17B68181C95
:10D95C0000F0DAF9BD4602B080BDC04680B582B099
:10D96C0000AF78607B681B689A6980235B0013406A
:10D97C0010D07B681B681B68802213400AD07B6820
:10D98C009B6B01221A437B689A637B681B6880221D
:10D99C005200DA617B681B689A698023DB001340B4
:10D9AC0010D07B681B681B68802213400AD07B68F0
:10D9BC009B6B08221A437B689A637B681B688022E6
:10D9CC00D200DA617B681B689A6980239B00134044
:10D9DC0010D07B681B681B68802213400AD07B68C0
:10D9EC009B6B02221A437B689A637B681B688022BC
:10D9FC009200DA617B689B6B002B07D07B68352229
:10DA0C00012199547B68181C00F034F8BD4602B013
:10DA1C0080BDC04680B582B000AF7860BD4602B014
:10DA2C0080BDC04680B582B000AF7860BD4602B004
:10DA3C0080BDC04680B582B000AF7860BD4602B0F4
:10DA4C0080BDC04680B582B000AF7860BD4602B0E4
:10DA5C0080BDC04680B582B000AF7860BD4602B0D4
:10DA6C0080BDC04680B582B000AF7860BD4602B0C4
:10DA7C0080BDC04680B582B000AF7860BD4602B0B4
:10DA8C0080BDC04680B582B000AF78607B6835221F
:10DA9C009B5CDBB2181CBD4602B080BD80B582B069
:10DAAC0000AF78607B689B6B181CBD4602B080BDD4
:10DABC0090B587B002AF78607B6834229B5C012BF9
:10DACC0001D102231AE17B683422012199547B682D
