S01900006C65645374726970436F6E74726F6C6C65722E73313970
S3150800000000200020AD690008FD690008890900087C
S3150800001000000000000000000000000000000000D2
S31508000020000000000000000000000000FD69000854
S315080000300000000000000000FD690008F50B00083C
S31508000040FD690008FD690008FD690008FD690008EA
S31508000050FD690008FD690008FD690008FD690008DA
S31508000060FD690008FD690008FD690008FD690008CA
S31508000070FD690008FD69000800000000050C00087D
S3150800008000000000FD6900080000000000000000F4
S31508000090FD69000800000000FD690008FD69000808
S315080000A0FD690008FD690008FD690008FD6900088A
S315080000B0FD690008FD69000800000000FD690008E8
S315080000C010B5064C2378002B07D1054B002B02D020
S315080000D0044800E000BF0123237010BD500800202B
S315080000E000000000DC720008084B10B5002B03D096
S315080000F00749084800E000BF07480368002B00D1FD
S3150800010010BD064B002BFBD09847F9E7000000000E
S3150800011054080020DC7200084C080020000000008B
S31508000120164B002B00D1144B9D46402292029A1A78
S31508000130924600218B460F461348144A121A06F0B7
S31508000140C5FA0F4B002B00D098470E4B002B00D05A
S3150800015098470020002104000D000D48002802D011
S315080001600C4806F083FB06F08DFA2000290006F0FD
S3150800017009FC06F077FAC0460000080000000000F7
S31508000180000000000000000050080020781200203F
S315080001906D6800087D68000870B502250C4B86B0AE
S315080001A0DA6A01262A43DA62DB6A0A4C2B40009394
S315080001B0009B03230193002301A9200002960393C1
S315080001C0049302F04FFAA561A66206B070BDC04658
S315080001D000100240000400507047C0467047C046F1
S315080001E0C046C046C046C046C046C0467047C04620
S315080001F010B51C4B1C491A6800200A601B490224CA
S315080002000A601B4A1B49DA610A601B4918600A60C2
S31508000210FF21090259601949194A9960FF21090401
S31508000220D960184986B01961FF2159611649996143
S31508000230D16A2143D162D36A01A923400093009B66
S315080002408023124C01937F3B0293039002332000D4
S31508000250049302F007FA00228021200002F08EFBA8
S3150800026006B010BD641100208811002084110020FA
S31508000270FFFFFF005C1100205811002000FFFF005F
S3150800028000100240FF00FF00C0FF000000040050FD
S315080002900100FA20074A10B513888000834207D068
S315080002A00120002903D05C1CD3181480197110BDD5
S315080002B00020FCE734090020F8B5072825D9154B96
S315080002C01B68154A154E13601F1C1D0A180C144B83
S315080002D0C0B21C78B3782100181A06F0D7F8114B6B
S315080002E0013018703378F8B22100181A06F0CEF8E3
S315080002F00D4B013018707378E8B2181A210006F011
S31508000300C5F80A4B01301870F8BD024B8000C35877
S31508000310D7E7C04664110020881100208411002008
S3150800032004000020541100206011002055110020FF
S31508000330F8B5072828D9164B1B68164A1C041360FB
S31508000340DDB21B026D095B0F640F1570124F5470F6
S315080003509370124AB8781678181A310006F096F88B
S315080003600F4B0130187038783100281A06F08EF8CD
S315080003700C4B0130187078783100201A06F086F890
S31508000380094B01301870F8BD014B8000C358D4E7FB
S315080003906411002084110020881100200400002028
S315080003A0541100206011002055110020072804D997
S315080003B0044B1A68044B1A607047024B8000C258F7
S315080003C0F8E7C0466411002058110020014B187048
S315080003D07047C0460400002055235B425A1A30B5C0
S315080003E0D2B20F4C072818D8800025580D480E4B56
S315080003F092001218180001211D3006E02168013309
S3150800040011600432834207D019780129F6D10133E5
S31508000410156004328342F7D130BD2568E6E7C04649
S3150800042064110020340E002090740008F0B54C4C7E
S315080004304C4B22689A420CD063785B006370237831
S315080004405B002370A3785B00A3702268464B1343B6
S315080004502360464A464B1168186881422AD000250F
S31508000460444950784D5759784919814205DC8142EB
S3150800047001DA002D03DB597002E0002DF7DD587014
S3150800048000253D4910784D5719784919814260DD94
S31508000490002D5EDD18700020384992780856997844
S315080004A00918914201DD002851DC914201DA002841
S315080004B04DDB9970C722002331489200836243625C
S315080004C08118030003E01A6004338B4211D05A687E
S315080004D0002AF8D11A68002AF6D05A7852085A70B3
S315080004E01A7852081A709A7852089A7004338B420E
S315080004F0EDD1244E3288002A24D0013A95B2331D14
S31508000500691C377959185A781A7001339942FAD101
S315080005103580072F17D91C4B1A68C72321219B0042
S31508000520C250836A1A04120F03624254DAB21209DD
S315080005300139425422221B021B0F8354236883620B
S315080005404362F0BD0027104BBF00FA58E5E79A70E2
S31508000550B0E7814201DA002D9CDB19709BE7C046A3
S3150800056058110020FFFFFF0001010100841100203F
S315080005708811002055110020601100205411002018
S31508000580340E0020340900206411002080220F4B0D
S3150800059010B59A61C046C046C046C046C046C04669
S315080005A0C046C046C046C046C046C046C046C0460D
S315080005B0C046C046C046C046C046C046C0469A6207
S315080005C0002801D0FFF70CFE10BDC04600040050FD
S315080005D080220F4B10B59A61C046C046C046C04639
S315080005E0C046C046C0469A62C046C046C046C046D7
S315080005F0C046C046C046C046C046C046C046C046BD
S31508000600C046C046002801D0FFF7EAFD10BDC04627
S3150800061000040050F8B5052246464F46294BC0B49B
S315080006201A60294B962680249946012376012404CC
S31508000630002598460AE0FFF7A9FF002F12D080246C
S315080006400135013EADB22404002E11D04A46474674
S31508000650AB00D358274038002342ECD1FFF7B8FF48
S31508000660002FECD16408C046C046013E002EEDD1ED
S3150800067090258024154BED0024049846012709E0AF
S31508000680FFF784FF002E10D16408C046C046013D1E
S31508000690002D0FD043463E001B68264030002342FB
S315080006A0EED1FFF795FF002EEED08024013D2404FD
S315080006B0002DEFD10722034B1A600CBC90469946D1
S315080006C0F8BDC04610E000E0340E00208811002076
S315080006D070B506001825012405E0013DFFF756FF11
S315080006E06400002D08D001203442F6D1013DFFF701
S315080006F06FFF6400002DF6D170BDC0462022064B60
S315080007009A62C046C046C046C046C046C046C046B5
S31508000710C046C046C04670470004005030B5094D73
S3150800072000202A88002A0BD0013A94B22B1D611C9E
S31508000730287959185A781A7001338B42FAD12C80C5
S3150800074030BDC04634090020072802D9034B186873
S315080007507047024B8000C058FAE7C0466411002073
S3150800076007280AD8064B8000C158C822054B9200B4
S315080007709A1802C39342FCD17047014B1968F4E7F3
S3150800078064110020340E002070B50378052B0FD8AD
S31508000790244A9B00D3589F46234B1B78013B5B009A
S315080007A0C31899785878AB2900DDAB21FFF714FEFA
S315080007B070BD1D4B1B785B00C25C002AF8D0C018C0
S315080007C001380078FFF7F2FDF2E7174B00241B7893
S315080007D0013B5B00C01885784678002DE8D00134C7
S315080007E03000E4B2FFF754FDA542F8D1E0E70E4B1E
S315080007F01B78013B5B00C0184078FFF75DFDD7E723
S31508000800094B1B78013B5B00C0184078FFF7A8FF2F
S31508000810CEE7054B1B78013B5B00C0184078FFF715
S3150800082087FDC5E7B07400080500002010B5FFF77E
S31508000830F1FE0122014B1A7010BDC046210D0020A1
S31508000840030030B587B003921B4A1B0C127801903F
S31508000850C0B20D000291DBB2824209D0002805D150
S315080008606A465279012A0BD0032A12D007B030BD46
S3150800087069464979022912D003290AD00129F5D1F6
S31508000880022BF3D128786B780002184300F0FCF8A5
S31508000890ECE7012BEAD12878FFF798FDE6E7002A6E
S315080008A0E4D000F0F5F816236B44188002211800EE
S315080008B000F022FADAE7C0460500002010B506491E
S315080008C0064800F0AFF9FFF767FC054800F056F94F
S315080008D0FFF78EFC10BDC0464108000889070008CE
S315080008E02D0800084023244A00B5116895B00B432B
S315080008F080211360214A4905936B06A80B4393632D
S315080009001F4A204B11680B40802109010B431360D5
S315080009100222069210928022D2021292802201238B
S31508000920D203099313920F330F220A9300230192DD
S315080009300C3A07930D930B9308930C931193029219
S3150800094003930493059302F0A1F9012101A802F08B
S315080009504FFC02F097FDFA21890005F00DFD00F025
S31508000960C3FC042000F026FD01200022012140429C
S3150800097000F064FC15B000BD0020024000100240E3
S3150800098000700040FFE7FFFFFEE7C0468021104BDE
S3150800099049001A680A431A60D9680E4A0A40DA609A
S315080009A019680D4A0A4001211A609A688A439A60B2
S315080009B019680A4A0A401A60D968094A0A40DA6078
S315080009C000221A618022074B12059A607047C046BA
S315080009D0001002400C40FF88F6FFF6FEFFFFFBFF03
S315080009E0FFFF02FF00ED00E00C211F4A10B5D36897
S315080009F00B40042B2FD020D9082B12D00C2B27D133
S31508000A00D3681A4CD1689B021B0FE05C0902D368B5
S31508000A10890F0131DB0321D4154B584305F0ACFC93
S31508000A2001E01448114C104BDB681B061B0FE3183A
S31508000A301B7BD840104B186010BD002B08D153689B
S31508000A4080201B045B0F013300029840074CEAE73D
S31508000A50054B5B68F4E70648044CE4E7054B584346
S31508000A6005F08AFCDFE7C04600100240C87400089B
S31508000A700024F40000127A0008000020014B1868D0
S31508000A807047C046240D00208023DB05D8627047D6
S31508000A908023DB05D86A80B27047C0460A4B1B78AC
S31508000AA0834200D0704780220021D2055162002B74
S31508000AB004D0012113688B431360F3E711680133EF
S31508000AC00B431360EEE7C0460C000020014B187874
S31508000AD07047C0460C0000204023244A00B5116820
S31508000AE095B00B4380211360214A4905936B06A8EC
S31508000AF00B4393631F4A204B11680B408021090161
S31508000B000B4313600222069210928022D20212929E
S31508000B1080220123D203099313920F330F220A93DB
S31508000B20002301920C3A07930D930B9308930C93A9
S31508000B301193029203930493059302F0A7F80121F7
S31508000B4001A802F055FB02F09DFCFA21890005F088
S31508000B5013FC00F0C9FB042000F02CFC0120002245
S31508000B600021404200F06AFB15B000BD002002409B
S31508000B700010024000700040FFE7FFFF10B50400B8
S31508000B80FFF7AAFF0122124B12491C608B6BC32484
S31508000B9013438B638023DB05D968A4001143D9600E
S31508000BA0FA21C90199621621D96218686E31014382
S31508000BB00020196008490870802108480902016068
S31508000BC001590902090A015119680A431A6010BD38
S31508000BD0C4110020001002400C00002000E100E0D3
S31508000BE0034A1368181813689842FCD87047C04619
S31508000BF0240D0020024A1368013313607047C0466B
S31508000C00240D002080230122DB05196910B50A424C
S31508000C1005D0196991431961014B1B68984710BDA6
S31508000C20C41100200122274B18608020264BC001E2
S31508000C301960264BD96A1143D962596B0143596326
S31508000C40196BA02011431963A023DB0519688003DB
S31508000C500143196018681E49014088201960596ABD
S31508000C60C00001435962586A1A49014059621A4B31
S31508000C701A49D96018681A4901408020196019680C
S31508000C8000020143196000215960403199603639E4
S31508000C901960186806390143196019681143196003
S31508000CA0C021104B890019600F4B10491960104973
S31508000CB099601049D9608021596019680A431A60F9
S31508000CC07047C046581200205412002000100240F7
S31508000CD0FFFFEBFF4FF4FFFF00380140050D000052
S31508000CE0FFEFFFEFA800024030000240A0200000FE
S31508000CF024380140D411002010B500290DD001393F
S31508000D008CB280210134084A041903789362D369A6
S31508000D101942FCD00130A042F7D140220249CB69E2
S31508000D201A42FCD010BDC04600380140F0B55746FF
S31508000D304E464546FF227F21E0B4B84BB84C5B6867
S31508000D4082B013407F3AD31A22789B1A8033DA1777
S31508000D50520E9B180B409B1A002B00DCC3E00122A5
S31508000D60B04B9A61FFF78AFE6060237A012B00D1A7
S31508000D70C7E0002B00D105E1022B62D0032B5AD124
S31508000D80FF217F26A54BA84D5A6898460A40237826
S31508000D907F398A1AD21A8032D117490E5218AF787B
S31508000DA032401800521A974245DA002F28D0FF2100
S31508000DB08C469E49C24689467F210022802788465E
S31508000DC00DE049464646C95C0133334023700B00A3
S31508000DD003700132AB78D2B2934210D9237869688E
S31508000DE066468818514649683140791A8B42E8D1D7
S31508000DF0002303700132AB78D2B29342EED8207842
S31508000E00FF22864B5B6813407F3AD31A834200D190
S31508000E10FDE0864B013A1B5C0130104020702B72B6
S31508000E20834B28681B686968AA689847686805F04C
S31508000E30F1FD0023237202B01CBC90469946A246D7
S31508000E40F0BDFF2180267F27744D22786B680B4002
S31508000E50F31A9B1A8033D817400E1B183B401B1AEF
S31508000E60022BE8DD6B680B40F31A9A4200D1CAE000
S31508000E706E4B985C3B0001321340020023700B4016
S31508000E80FF208021684D2A70644A526802408A1AF7
S31508000E909A4200D1B9E07F26644AD15C0133DA1759
S31508000EA0520E9B1833409B1A0A0023700340FF21F9
S31508000EB06A705A4A52680A407F398A1A9A4200D199
S31508000EC0A7E05A4A0139D05C0133DA17520E9B184B
S31508000ED00B409B1A23700300AB7005F091FD0323AA
S31508000EE068602372A7E7FFF7C9FD6368C8339842AD
S31508000EF000D83AE701224B4B9A62237A012B00D09D
S31508000F0037E7FF227F21454E2578736813407F3ADD
S31508000F10D31A5B1B8033DA17520E9B180B409B1AA9
S31508000F20062B00DC87E707220021684605F0CEFB82
S31508000F30802399463D4B002298467F230027FF20B1
S31508000F409C460AE0434661465B5D01350D406946AD
S31508000F508B5401320127072A0BD049467368034090
S31508000F60CB1A9D42EED1002369468B540132072ADB
S31508000F70F3D1002F50D12F4B68461B6898470023A2
S31508000F80237258E7FF21254A237852680A407F3999
S31508000F908A1A934200D14EE7244A0139D25C0133BA
S31508000FA00B402370FE2A18D0FC2A00D043E74F23B3
S31508000FB0802021498B62CA691F4B1042FBD04B2205
S31508000FC080219A62DA691142FCD040221A49CB691B
S31508000FD01A42FCD0022323722DE74F23802016499C
S31508000FE08B62CA69144B1042FBD04B2280219A624D
S31508000FF0DA691142FCD040220F49CB691A42FCD06B
S315080010000123237217E700223AE700224FE700235D
S3150800101005E7002000235FE72570ACE730000240B3
S315080010202C0D002000040050C8110020D411002007
S31508001030541200205812002000380140FF2110B534
S31508001040084A094C526823780A407F398A1A93421B
S3150800105006D0064AD05C7F2201331340237010BDA8
S315080010600020FCE7300002402C0D0020D41100209F
S315080010707047C0467047C0460121002210B5074B8D
S31508001080494299629A6259625A6219621A62D96128
S31508001090DA61FFF7EFFF002010BDC04600100240DE
S315080010A010B5040002F0EEF9FA21890005F064F99A
S315080010B000F01AF9012000222100404200F0BEF893
S315080010C0002010BD10B50020FFF7EAFFFFF7D0FF9C
S315080010D0002010BD024A1368013313607047C046EA
S315080010E0380D0020014B18687047C046380D00209F
S315080010F010B582B00190FFF7F5FF0400FFF7F2FF85
S31508001100019B001B9842F9D302B010BD0221024A86
S3150800111013688B431360704710E000E00223024A0D
S3150800112011680B431360704710E000E000487047F1
S3150800113000000501014B1868000C70470058014073
S31508001140024B18680005000D7047C046005801405C
S315080011500123024A51680B43536070470058014007
S315080011600121024A53688B43536070470058014077
S315080011700223024A51680B435360704700580140E6
S315080011800221024A53688B43536070470058014056
S315080011900423024A51680B435360704700580140C4
S315080011A00421024A53688B43536070470058014034
S315080011B0024B5A68104358607047C04600580140B1
S315080011C0024A5368834353607047C046005801403B
S315080011D0024B1868C0239B00184070470000014066
S315080011E00123024A116A0B4313627047000001404B
S315080011F00121024A136A8B431362704700000140BB
S315080012003021044B1A6A8A431A621A6A1043186212
S315080012107047C046000001408021034A0906136A48
S315080012200B4313627047C04600000140024A136A26
S315080012305B005B08136270470000014070B5002828
S3150800124014DB032483082040FC342600134AC025F7
S315080012509446C00089018640214081409B00634432
S31508001260AD005A59B2431143595170BD03240F2397
S31508001270C0B203402040FC342500094AC000944609
S315080012808901854021408140083B9B089B006344B7
S31508001290DA69AA431143D961E7E7C04600E100E0ED
S315080012A000ED00E01F2318401E3B8340014A1360EF
S315080012B07047C04600E100E01F2318401E3B8340EC
S315080012C0802201498B50704700E100E0BFF34F8F41
S315080012D0034A044BDA60BFF34F8FC046FDE7C046AA
S315080012E00400FA0500ED00E00A4A431E0120934275
S315080012F00ED8C020084A094953600B6A00061B022B
S315080013001B0A03430B620023002093600733136014
S315080013107047C046FFFFFF0010E000E000ED00E068
S3150800132000280BDB03218308C0330D4A9B009A581B
S315080013300840C300DA409009084070470F2209495F
S31508001340C3B28C461A40083A920892006244506822
S3150800135003221340DB00D84080091040EDE7C04661
S3150800136000E100E018ED00E01F23802218401E3B34
S315080013708340024952008B507047C04600E100E0A6
S315080013808023054A5B00D3581F221040C34018002B
S31508001390012318407047C04600E100E01F23C02221
S315080013A018401E3B8340024952008B507047C04686
S315080013B000E100E0042805D00421054A13688B43A0
S315080013C013607047024B1A6810431860F9E7C04665
S315080013D010E000E07047C04610B5FFF7FBFF10BDF0
S315080013E04279124B9A600279012A03D00022DA6008
S315080013F01A61704701680E329143D960827A1107E3
S31508001400427A12060A4301790A43C17A89040A43D1
S31508001410017B49040A43417B09040A43C17909024D
S315080014200A43817949000A431A61E2E790ED00E030
S3150800143010B5002857D02523C35CDBB2002B2FD06C
S3150800144002222523C25403683E4A1968C46811401B
S3150800145082682243046922434469224384692243F9
S31508001460C4692243046A22430A431A60364A9342ED
S3150800147024D0364A93422BD0354A934235D0354A42
S31508001480934210D0344A93423AD0344A934242D0D7
S31508001490334A93424AD001222523C254002010BD64
S315080014A024228354CCE72F4B2F4A19680A401A6026
S315080014B041681A6809030A431A60ECE70F21294BA9
S315080014C01A688A431A601A6841680A431A60E2E78A
S315080014D0F021244B1A688A431A6041681A68090180
S315080014E00A431A60D7E70120D9E71E4B1F4A196835
S315080014F00A401A6041681A6809020A431A60CAE76C
S31508001500184B1B4A19680A401A6041681A68090488
S315080015100A431A60BFE7134B164A19680A401A604D
S3150800152041681A6809050A431A60B4E70D4B124A5E
S3150800153019680A401A6041681A6809060A431A6057
S31508001540A9E7C0460FC0FFFF080002401C00024082
S315080015503000024044000240580002406C0002403D
S3150800156080000240A8000240FF0FFFFFFFF0FFFFC8
S31508001570FFFFF0FFFFFF0FFFFFFFFFF0002838D047
S315080015802523C35C022B34D0012103681A688A43D9
S315080015901A6000221A605A609A60DA60594A9342C1
S315080015A029D0594A93424CD0584A93425FD0584A58
S315080015B093424FD0574A934200D17CE0564A934211
S315080015C000D191E08021554A49045160802189045F
S315080015D051608021090551608021504AC904516033
S315080015E0484A934213D10F214D4A13688B4313601F
S315080015F01FE001207047494A5160022151600631B7
S3150800160051600439454A51603E4A9342EBD03E4AFE
S31508001610934238D03D4A93423BD03D4A93423ED00E
S315080016203C4A934241D03C4A934251D03D4A934268
S3150800163054D00023252283638354013A835400201F
S31508001640D8E71021354A5160103151606031516038
S315080016504039D7E78021314A490151608021890103
S3150800166051608021090251608021C901CAE78021A1
S315080016702A4A490051604918516080210901516080
S315080016808021C900BEE7F021254A13688B43136001
S31508001690CFE7234A244B11680B401360C9E7204A59
S315080016A0224B11680B401360C3E71D4A204B116893
S315080016B00B401360BDE78021184A4902516080211A
S315080016C0890251608021090351608021C90299E786
S315080016D0134A184B11680B401360AAE7104A164BB9
S315080016E011680B401360A4E780210C4A4903516036
S315080016F08021890351608021090451608021C90332
S3150800170080E7C046080002401C0002403000024044
S3150800171044000240580002406C00024000000240AB
S31508001720A800024080000240FFF0FFFFFF0FFFFF06
S31508001730FFFFF0FFFFFF0FFFFFFFFFF070B5242547
S31508001740465D0224012E12D0012646550135445520
S3150800175004682568B543256063608368102B08D044
S31508001760A160E2600123226813432360002420005D
S3150800177070BDA260E160F5E770B52425465D0224D8
S31508001780012E1ED0012646550135445504682568A4
S31508001790B543256063608368102B14D0A160E260AE
S315080017A00223226813432360042322681343236019
S315080017B00823226813432360012322681343236006
S315080017C00024200070BDA260E160E9E701210268FB
S315080017D0F8B5136804008B431360FFF783FCFA26F9
S315080017E007000125B60004E0FFF77CFCC01BB042E9
S315080017F00AD823681B682B40F6D124220020A3545C
S315080018002533233AE254F8BD2023A26B0320134361
S31508001810A36300222423E25403320133E254F2E79D
S31508001820F8B556464D4644465F468046F0B4894666
S31508001830160000296ED103689F4A934200D185E0BD
S315080018409E4A934200D1F0E09D4A934200D182E03D
S315080018509C4A934200D1FBE09B4A934200D10CE19B
S315080018609A4A8025934200D118E1AD04FFF73AFC65
S315080018708246974C904F4346914A1B689346914A35
S315080018808E49944612E08B4268D05B4568D0634522
S3150800189069D08D48834269D08C48834269D08020BC
S315080018A0000502420BD1721C00D091E022682A4240
S315080018B062D12268BB42E6D108200242F3D07E4AB2
S315080018C0934200D1B5E07D4A934200D1B3E07C4A09
S315080018D0934200D1B6E07B4A934200D1BDE07A4AF2
S315080018E0934200D1C1E0794A934200D1CBE08022ED
S315080018F01205774B41465A6043469A6B01231343B8
S315080019004246936304222523CA540022013BCA5443
S31508001910012057E00368684A934215D0674A934204
S3150800192000D184E0664A934212D0664A934200D1B7
S315080019308BE0654A934200D19CE0644A8025934235
S3150800194000D1A9E0ED0491E704258FE702258DE78C
S315080019508025ED008AE78025AD0087E78020A0E78F
S31508001960802000019DE7802000029AE7802000037E
S3150800197097E78020000494E74A46002A40D14E4A59
S31508001980934268D04D4A934200D171E04C4A934243
S3150800199000D17BE04B4A934200D181E04A4A934208
S315080019A000D180E0494A934200D17FE08022920428
S315080019B0474B5A60012225234146CA54002200207B
S315080019C0013BCA543CBC90469946A246AB46F8BD74
S315080019D0002E06D0FFF786FB5346C01A864200D370
S315080019E049E743469A6B202313434246414693638D
S315080019F003222523CA540022013BCA540320E1E7E7
S31508001A002D4A934219D02D4A934229D02C4A934203
S31508001A1036D02C4A93423CD02B4A934222D02B4AAA
S31508001A20934246D08022D20408E020251EE74025AE
S31508001A301CE708225DE780225BE70422244B5A60F4
S31508001A400522B8E78022120153E78025ED010DE74C
S31508001A508025AD010AE70222AAE78022120248E79A
S31508001A604022EBE78022D202E8E78022120340E711
S31508001A7020229DE78025ED02F8E68025AD02F5E6F1
S31508001A808022D200DAE78022120432E7802292000E
S31508001A908EE78022D201D1E7ED03E7E6AD03E5E65E
S31508001AA08022920184E78022920281E780229203B3
S31508001AB07EE78022D203C1E7080002401C000240EC
S31508001AC03000024044000240580002406C000240C8
S31508001AD00000024070B503680400B849B8480D68AC
S31508001AE01A1E824237D0B748834200D1D7E0B6489B
S31508001AF0834200D1DEE0B548834200D102E1B44812
S31508001B00834200D1F1E0B348834200D135E1280190
S31508001B1000D4C5E10821186801426BD018688843CB
S31508001B20A74918608B4251D0A6498B4200D133E1B0
S31508001B30A5498B4200D160E1A4498B4200D170E1EE
S31508001B40A3498B4200D135E1A24980208B4200D1BE
S31508001B507CE100053BE02807DCD4096804220A4238
S31508001B6000D1BDE019680A4200D1B9E01A689206A8
S31508001B7000D5D8E0924A0420196881431960904933
S31508001B808A4200D1CFE08F498A4200D106E18E49C8
S31508001B908A4200D134E18D498A4200D144E18C4918
S31508001BA08A4200D118E18B498A4200D150E180214E
S31508001BB08248C9044160052525216554216B002901
S31508001BC000D0B9E080210068890434E008207B4908
S31508001BD048600121A06B0143A163042025216054BC
S31508001BE0002001396054616B002903D02000884722
S31508001BF023681A007149724809688342AED0714851
S31508001C00834250D07048834258D07048834200D1EE
S31508001C107CE06F48834200D16BE06E48834200D176
S31508001C20AFE0490103D51968490700D51FE16349A3
S31508001C30086880218904084230D0022118680142C8
S31508001C402CD01868800602D41868884318605C4B44
S31508001C509A4264D05B4B9A4263D05B4B9A4200D15E
S31508001C6097E05A4B9A4200D1C4E0594B9A4200D1A8
S31508001C70D4E0584B9A4200D1E5E0802292044F4BBB
S31508001C805A60A36B0122A3632523E2540022013B79
S31508001C90E254E36A002B01D02000984770BD28065D
S31508001CA000D537E709684A0611D4444A2021106846
S31508001CB0444AC0E7280500D52CE709684A0500D537
S31508001CC0E8E03E4A1068404A80218900B3E71A686E
S31508001CD05207EAD53B4A1968890600D553E74AE709
S31508001CE0364A10680221364AA5E7280300D511E7C7
S31508001CF009684A0300D5D5E08021304A8902106870
S31508001D00334A98E7280400D504E709684A0400D549
S31508001D10BAE02A4A10682D4A802189018BE70222F7
S31508001D20ADE72022ABE704210520244A5160213182
S31508001D306054216B0029D4D020008847204D1F49C4
S31508001D40236808681A000221AB4200D173E71D4DCB
S31508001D501E31AB4200D16EE71B498B42B4D01B49FA
S31508001D608B42D9D01A498B4200D18AE08021194D7D
S31508001D708904AB4200D05EE708E0280200D5C9E630
S31508001D8009684A0278D40D4A1068124A80218903E4
S31508001D9051E78022920072E7802018E74021052546
S31508001DA0064841601B396554216B0029C4D1006877
S31508001DB0202140E78020000309E7C04600000240D2
S31508001DC0080002401C000240300002404400024065
S31508001DD0580002406C00024080213548C902416023
S31508001DE0052525216554216B0029A5D18021006888
S31508001DF0890220E78022920141E780200001E6E679
S31508001E0080212B48C9004160052525216554216B91
S31508001E10002991D18021006889000CE7802292026E
S31508001E202DE780200002D2E680212148C9014160C1
S31508001E30052525216554216B002900D07CE78021E2
S31508001E4000688901F7E68022920318E70004BEE6D7
S31508001E5080211748C9034160052525216554216B52
S31508001E60002900D068E7802100688903E3E619683D
S31508001E70890600D583E67EE61A68520783D50D4A99
S31508001E8029E780218902D6E61A68520700D440E776
S31508001E90094A20E71A68520700D412E7074A1AE7E0
S31508001EA00968BEE61A68520700D425E7044A12E70D
S31508001EB0000002406C00024044000240300002402C
S31508001EC0580002402523C05CC0B27047806B70473B
S31508001ED0214B9B69DB0504D50823204A51690B432E
S31508001EE053611D4B9B699B0504D504231B4A516905
S31508001EF00B435361184B9B695B0504D50223174AAC
S31508001F0051690B435361144B9B691B0504D5102378
S31508001F10124A51690B4353610F4B9B699B0404D5C5
S31508001F2001230E4A51690B4353610B4B9B699B0373
S31508001F3004D52023094A51690B435361064B9B6913
S31508001F40DB0304D54023054A51690B435361044A10
S31508001F50014B9A617047C046002002405C1200207F
S31508001F60002F03007047C0467047C046354B364AB7
S31508001F709B6970B51340354C934224D00223314DEA
S31508001F80AA69134203D0AB612378002B12D12378B8
S31508001F90DBB2002B0DD12B4A2D4950680140516008
S31508001FA050682C490140516050682B4901405160E6
S31508001FB0237470BD2378012B11D02378022B38D0D7
S31508001FC000232370E3E72378012B27D0E568FFF782
S31508001FD07FFF2800FFF7C8FF00232370CEE763685A
S31508001FE0013B63606368002B1CD0A068FFF7BAFF4B
S31508001FF0A368A26880208032A2606968174A8000B8
S315080020000A4000216A6061616A68803302436A6037
S315080020100822686802436A601960B8E7023BA56847
S31508002020A360D4E701204042A0602370FFF79AFF1F
S31508002030ADE708226B6893436B60E068FFF792FF91
S31508002040BEE7C04600200240002F03005C120020B5
S31508002050F7FDFFFFFFFFFEFFFFFFFDFFFFFDFFFF91
S31508002060094B01205A68920708D55A68104206D1CA
S315080020700020054B054A1A61054A1A617047054A48
S31508002080DA60054ADA60F3E700200240BFAE9D8CAD
S3150800209016151413EFCDAB89050403020223034A70
S315080020A0002051680B4353607047C0460020024029
S315080020B0094B01205A68520708D55A68104206D1BA
S315080020C00020054B054A5A61054A5A617047054A78
S315080020D0DA60054ADA60F3E700200240C8D9EAFB6D
S315080020E027262524EFCDAB89050403020423034ADA
S315080020F0002051680B4353607047C04600200240D9
S31508002100014B58697047C0465C120020F8B50400B8
S31508002110FEF7E8FF1A4E0700012501E0631C12D1FD
S31508002120B369174A1D42F9D1022391690B4213D1AB
S31508002130134B9A69D20502D49A6992050ED5FFF710
S31508002140C7FE0120F8BD002C04D0FEF7CBFFC01B4C
S315080021508442E5D20320F5E79361E9E79A695205D7
S31508002160EDD49A691205EAD49A699204E7D49A6971
S315080021709203E4D49B690020DB03E0D4E2E7C0467F
S315080021800020024070B50C4C0D00237C160002207E
S31508002190012B00D170BD012308482374FFF7B6FF51
S315080021A0002802D000232374F4E760612E600348F8
S315080021B0FFF7ACFFF6E7C0465C12002050C30000EC
S315080021C0F8B5114C0600237C0D0017000220012BE0
S315080021D000D1F8BD01230D482374FFF797FF0028A7
S315080021E0F7D180210A4B49025A680A4380215A606E
S315080021F05A6889020A435A6002232370E560022E50
S31508002200E7D160612F60E4E75C12002050C300004C
S315080022100020024000228021054B10B55A61054A6C
S31508002220C902536804480B435360FFF76FFF10BD9C
S315080022305C1200200020024050C30000002110B5A7
S315080022408024064BA4005961054B5A6822435A60FC
S3150800225008225C6822435A60016010BD5C120020A7
S315080022600020024070B5040010480D00FFF74EFF2D
S3150800227000280DD10E4B5861230409D0002D0BD12F
S315080022800C498B68A3439BB2DA43120413438B6051
S315080022900648FFF73BFF70BD064A93681C43A4B285
S315080022A0E3431B041C439460F2E7C04650C3000096
S315080022B05C1200200000F81F70B50B4D06000B4895
S315080022C06C68FFF723FF00280CD12404084B36025C
S315080022D0240C34435861E3431B041C432C60034815
S315080022E0FFF714FF70BDC0460000F81F50C300007A
S315080022F05C120020F0B557464E464546E0B4204FDE
S3150800230006003B7C8A460220012B04D11CBC904661
S315080023109946A246F0BD01231A483B74FFF7F6FE1C
S315080023208046031E28D15246013B78611360B36884
S315080023307468DB011B199C421ED20823124D99466C
S3150800234007E07268B3689446DB0180346344A342AD
S3150800235012D92000FFF772FF0A48FFF7D7FE4A4650
S315080023606B6893436B606A68084B13406B60002880
S31508002370E7D0534680461C60002340463B74C5E7B9
S315080023805C12002050C3000000200240FFFDFFFF42
S31508002390F8B5114C0600237C0225012B01D1280033
S315080023A0F8BD01270D482774FFF7B0FE051EF6D1C4
S315080023B080210B4B49025A680A4380215A605A68A1
S315080023C089020A435A60B36860617068277063605F
S315080023D0A060FFF733FFE2E75C12002050C300005D
S315080023E000200240F0B5474680B4454C0500237CE2
S315080023F00220012B0FD001222B68227401381A42C1
S315080024000CD19A0712D45A072AD41A075BD4DB06CA
S3150800241044D40023237404BC9046F0BD6968A868B8
S31508002420FFF720FF002859D12B68EAE7354F3648D1
S315080024303B682E7B9846FFF769FE0028E9D1FF2303
S3150800244042461B021A401643F3431B041E436061AF
S315080024503E602D48FFF75AFE0028DAD12B68D2E7EE
S315080024600023284EAF7B6361736827489846FFF7B9
S315080024704DFE0028CDD1702342461F40234B606194
S315080024801A4013003B43DA431204134373601E4891
S31508002490FFF73CFE0028BCD12B68B6E7194E1A4850
S315080024A0EF7B7568FFF732FE0028B2D16D04FF0393
S315080024B06D0C3D43EB431B041D4360617560124878
S315080024C0FFF724FEA5E70F4F0F487B686E7B9846FB
S315080024D0FFF71CFE002804D02B6898E70022227418
S315080024E099E742460A4B60611A401643F3431B04B8
S315080024F01E437E600448FFF709FE2B6887E7C0463F
S315080025005C1200200000F81F50C300008FFF000077
S31508002510F0FF000010B50F24094B04601A6A8260A8
S31508002520DA6902737022D969090C11408173DA6974
S31508002530120C22404273DB69DB0FC37310BDC04621
S315080025400020024003001A6810B50120D20703D5FF
S3150800255019799868FFF786FE10BDC0460121044A1E
S315080025600160D3691B0A0B400371136A83607047C5
S315080025700020024010B50120FFF79EFE10BDC046A0
S3150800258010B50020FFF798FE10BDC046054B012088
S315080025905A68D20704D50020034ADA60034ADA608B
S315080025A07047C04600200240EFCDAB890504030200
S315080025B00123034A002051680B4353607047C04605
S315080025C00020024010B504000548FFF79FFD0028CB
S315080025D005D1044B586120600148FFF797FD10BDEF
S315080025E050C300005C120020F8B5124C0500237C8D
S315080025F00F0016000220012B00D1F8BD01230E485A
S315080026002374FFF783FD00280BD16061022D0BD0E0
S31508002610012D0BD0002D01D1F6B23E700648FFF70A
S3150800262075FD00232374E8E73E60F7E7B6B23E80FF
S31508002630F4E7C0465C12002050C300008021034A1C
S31508002640490053680B4353607047C0460020024058
S31508002650024A034B51680B40536070470020024002
S31508002660FFFEFFFFF0B54D4644465F465646F0B4BA
S315080026708946096885B000240022002900D1B3E004
S3150800268001239846654B8A469B46654B9C464B46B6
S31508002690019369E0013D012D00D885E00325A54099
S315080026A0ED4303270F40A74006682E403E430660C9
S315080026B0C6683540019EB668A6403543C560802584
S315080026C06D0529424BD05D4646466D6B0F2735434F
S315080026D05E467563534E9508B146AD004D44AE68E7
S315080026E0B14603261640B600B74003964E46BE438B
S315080026F00296A026F605B04200D17CE04A4EB042CA
S3150800270000D17AE0494EB04200D17AE0484EB04254
S3150800271000D17AE0474EB04200D17AE00626039F00
S31508002720BE40029F3743AF606546DE432D68CF0340
S3150800273058D4354067463D607D688F0350D4354090
S3150800274067467D60BD68CF0248D435406746BD60A0
S31508002750FD68890240D42B0033406146CB6053465E
S3150800276001320234D3403FD04346514693400B4092
S31508002770F5D00199102649680D00B543022D89D177
S315080027800F27093E1640B600B740D508AD004519D3
S3150800279002952D6ABD43019FA9463D69B5402E00A5
S315080027A04D462E43029D2E620325A540019FED430B
S315080027B0FF688668A7402E403E4347469740866096
S315080027C04668BE43029646460F09374097403E0084
S315080027D0029F3743476064E72B43BEE71D43B5E7CF
S315080027E01D43ADE71D43A5E705B03CBC9046994699
S315080027F0A246AB46F0BD002693E74646039FBE4079
S315080028008FE70226039FBE408BE70326039FBE4041
S3150800281087E70526039FBE4083E7C04600100240AF
S315080028200004014000000140000400500008005068
S31508002830000C0050001C0050F0B55F4656464D4649
S315080028404446F0B4002383B000296CD00122944694
S31508002850023290460C32914603E00A000133DA4010
S3150800286061D066460D009E403540F6D047465A0070
S315080028709740FA43046814400460DC08A40007196A
S3150800288001973F6ABA4607271F40BF00BB464F4617
S315080028905C46A740BB4657465C46A7433C00019F9B
S315080028A03C6284684F46144084604468B44344607C
S315080028B0C4682240284CC260A24644461C40A40074
S315080028C0A7409A08920052449668BA463E40A02706
S315080028D0FF05B8422ED0214FB8422DD0204FB8421E
S315080028E02ED0204FB8422FD01F4FB84230D00627DF
S315080028F0A7403C00A642B0D15646ED439468013342
S31508002900B4439460194A194C12682A4022606268D6
S315080029102A406260A2682A40A260E26815400A005E
S31508002920E560DA409DD103B03CBC90469946A24684
S31508002930AB46F0BD0024DDE76746A7403C00D9E773
S315080029400227A7403C00D5E74746A7403C00D1E709
S315080029500527A7403C00CDE70000014000040050D1
S3150800296000080050000C0050001C005000040140F4
S3150800297000690840411E8841C0B27047002A01D14B
S31508002980816270478161FCE743695940416170473C
S31508002990802382B05B020193019B0B430193019B49
S315080029A0C361C161019BC361C3690193C369012006
S315080029B01B0C984302B070477047C046044B10B5CD
S315080029C05A69104202D05861FFF7F6FF10BDC0469B
S315080029D0000401408021054B49059A6A0A439A6218
S315080029E0996A034A0A409A627047C0460010024034
S315080029F0FFFFFFEF8021034A490013680B4313606A
S31508002A007047C04600700040024A034B11680B40ED
S31508002A101360704700700040FFFEFFFFE0211A4A6E
S31508002A2013688B4301680B431360184B184A59689F
S31508002A3011405960196811401960D9681140D96068
S31508002A4099680A4080219A60426849020A4202D07F
S31508002A50186801431960930305D580200B49400285
S31508002A604B6803434B60D30705D5802007494002CE
S31508002A708B6803438B60930705D58021034A490277
S31508002A80D3680B43D36070470070004000040140D0
S31508002A90FFFFFEFF1023024A11680B4313607047BD
S31508002AA0007000401021024A13688B431360704778
S31508002AB000700040024B5A68104358607047C04681
S31508002AC000700040024A5368834353607047C0460B
S31508002AD00070004010B50324084A1368A34318433E
S31508002AE010600420064A136983431361012903D041
S31508002AF040BF20BF20BF10BD30BFFCE700700040BC
S31508002B0000ED00E010B503240B4A1368A3431843ED
S31508002B1004231060094A106903431361012908D088
S31508002B2040BF20BF20BF0421044A13698B431361A9
S31508002B3010BD30BFF7E7C0460070004000ED00E06A
S31508002B400223054A11680B4313600423034A1169DB
S31508002B500B43136130BF70470070004000ED00E082
S31508002B600223024A11690B431361704700ED00E026
S31508002B700221024A13698B431361704700ED00E096
S31508002B801023024A11690B431361704700ED00E0F8
S31508002B901021024A13698B431361704700ED00E068
S31508002BA07047C04670B58025044C6D0263692B4298
S31508002BB002D0FFF7F5FF656170BDC046000401400D
S31508002BC08021034AC90013680B4313607047C04647
S31508002BD000700040024A034B11680B4013607047AF
S31508002BE000700040FFFBFFFF8021034A890013683D
S31508002BF00B4313607047C04600700040024A034BFF
S31508002C0011680B401360704700700040FFFDFFFF1E
S31508002C100122054B19680A4380211A601A68C901FE
S31508002C200A431A607047C0460070004010B5124C3F
S31508002C30124B2268124913400122236023689343EA
S31508002C402360104B186803F097FB3223584300287B
S31508002C500BD063689B0608D52200202102E0536842
S31508002C60194202D001380028F9D10320024B5B68CB
S31508002C709B06DB17184010BD00700040FFBFFFFF22
S31508002C8040420F00080000207047C046F0B557467E
S31508002C904E464546E0B4036882B00400DA0736D5E6
S31508002CA00C20C849CA680240082A00D159E1CA68F6
S31508002CB002400C2A00D150E1802361685B029942E8
S31508002CC000D101E2A022D202914200D192E1BD4D8B
S31508002CD0BD4A286802402A602A6813400193019B6E
S31508002CE02A68BA4B13402B60002900D08FE1FEF703
S31508002CF0F9F980260700B60205E0FEF7F3F9C01BCE
S31508002D00642800D9AEE12B683342F6D123689A07C6
S31508002D102CD50C20AB49CA680240042A00D1A7E189
S31508002D20CA6802400C2A00D19EE1E368A54D002B33
S31508002D3000D134E109212A6804278A4313432B600A
S31508002D40FEF7D0F9060005E0FEF7CCF9801B02284D
S31508002D5000D987E12B689B4A1F42F5D02169536841
S31508002D6008029B490B40034353602368DA062CD5B7
S31508002D700C22944DEB681A4200D1D2E0E369002B8D
S31508002D8000D1A6E180222B68520013432B60FEF780
S31508002D90A9F980260700B60005E0FEF7A3F9C01BCF
S31508002DA0022800D95EE12B68864A3342F5D051687D
S31508002DB0884B0B40616A0B4353605368216A1B02B8
S31508002DC009061B0A0B43536023681A0717D563695C
S31508002DD07C4D002B00D1CFE001232A6D0226134338
S31508002DE02B65FEF77FF9070005E0FEF77BF9C01BA8
S31508002DF0022800D936E12B6D1E42F6D023689A06C2
S31508002E001FD5A3696F4D002B00D145E10123AA68A0
S31508002E1071491A43AA606A6B022613436F4A6B63A9
S31508002E20136A0B431362FEF75DF9070005E0FEF728
S31508002E3059F9C01B022800D914E1AB681E42F6D026
S31508002E4023685B0746D5802200205E4B5205996BA6
S31508002E508146114204D1996B0A439A630123994624
S31508002E60802600225E4D76002B689246334200D1BA
S31508002E704FE18022A3685200934200D15BE1002B08
S31508002E8000D1D5E0A021C9008B4200D18AE14D4B83
S31508002E90544A196D0A401A65196D534A0A401A654B
S31508002EA0FEF720F980258046464EAD004F4F06E0D6
S31508002EB0FEF718F94346C01AB84200D9D2E0336D76
S31508002EC02B42F5D05346012B00D116E14B46012B78
S31508002ED000D118E1A36A002B1CD00C21394DEA68F1
S31508002EE00A400C2A46D02A68022B00D128E1404B1A
S31508002EF02C0013402B60FEF7F5F880250600AD047C
S31508002F0005E0FEF7EFF8801B022800D9AAE023683F
S31508002F102B42F6D1002002B01CBC90469946A24628
S31508002F20F0BD2B689B0502D5E369002B22D0254A04
S31508002F30284B516800200B40616A0B435360536865
S31508002F40216A1B0209061B0A0B435360FEF7A8F801
S31508002F5023681A0700D452E739E7CA68D20300D4AF
S31508002F60AAE6184A1268920300D4D0E66268002AD4
S31508002F7000D0CCE60120CEE701222B6D0226934332
S31508002F802B65FEF7AFF8070004E0FEF7ABF8C01BA9
S31508002F90022867D82B6D1E42F7D123682FE709222E
S31508002FA02B68042693432B60FEF79CF8070004E081
S31508002FB0FEF798F8C01B022854D82B681E42F7D192
S31508002FC02368D3E600100240FFFFFEFFFFFFFBFF6A
S31508002FD0FFE0FFFFFF1FFFFF012000000000014088
S31508002FE000700040FFFEFFFFFFFBFFFF8813000095
S31508002FF0FFFFFFFE724A7349106801408020116086
S315080030001168C0020143116011680B431360FEF793
S3150800301069F8802507006A4EAD0204E0FEF762F8FB
S31508003020C01B64281ED833682B42F7D023686EE687
S31508003030634D654B2A6D802613402B652A6D634BBD
S31508003040B60013402B65FEF74DF8614F804605E044
S31508003050FEF748F84346C01AB84203D82B6D3342E8
S31508003060F6D12FE7032056E7CA68D20300D55CE6F7
S31508003070534A1268520703D5E268012A00D079E755
S3150800308021694F4D08026A6852490A4002436A603C
S31508003090DA0600D499E66BE60122AB68022693436A
S315080030A04D4AAB60116A4D4B0B401362FEF71AF896
S315080030B0070004E0FEF716F8C01B0228D2D8AB6852
S315080030C01E42F7D12368BCE63D4A136819431160CE
S315080030D09DE72A683C4B802613402B60FEF702F8D2
S315080030E0B600070004E0FDF7FDFFC01B0228B9D8AB
S315080030F02B683342F7D1236867E6394A324B1168A1
S315080031000B401360E2E62E4A364B916B0B409363F5
S31508003110E0E62B6833432B60FDF7E4FF070004E085
S31508003120FDF7E0FFC01B64289CD82B683342F7D014
S3150800313001239A469DE622490A6D13430B65AFE6BD
S31508003140294B802713402B60FDF7CCFFBF04804630
S3150800315005E0FDF7C7FF4346C01A022882D82B6848
S31508003160174E3B42F5D1626B216BF3681143E26A55
S31508003170802411431D4AA404134080220B43F360A4
S315080031803368520413433360FDF7ACFF050005E0CE
S31508003190FDF7A8FF401B022800D963E733682342DE
S315080031A0F6D0B7E6064B0849186D01408020196528
S315080031B0196DC00001431965196D0A431A656FE652
S315080031C000100240FFFFFEFFFFFEFFFFFFFBFFFFB1
S315080031D088130000FFE0FFFF00000140FEDFFFFF4D
S315080031E000700040FFFFFFEFFFFFFFFEFFFF02FF3B
S315080031F0F8B546464F460C000121554AC0B4136837
S3150800320006000B40A3420CD213688B43234313607A
S31508003210136819408C4204D001200CBC904699468C
S31508003220F8BD33689A0706D5F0204A49CA6882432A
S31508003230B0680243CA60DB0728D5464A7368126835
S31508003240022B4FD0002B48D0032B7ED05207E3D554
S315080032500321404DEA688A431343EB60FDF742FFBA
S3150800326073680700022B40D0032B5ED0002B4CD18D
S315080032700C339846384B994604E0FDF733FFC01BDC
S3150800328048452DD84246EB681A42F6D10121304A04
S3150800329013680B409C4207D813688B43234313607B
S315080032A0136819408C42B7D133685A0706D529499D
S315080032B02A4AC8680240F0680243CA601B0707D555
S315080032C024483169C368264AC90013400B43C360C2
S315080032D00020FDF7E5FE00209FE79205B8D49BE79E
S315080032E003209AE79203B3D496E70A3398461A4B13
S315080032F0994604E0FDF7F6FEC01B4845F0D842465D
S31508003300EB681340082BF5D1C0E70C239846124BFF
S31508003310994604E0FDF7E6FEC01B4845E0D842465C
S31508003320EB681340042BF5D1B0E7093398460A4BEE
S31508003330994604E0FDF7D6FEC01B4845D0D842465C
S31508003340EB6813400C2BF5D1A0E7920180D463E714
S31508003350002002400010024088130000FFF8FFFF1B
S31508003360FFC7FFFF022370B588B0049301330693A5
S3150800337000230C001500059300280AD001281BD04D
S31508003380164A174BD1680B401D432C43D46008B02E
S3150800339070BD0126114AD16A3143D162D36A0790BA
S315080033A033400193019BA020802303A95B00C0053D
S315080033B00393FFF757F9E3E7084AD16A0143D16255
S315080033C0D26A03A910400290029AA0208022C00562
S315080033D0920003920793FFF745F9D1E700100240E0
S315080033E0FFFFFF808021034A090313680B4313601C
S315080033F07047C046001002400C2110B51C4C63688B
S31508003400E2681B045B0F0A40042A1FD019D9082A50
S3150800341015D00C2A15D1E368164AE1689B021B0FE2
S31508003420D35C0902E268890F0131D20315D42268F8
S31508003430D20617D51048584302F09EFF00E00F4801
S3150800344010BD8020013300029840F9E72368DB06A7
S3150800345001D50948F4E70A48F2E70848584302F054
S315080034608BFFEDE70648584302F086FFE8E7C046BB
S3150800347000100240C874000800093D0000127A00D6
S315080034800024F40010B5FFF7B7FF054B054ADB68C3
S315080034901B061B0FD35CD840034B186010BDC046F3
S315080034A000100240E47400080800002010B5FFF779
S315080034B0A3FF0749074ACB681B061B0FD35CD840F6
S315080034C0054B1860CB685B055B0FD35CD84010BD15
S315080034D000100240E47400080800002010B5FFF749
S315080034E08BFF0749074ACB681B061B0FD35CD840DE
S315080034F0054B1860CB689B045B0FD35CD84010BDA6
S3150800350000100240E4740008080000203F2303600E
S31508003510364B1A68520343D5A023DB024360334B6C
S315080035201A6880235B00134046D00123C3612F4AE3
S3150800353013681B0E036253681B045B0F4362936890
S31508003540012213404BD082610122284B1B6813408D
S3150800355043D0C260254A5368DB04DB0E0361136D52
S315080035605B0533D5A023DB00836001221F4B1B6D4F
S31508003570134023D01D4B42611B68DB0123D4012372
S3150800358083628023194A5B02D1680B40C362D36801
S315080035909B021B0F0363D3681B029B0F4363704791
S315080035A080221B68520213401DD0104B42601A68D5
S315080035B080235B001340B8D1C361B8E743610B4B66
S315080035C01B68DB01DBD502238362DAE7136D8022F1
S315080035D05200134005D08260C7E7C360BAE783612B
S315080035E0B2E78360C1E7436099E7C046001002402E
S315080035F00F2310B503240C4A0360D36823404360A5
S31508003600D368ED3423408360E023D468DB001C4094
S31508003610C460D268D208134001220361034B1B68B9
S3150800362013400B6010BDC046001002400020024047
S315080036307047C04670B58025044C6D0063692B42FF
S3150800364002D0FFF7F5FFA56170BDC0460010024025
S3150800365080210C4B49001A6882B00A431A6019681F
S31508003660094A0A401A608022196852020A400192E1
S31508003670019A1968054A0A401A600022DA601A6136
S3150800368002B0704700100240F4FFF6FEFFFFFBFF92
S31508003690F0B54746036880B407009A0650D54369D3
S315080036A0C020554980030A685A40024205D0C02204
S315080036B092021340934200D17EE0802180254E4A33
S315080036C04905936B4D4C0B43936323686D002B435D
S315080036D02360FDF707FD060004E0FDF703FD801BE8
S315080036E0642867D823682B42F7D0C021424C7A69F0
S315080036F0236D890253400B4221D08025206D216D10
S315080037002D0329432165256D3D493E4B29408025DA
S315080037100340AD0021652365284253D1C02113001B
S3150800372089020B408B425DD03349374A086802400C
S315080037300A603149334A086D024013430B653B68FA
S31508003740DA0706D503202C49CA6C824378680243F7
S31508003750CA649A0706D50C202749CA6C8243B868FA
S315080037600243CA645A0706D52349284AC86C024048
S31508003770F8680243CA641A0706D51F49244AC86C62
S31508003780024038690243CA645A0606D51A49214ACC
S31508003790C86C0240B8690243CA6400201B0606D5F5
S315080037A015491D4BCA6C1340FA691343CB6404BC14
S315080037B09046F0BD0320FAE70B6801209B0300D46E
S315080037C07BE7F4E7FDF78EFC144B0600984604E009
S315080037D0FDF788FC801B4045ECD8236D2B42F7D0BB
S315080037E07A699BE7044C084920680840C021890388
S315080037F00A40024322609CE7001002400070004025
S31508003800FFFFF7FFFFFFFCFFFFFFCFFFFFF3FFFF01
S31508003810FFCFFFFFFFFFFFFBFFFFF3FF881300004B
S31508003820EF2303210360114BDA6C0A404260DA6C1D
S3150800383009310A408260C022D96C12010A40C2606E
S31508003840C022D96C92010A400261C022D96C1203C7
S315080038500A40C261C022196D92020A404261DA6CBE
S315080038608023DB04134083617047C0460010024082
S3150800387010B5402813D8614B80001B589F46C023BB
S315080038805F4A9B01D16C0B4064D0802189018B4231
S3150800389000D187E080225201934200D192E00020B5
S315080038A010BD8021564AC904D36C0B4000D07FE076
S315080038B0136800209B01F3D5D3685248D1689B0250
S315080038C01B0FC35C0902D068890F0131C00300D5FC
S315080038D08AE01268D20600D588E04B48584302F0C1
S315080038E04BFDDDE70321464AD36C0B4079D0022B0A
S315080038F058D0012B66D00020032BD1D1106D80053E
S31508003900C00FC003CCE70C213D4AD36C0B4021D035
S31508003910082B47D0042B55D000200C2BC0D1EDE73F
S31508003920C02237491201CB6C134013D08020000106
S31508003930834250D08020C000834243D00020934267
S31508003940AED1086D8005C00FC003A9E72C4B9B6B51
S315080039505B02A4D5FFF7AAFDA2E7C0218020284A6A
S315080039608902136D40020B408342C7D08024A4020B
S31508003970A3422AD000208B4200D091E71368234245
S3150800398000D18DE71368C022802192031340890372
S315080039908B4231D093422DD080225203934227D0B6
S315080039A01A487DE713685B0700D478E7164877E777
S315080039B000208B4200D073E793689B0700D46FE71B
S315080039C013486DE7FFF718FD6AE7136D9B0700D4E8
S315080039D065E7104864E70B685B0700D45FE70A48A9
S315080039E05EE7FFF77BFD5BE70B4877E7074875E778
S315080039F00A4855E70A4853E70A4851E7F4740008A5
S31508003A0000100240C87400080024F40000093D00B4
S31508003A10006CDC028890000000127A0080841E0088
S31508003A2020A1070040420F008021034A8901136D37
S31508003A300B4313657047C04600100240044B054A05
S31508003A40196D0A4080211A651A698A431A617047F6
S31508003A5000100240FFDFFFFF8021094B89011A6D24
S31508003A6080200A431A658022196900030A431A61ED
S31508003A70044B1968014319609A6802439A607047B3
S31508003A8000100240000401407047C04670B580250A
S31508003A90034C63691D4202D0FFF7F6FFA56170BDAE
S31508003AA00010024080211C4B09059A6A0A439A6253
S31508003AB0996A1A4A0A409A62194B1A4A59680A4078
S31508003AC05A605A6801680A435A605A6841680A4344
S31508003AD05A605A6881680A435A605A68120E120672
S31508003AE05A605A68C1680A435A6001695A680904E3
S31508003AF00A435A6019680C4A0A401A6042691968EA
S31508003B0012020A431A60402219680A431A602022E0
S31508003B1019680A431A60704700100240FFFFFFF752
S31508003B20006C0040FFFFFF48FFC0FFFF8023024AEA
S31508003B3011680B4313607047006C0040084A5368CD
S31508003B401B041B0C036013689B049B0E436093685D
S31508003B501B0C8360802392681B021340C360704766
S31508003B60006C0040F0B5474680B40600FDF7BAFA87
S31508003B70234C8046012702250CE01023E2681843EF
S31508003B800C3B1343E360A3681B0736D50823E360A1
S31508003B90002832D1731C26D00120002E25D1A36817
S31508003BA01F4201D02843E760A3681D4202D00423C0
S31508003BB0E5601843A3685B0505D52023E26818432A
S31508003BC01C3B1343E360A368DB0505D50823E268BD
S31508003BD01843043B1343E360A3689B05CDD4A3684D
S31508003BE01B07D5D5D2E70020D9E7FDF77BFA434670
S31508003BF0C01A864280414042D1E704BC9046F0BDD7
S31508003C00006C0040024A0349136A0B43136270476B
S31508003C100000014001200000024A034B116A0B40D4
S31508003C201362704700000140FEDFFFFF8022036831
S31508003C30D20590420DD00B4A90420AD00A4A9042C9
S31508003C4007D003608B68C3620B68836201234361F4
S31508003C507047702293434A681343044A1340CA685C
S31508003C601343EEE70008014000140140FFFCFFFF84
S31508003C70F0B501248027056AFF05A5430562866914
S31508003C80056AB84215D00D4FB84212D00C4FB8424B
S31508003C900FD0032296433443F0221B0194430F327C
S31508003CA013401C430A239D430B402B438461036244
S31508003CB0F0BD0324A64334001443EDE70008014091
S31508003CC0001401400268702030B5072493688343C6
S31508003CD048680343A3430C6823439360502835D0B0
S31508003CE023D960280ED070280BD18868CD689368D0
S31508003CF0054328001E4C234018430B691B02034347
S31508003D00936030BD10248B680869116A0003A143CB
S31508003D1011629569174C116A2C402043A0241B0197
S31508003D20A1430B4390611362EBE74028E9D10120D8
S31508003D30146A136A834313629369EF308343180046
S31508003D400B691B01034393611462DAE70125136AC1
S31508003D50106A8C68A843096910629069EF35A84310
S31508003D60090101430A208343234391611362C8E78B
S31508003D70FF00FFFFFF0FFFFF7047C04670B5041E28
S31508003D8014D03523C35CDBB2002B0AD002233525B9
S31508003D9020686355211DFFF749FF0123002063555D
S31508003DA070BD34228354FFF7E7FFEFE70120F7E7FA
S31508003DB07047C0460222352310B5C2540368094A23
S31508003DC0196A0400114203D101211A688A431A604C
S31508003DD02000FFF7EDFF00233522A354013A002007
S31508003DE0A35410BD1111000035220223012110B57C
S31508003DF00468835423680B4323608154002010BD54
S31508003E0002223523C2540368064A196A114203D1AD
S31508003E1001211A688A431A6001223523C2540020F8
S31508003E207047C0461111000001220368D9680020B6
S31508003E301143D96019680A431A607047012103685B
S31508003E40DA688A43DA60186A034A104202D11A68A5
S31508003E508A431A60002070471111000070B5352595
S31508003E60465D04000220022E18D0635D012B16D091
S31508003E70A069104B2568C3620F4B2C3543631300AA
S31508003E802A00FDF779FC802123684900DA680020BA
S31508003E900A43DA60012219680A431A6070BD0029CC
S31508003EA003D002203523E054E2E70138002AF8D08F
S31508003EB0F4E7C04605540008D55500080368084AC3
S31508003EC0D9680A40DA60196A064A114203D1012103
S31508003ED01A688A431A6001223523C25400207047A3
S31508003EE0FFFEFFFF111100007047C04670B5041EA3
S31508003EF014D03523C35CDBB2002B0AD00223352548
S31508003F0020686355211DFFF791FE012300206355A4
S31508003F1070BD34228354FFF7E7FFEFE70120F7E788
S31508003F207047C0460222352310B5C2540368094AB1
S31508003F30196A0400114203D101211A688A431A60DA
S31508003F402000FFF7EDFF00233522A354013A002095
S31508003F50A35410BD111100007047C04670B5041E69
S31508003F6014D03523C35CDBB2002B0AD002233525D7
S31508003F7020686355211DFFF759FE0123002063556C
S31508003F8070BD34228354FFF7E7FFEFE70120F7E718
S31508003F907047C0460222352310B5C2540368094A41
S31508003FA0196A0400114203D101211A688A431A606A
S31508003FB02000FFF7EDFF00233522A354013A002025
S31508003FC0A35410BD1111000030B5012425008D4001
S31508003FD003681A6AAA431A621A6A1A62196A054AA9
S31508003FE0114202D11A68A2431A6001223523C2542B
S31508003FF0002030BD1111000070B50D0011003522EA
S31508004000865C04000220022E26D0A25C012A24D057
S31508004010042D2CD0042D4AD9082D38D00C2D58D172
S31508004020A06A2D4AC2622D4A426322684032FDF7D1
S31508004030A3FB802123684901DA680A43DA60012272
S315080040401400AC40186AA04318620020196A21437C
S31508004050196219680A431A6070BD002902D101382D
S31508004060002BF9D102203522A054042DD2D1206A82
S31508004070194AC262194A426322683832FDF77CFB44
S3150800408080212368C900DA680A43DA60D7E7606ADC
S31508004090114AC262114A426322683C32FDF76CFB40
S315080040A0802123680901DA680A43DA60C7E7002D28
S315080040B00FD1E069084AC262084A4263226834326C
S315080040C0FDF75AFB802123688900DA680A43DA601B
S315080040D0B5E72368B3E7C04661540008D55500081C
S315080040E010B5FFF789FF10BD7047C04670B5041EAE
S315080040F014D03523C35CDBB2002B0AD00223352546
S3150800410020686355211DFFF791FD012300206355A3
S3150800411070BD34228354FFF7E7FFEFE70120F7E786
S315080041207047C0460222352310B5C2540368094AAF
S31508004130196A0400114203D101211A688A431A60D8
S315080041402000FFF7EDFF00233522A354013A002093
S31508004150A35410BD11110000012210B514008C40A3
S315080041600368186AA0431862196A00202143196275
S3150800417019680A431A6010BD10B5FFF7EDFF10BDA8
S3150800418010B5FFF7E9FF10BD0368012010B504005C
S315080041908C401A6AA2431A621A6A1A62196A044A8F
S315080041A0114202D11A6882431A60002010BDC04627
S315080041B01111000010B5FFF7E7FF10BD10B504296F
S315080041C017D01BD9082914D00C291FD1102203682F
S315080041D0D8680243DA60012214008C40186AA043AA
S315080041E01862196A00202143196219680A431A607D
S315080041F010BD0368DA680A43DA60ECE7002905D1DE
S3150800420002220368D8680243DA60E4E70368E2E753
S3150800421010B5FFF7D3FF10BD10B5FFF7CFFF10BDE0
S3150800422010B504291AD01ED9082917D00C2922D16D
S3150800423003681020DA688243DA60012004008C40A3
S315080042401A6AA2431A621A6A1A62196A0B4A114250
S3150800425002D11A6882431A60002010BD0368DA6822
S315080042608A43DA60E9E7002905D103680220DA689B
S315080042708243DA60E1E70368DFE7C0461111000010
S3150800428010B5FFF7CDFF10BD10B5FFF7C9FF10BD7C
S3150800429070B50D003521465C04000220022E26D09A
S315080042A0615C012924D0042D3AD0042D48D9082D63
S315080042B026D00C2D56D1A06A2D49C1622D494163DD
S315080042C021684031FDF758FA802123684901DA68E8
S315080042D00A43DA6001221400AC40186AA043186247
S315080042E00020196A2143196219680A431A6070BDC9
S315080042F0002A39D0022035216054042DD5D10FE08B
S31508004300606A1B49C1621B49416321683C31FDF75C
S3150800431033FA802123680901DA680A43DA60D9E7A3
S31508004320206A1349C1621349416321683831FDF790
S3150800433023FA80212368C900DA680A43DA60C9E7E4
S31508004340002D0FD1E0690A49C1620A494163216813
S315080043503431FDF711FA802123688900DA680A43A7
S31508004360DA60B7E72368B5E70138002BC2D0BEE7A5
S315080043701D540008D555000830B504292DD022D97A
S3150800438008291AD00C2926D10368174ADC68224066
S31508004390DA60012425008D401A6AAA431A621A6A4D
S315080043A01A62196A114A114202D11A68A2431A609E
S315080043B001223523C254002030BD03680C4ADC684C
S315080043C02240DA60E5E7002905D10368094ADC6876
S315080043D02240DA60DDE70368DBE70368064ADC6843
S315080043E02240DA60D5E7C046FFEFFFFF1111000053
S315080043F0FFF7FFFFFFFDFFFFFFFBFFFF10B5FFF70E
S31508004400BBFF10BD10B5FFF7B7FF10BD7047C0461C
S3150800441070B504000D0000281CD03523C35CDBB240
S31508004420002B12D002233526211DA3552068FFF73D
S31508004430FDFB0821236800201A688A431A601A6857
S3150800444015431D600123A35570BD34228354FFF71D
S31508004450DDFFE7E70120F7E77047C046022235236C
S3150800446010B5C2540368094A196A0400114203D1F7
S3150800447001211A688A431A602000FFF7EDFF00231E
S315080044803522A354013A0020A35410BD111100008F
S3150800449001220368196A002091431962196A0A43BE
S315080044A01A621022196A91431962196A0A431A6232
S315080044B07047C0460121036810201A6A8A431A62A7
S315080044C01A6A1A621A6A82431A621A6A1A62186A97
S315080044D0034A104202D11A688A431A6000207047BC
S315080044E01111000002220368D96800200A43DA6025
S315080044F00422D9680A43DA600122196A91431962CB
S31508004500196A0A431A621022196A91431962196ACA
S315080045100A431A627047C046022103681020DA6807
S315080045208A43DA60DA6802318A43DA601A6A03393A
S315080045308A431A621A6A1A621A6A82431A621A6ADB
S315080045401A62186A034A104202D11A688A431A6024
S3150800455000207047111100007047C046F8B50500E5
S315080045600C00002840D03523C35CDBB2002B36D0C4
S31508004570290035260223072201C9AB5583689343D0
S315080045808360FFF753FB2B68206899689A6908438C
S315080045908446A1691548090202400A43A1681448DD
S315080045A00A4302401100E2691F6A100222691201D9
S315080045B00243E0680243206A000302430A43616932
S315080045C00801AA218F433900014360680143604608
S315080045D098609A61196201230020AB55F8BD342210
S315080045E08354FFF7B9FFC3E70120F7E7FCFCFFFF99
S315080045F00303FFFF7047C0460222352310B5C25495
S315080046000368094A196A0400114203D101211A688C
S315080046108A431A602000FFF7EDFF00233522A354D2
S31508004620013A0020A35410BD11110000002918D02A
S31508004630042914D001220368196A91431962196A78
S315080046400A431A621022196A91431962196A0020EC
S315080046500A431A62012219680A431A6070470368F6
S31508004660F0E703680122196AEEE7C046002920D060
S31508004670042916D0012103681A6A8A431A621A6A3B
S315080046800F311A621A6A8A431A621A6A1A62196A10
S315080046900C4A114203D101211A688A431A60002084
S315080046A07047102103681A6A8A431A621A6A1A62DC
S315080046B0EDE7012103681A6A8A431A621A6A1A62BE
S315080046C0E5E7C0461111000000292AD004291CD0AC
S315080046D001220368196A91431962196A0A431A6220
S315080046E01022196A91431962196A0A431A62022248
S315080046F0D9680A43DA600422D9680A43DA600122D3
S31508004700196800200A431A60704710220368186A5D
S3150800471090431862186A02431A62DA681143D9602C
S31508004720EDE701220368196A91431962196A0A4377
S315080047301A620222D9680A43DA60E0E7036810B50C
S315080047401A6A002915D101318A431A621A6A013197
S315080047501A62DA688A43DA60196A154A114203D17D
S3150800476001211A688A431A6001223523C25400209F
S3150800477010BD042913D001218A431A621A6A0F311F
S315080047801A621A6A8A431A621A6A0E391A62DA6849
S315080047908A43DA60DA6802318A43DA60DCE7102491
S315080047A0A2431A621A6A1A62DA688A43DA60D3E797
S315080047B011110000F0B5474680B41F0006AB1E88ED
S315080047C03523C55C04000220022D09D0E35C012BC9
S315080047D009D0042910D0182942D00020002929D050
S315080047E004BC9046F0BD002A6DD0002F6BD0022085
S315080047F03523E0540429EED1206A354B2168C3627B
S31508004800344B383143633A003300FCF7B5FF802157
S315080048102368C900DA680A43DA60012219680A437C
S315080048201A601022196A91431962196A00200A430C
S315080048301A62D5E7E069264B2168C362254B3431F5
S3150800484043633300FCF798FF802123688900DA6800
S315080048500A43DA600122196811431960196AE2E706
S315080048601B4BE06998461B4D2168C36234313300FF
S315080048704563FCF781FF4346206A2168C3623831E5
S3150800488033003A004563FCF777FF012223680020CE
S31508004890196811431960196A91431962196A0A431A
S315080048A01A621022196A91431962196A0A43802109
S315080048B01A62DA6889000A438021DA60DA68C90070
S315080048C00A43DA608CE70120002E90D088E7C046BC
S315080048D01D540008D555000803681A6A002915D121
S315080048E001318A431A621A6A1A62D968174A0A4053
S315080048F0DA60196A164A114203D101211A688A43F5
S315080049001A6001223523C25400207047042913D0A7
S3150800491001218A431A621A6A0F311A621A6A8A438D
S315080049201A621A6A1A62D968084A0A40DA60D968A5
S31508004930084A0A40DA60DCE70C318A431A621A6AC6
S315080049401A62D968034A0A40DA60D2E7FFFDFFFF18
S3150800495011110000FFFBFFFFF0B53424055D0300CD
S315080049600220012D28D001251D5501341855042A89
S315080049703AD051D9082A20D00C2A16D11A683248BA
S31508004980146A20401062176A304C5668D069044091
S31508004990086805022C432E488D68384049682D035F
S315080049A028435660D4611164106201213522995456
S315080049B000210020013A9954F0BD1A682548146A66
S315080049C0204010627320156A5668D46984430868C3
S315080049D00443214828408D6849682D0228435660BB
S315080049E0D461D1631062E0E710241A68106AA04304
S315080049F01062106A154C566895692C400D682D0290
S31508004A002C432025A8438D6849682D012843566004
S31508004A10946191631062C8E7002AC6D11A687327A1
S31508004A20146AAC431462156A56688543280094696B
S31508004A308D68BC430F6849683C43284356609461B7
S31508004A4051631062B1E7C046FFEFFFFFFF8CFFFF1F
S31508004A50FFDFFFFFFFFEFFFFFFFDFFFFF0B5474645
S31508004A60342380B40D00C15C04000220012937D02C
S31508004A700121E1540133E054002A34D02368042A82
S31508004A8041D0082A66D01F6A46492A6839406E68A6
S31508004A90E8681962DF69196A36028C4642490007D6
S31508004AA03940424F0E433E40000C3043664640496B
S31508004AB012033140A026360232400A43D8611A62F0
S31508004AC0D9693C4A0A40DA61AA68D96912020A43D6
S31508004AD0DA6101223523E25400220020013BE25428
S31508004AE004BC9046F0BDEB686A6829682068FFF741
S31508004AF0BFF80C2123689A698A439A619969AA685A
S31508004B000A439A61E5E71027196A2A68B9436E6865
S31508004B10E8681962996990468C466246224F3602C1
S31508004B2017403E43214F00073E40000C42463043A3
S31508004B30A026196A1201B14332400A4398611A62E3
S31508004B4099691C4A0A409A61AA68996912020A4335
S31508004B509A61BEE76A68196A90460322164FE868A2
S31508004B600F402E681F62D9691F6A914342460A435D
S31508004B70F0218A4311000201FF2002400F480A4330
S31508004B803840A02731023F0139400143DA611962F2
S31508004B900C21DA698A43DA61D969AA680A43DA61B3
S31508004BA097E7C046FFEFFFFFFFFCFFFFFF0FFFFF82
S31508004BB0FF5FFFFFFFF3FFFFFFFEFFFFFFF5FFFFAE
S31508004BC0F0B53424055D03000220012D37D00125F8
S31508004BD01D5501341855042A54D000D878E0082AFF
S31508004BE02ED00C2A24D11A684B48146A2040106229
S31508004BF0176A4A4C5668D0690440086805022C436F
S31508004C008D685660D4614C684548146480243840E1
S31508004C102D0328431062D06924012043D061D4694A
S31508004C204048C9682040D061D06909020143D16172
S31508004C3001213522995400210020013A9954F0BDEA
S31508004C401868394C056A2C4004627324066A47685A
S31508004C50C569A5430C682543344C34408E684760C3
S31508004C603602C5614D683443C5630462C46922438C
S31508004C700424C261C269A243C261C469CA682243E4
S31508004C80C261D5E710241A68106AA0431062106A38
S31508004C90224C566895692C400D682D022C43202518
S31508004CA0A8438D68566094614C682D0194638024EE
S31508004CB02843106290692401204390619469194839
S31508004CC0C968204090619069090201439161AFE784
S31508004CD0002AADD11A687327146AAC431462156AA0
S31508004CE056688543280094698D68BC430F685660EA
S31508004CF03C4394614C6828435463106208209469C5
S31508004D00C9682043042490619069A0439061906922
S31508004D10014391618CE7C046FFEFFFFFFF8CFFFF61
S31508004D20FFDFFFFFFFFBFFFFFFFEFFFFFFFDFFFFAC
S31508004D30F0B544465F4656464D46F0B4040083B087
S31508004D409A4200D183E03425465D0220012E46D0E2
S31508004D5001276755013560554D680E68AC468D6864
S31508004D60AB46002A00D174E0042A3FD0002B5CD061
S31508004D70042B2DD110262368CA680D694869196A5B
S31508004D802D02B14319629F693F4E00073E403543E5
S31508004D903E4E000C35402843A025196A1201A94346
S31508004DA02A400A4398611A629969394A0A40702169
S31508004DB09A619A688A439A60602299680A43072129
S31508004DC09A609A688A439A60062299680A439A60A2
S31508004DD001223523E25400220020013BE25403B0AD
S31508004DE03CBC90469946A246AB46F0BD10272268C1
S31508004DF03602106AB8431062106A57689569824687
S31508004E00A946244D5760A8464D46404605402E43C0
S31508004E1020205546854328005D462D0105436046FA
S31508004E20966190631562002BA2D14B690A692068C6
S31508004E30C968FEF71DFF0C2123689A698A439A619F
S31508004E409A6864318A439A6099685022B6E70120C5
S31508004E50C5E72268156ABD431562156A0195556846
S31508004E60A8469569A9467325AA464D465746BD43A1
S31508004E70019F2E43874340465D46506060463D434A
S31508004E8096615063156271E7FFFCFFFFFF0FFFFF96
S31508004E90FFF3FFFFFF8CFFFF70B50E0019003523E7
S31508004EA01500C25C04000220022A1FD0E35C012B15
S31508004EB01DD08023DB009D4222D09D4230D980231D
S31508004EC05B019D4229D08023DB019D4235D080239A
S31508004ED01B019D422ED0049A236816439E64DA6805
S31508004EE000201543DD6001223523E25470BD0029F8
S31508004EF029D035230222E2548023DB009D42DCD1EF
S31508004F00206A134BC362134B4363049B22681B0A34
S31508004F1001334C32FCF730FCDDE7A06A0C4BF1E7B5
S31508004F2080235B009D420BD0DB189D42D3D1E069FC
S31508004F30074BE7E7606A064BE4E7E06A064BE1E7FA
S31508004F40A069064BDEE7049B0138002BD1D0CDE7DC
S31508004F5061540008D5550008C155000805540008D5
S31508004F6070B515001A0035230E00C15C0400022036
S31508004F7002291FD0E35C012B1DD08023DB009D4254
S31508004F8022D09D4230D980235B019D4229D08023BF
S31508004F90DB019D4235D080231B019D422ED0049A09
S31508004FA0236816439E64DA6800201543DD600122F3
S31508004FB03523E25470BD002A29D035230221E15455
S31508004FC08023DB009D42DCD1206A134BC362134B5E
S31508004FD04363049B21681B0A01334C31FCF7CCFB65
S31508004FE0DDE7A06A0C4BF1E780235B009D420BD0FE
S31508004FF0DB189D42D3D1E069074BE7E7606A064BA9
S31508005000E4E7E06A064BE1E7A069064BDEE7049BA6
S315080050100138002BD1D0CDE71D540008D55500081E
S31508005020C155000805540008802370B5DB0005004B
S315080050300C1E9C422ED0994211D980235B019942BD
S3150800504018D08023DB01994220D080231B01994286
S3150800505014D02A680020D368A343D36070BD802388
S315080050605B0099420ED0DB189942F2D1C069FCF771
S31508005070ADFBEEE7806AFCF7A9FBEAE7406AFCF7B6
S31508005080A5FBE6E78069FCF7A1FBE2E7C06AFCF747
S315080050909DFBDEE7006AFCF799FBDAE710B5FFF738
S315080050A0C3FF10BD342210B5845C03000220012C16
S315080050B008D0352418551868416101211955002171
S315080050C00020995410BDC04670B53424055D030010
S315080050D00220012D1ED001251D550134185548689A
S315080050E0012818D0042A28D0042A39D9082A2ED00B
S315080050F00C2A08D10A681968002A3CD08020CA6997
S3150800510000020243CA610121352299540021002078
S31508005110013A995470BD1D688C68CE68A868264304
S315080051201F4C20400C69304324022043A860082005
S31508005130AC682043A860042AD6D10A681968002AF0
S3150800514023D080208A69000202438A61DBE70A6865
S315080051501968002A1ED08022C8690243CA61D2E7AC
S31508005160002AD0D10A681968002A09D080228869DD
S3150800517002438A61C7E7C8690A4A0240CA61C2E7A8
S3150800518080208A6982438A61BDE78869054A0240A8
S315080051908A61B8E78020CA698243CA61B3E7C04614
S315080051A0FF00FFFFFF7FFFFF342270B5845C0223F8
S315080051B0012C3ED0012484540132835403685A4A90
S315080051C09D682A409A600A68402A00D176E01CD970
S315080051D0702A62D02FD980246401A24258D0802434
S315080051E0A401A2421ED14C688E689A6826433400F0
S315080051F04E4D2A401443CA688021120222439A60FF
S315080052009A68C9010A439A600CE0102A30D036D948
S31508005210202A6AD0302A05D170219A688A433939FA
S315080052200A439A6001223523C2540022013BC25424
S315080052300023180070BD502A5ED0602AF2D11025CE
S315080052404A68CC68196A2403A94319629E69384DCD
S31508005250196A35402C43A0251201A9430A43702137
S315080052609C611A629A688A4309390A439A60D9E79F
S3150800527070219A688A4359390A439A60D2E7002A04
S31508005280D0D170219A688A4369390A439A60C9E776
S3150800529007219A688A439A60C4E74C688E689A68B8
S315080052A026433400214D2A401443CA681202224379
S315080052B09A60772299680A439A60B3E71A6A1E6A5F
S315080052C04D68A643C9681E62F0269C690901B44365
S315080052D021430A2499617021A2432A431A629A68D3
S315080052E08A4329390A439A609CE770219A688A4357
S315080052F049390A439A6095E71A6A1E6A4D68A643B1
S31508005300C9681E62F0269C690901B44321430A2430
S3150800531099617021A2432A431A629A688A43193905
S315080053200A439A607EE7C0468800FFFFFF00FFFF3A
S31508005330FF0FFFFF0268802053688343194300204C
S3150800534051607047F8B53425435D04000220012BEF
S3150800535013D0012735266755A0552000FEF7B2FC65
S31508005360402123680020DA688A43DA60D968034A4C
S315080053700A40DA600023A7556355F8BDFFBFFFFF53
S31508005380F8B53425435D04000220012B13D001270C
S3150800539035266755A0552000FEF794FC4022236861
S315080053A00020D9680A43DA60D968034A0A40DA60F5
S315080053B00023A7556355F8BDFFBFFFFF3423C35C21
S315080053C002000220012B0CD004290ED010D908297E
S315080053D008D00C2911D113681B6C002034215054B5
S315080053E0180070471368DB6BF7E713689B6BF4E7E5
S315080053F0002902D113685B6BEFE70023EDE7C0468F
S315080054007047C0460122352310B5806AC254FFF79B
S31508005410F7FF10BD7047C0467047C04635220123C6
S3150800542010B5846AA354E26990420FD0236A984261
S315080054300ED0636A98420ED0A36A984205D020001F
S31508005440FFF7EAFF0023237510BD08232375F6E747
S3150800545002232375F3E704232375F0E77047C04654
S315080054603522012310B5846AA354E26990420FD00D
S31508005470236A98420ED0636A98420ED0A36A98426D
S3150800548005D02000FFF7EAFF0023237510BD082387
S315080054902375F6E702232375F3E704232375F0E75C
S315080054A07047C0460222036810B5196904000A420B
S315080054B002D0D9680A425AD1042219690A4202D08E
S315080054C0D9680A4240D1082219690A4202D0D96825
S315080054D00A4228D1102219690A4202D0D9680A421A
S315080054E00ED1012219690A4202D0D9680A4254D15A
S315080054F0402219690A4202D0D9680A4247D110BD2A
